:100000000C9426040C9443040C9443040C94430471
:100010000C9443040C9443040C9443040C94430444
:100020000C9443040C9443040C943C2C0C940E2D1F
:100030000C948A220C9443040C9443040C944304BF
:100040000C9443040C9443040C9443040C94430414
:100050000C9443040C94F2220C9443040C94430437
:100060000C9443040C9443040C9443040C944304F4
:100070000C9443040C9443040C9443040C944304E4
:100080000C9443040C9443040C9443040C944304D4
:100090000C9443040C9443040C9443040C944304C4
:1000A0000C9443040C9443040C944304D504D804E6
:1000B000DB04DE04E104E304E604B806BB06C10683
:1000C000C406C706CA06CD06D006D306D606D9068C
:1000D000DC06DF060C0711071B070F0714071907BB
:1000E0001707DB07DD07E807DF07E107E307E50799
:1000F000E707EA07EC07EE07F907F007F207F4074E
:10010000F607F807FB0702180218341834186B18A2
:100110008918E819461ACB18461A6E196E19DF1994
:10012000461A461A401A7B197B197B197B197B19D1
:100130007B197B197B197B197B197B197B197B191F
:100140007B197B197B198C199919A019A719B11959
:10015000D71AD71AE91AE91AE01AE91AE91AE91AB4
:10016000D71AD71AE51AE91AE91AE51A7B2DA22D32
:100170009A2EA22D9A2EEE2D112E9A2E682E772EC3
:1001800007634236B79BD8A71A39685618AEBAAB80
:10019000558C1D3CB7CC5763BD6DEDFD753EF61714
:1001A0007231BF000000803F05A84CCDB2D44EB9DB
:1001B0003836A9020C50B9918688083CA6AAAA2A0A
:1001C000BE000000803F6572676F646F785F657A7C
:1001D0002F666B6F683131315F64656661756C7471
:1001E000204020302E362E34382D32312D673835D0
:1001F000353563312D64697274790002E002E101E2
:100200002B03E103E00002E0012B03E00002E00227
:10021000E27303E203E000253E2520003C2D200090
:10022000667265646572696B2E68616E73656E4097
:1002300064656E74737561656769732E636F6D00B5
:10024000667265646572696B5F6B6F6B4069636C46
:100250006F75642E636F6D0002E3012C03E30002EF
:10026000E06E03E00002E2013D03E20002E07403FD
:10027000E00002E07703E00002E3010F03E3000087
:1002800000F0A1DF5C2B004C00E100006100001ECB
:1002900000140004001D00E45C4D001F001A00164D
:1002A000001B0000742A002000080007000600E779
:1002B000002C00210015000900190000644A0022EA
:1002C0000017000A00050000002F00560001000082
:1002D000000153000030002E02B7000000B60000FD
:1002E00000E40023001C000B001100000029002482
:1002F0000018000D00100052004B0025000C000EED
:1003000000360051002800260012000F0037005070
:10031000002B0027001300330001514F004E002E28
:10032000002F0034002D0038000000DF5C2B004C53
:1003300000E100006100003A00E25C04001D00E4FE
:100340005C4D003B000100FB001B0000742A003CD8
:1003500000F900FA0006000068F4003D00E15CFCD2
:1003600000190000644A003E00E05C01000100004A
:10037000002F00E75CE85C0000010000003000E9AD
:100380005CB7000000B60000000100FD00EB5C015E
:1003900000110000002900FE00EA5CF200A90052F2
:1003A000004B00FF00F000F100AA0051002800E619
:1003B0005C1200F300A8005000F500E55C0100317C
:1003C0000001004F004E002E00350034000251386D
:1003D000000000DF5C010001000100010000003AA4
:1003E00000010001000100010001003B00010001CB
:1003F000000100010001003C0001000100010001BA
:100400000001003D00010001000100010001003E6B
:1004100000010001000100000001000100010000D6
:1004200000010000000100010001000000010000C7
:100430000001003F00010001000100000001004038
:100440000001000100010001000100410001000164
:100450000001000100010042000100010001000153
:100460000001004300010001000100010001000142
:100470000001000100010001000000000000000078
:100480000000002A2B2800000000000000000000EF
:1004900000000000000029000000002C1E34202174
:1004A0002224342627252E362D3738271E1F2021BB
:1004B00022232425263333362E37381F040506071A
:1004C00008090A0B0C0D0E0F101112131415161734
:1004D00018191A1B1C1D2F3130232D350405060752
:1004E00008090A0B0C0D0E0F101112131415161714
:1004F00018191A1B1C1D2F3130354C00000000004C
:1005000000000000000000000000000000000000EB
:1005100000000000000000000000000001010101D7
:1005200001010001010101000000000000000000C5
:1005300000000000000100010001010101010101B2
:10054000010101010101010101010101010101019B
:100550000101010101010000000101000000000093
:10056000000000000000000000000000000000008B
:10057000000000000000010101010000046801F01A
:1005800000B40078005A007F3F1F643214643214B4
:10059000783C1E1E140A0500000000000101010144
:1005A000010101010102020202020202020203032E
:1005B00003030303030304040404040405050505FD
:1005C00005060606060607070707080808080909BA
:1005D000090A0A0A0A0B0B0B0C0C0C0D0D0D0E0E62
:1005E0000F0F0F10101111111212131314141515EF
:1005F00016161717181819191A1A1B1C1C1D1D1E60
:100600001F1F2020212222232425252627272829B1
:100610002A2B2B2C2D2E2F2F3031323334353636DA
:100620003738393A3B3C3D3E3F40414243444647E0
:1006300048494A4B4C4D4F50515253555657585AB2
:100640005B5C5E5F606263646667696A6C6D6E7056
:100650007173747678797B7C7E8081838486888AC6
:100660008B8D8F91929496989A9B9D9FA1A3A5A7FD
:10067000A9ABADAFB1B3B5B7B9BBBDBFC1C4C6C8F7
:10068000CACCCFD1D3D6D8DADCDFE1E4E6E8EBEDB3
:10069000F0F2F5F7FAFCFF04033000000016034502
:1006A00000720067006F0044006F00780020004572
:1006B000005A00000016034500720067006F0044F6
:1006C000006F007800200045005A00000004030974
:1006D0000409026D00040100A0FA090400000103EE
:1006E00001010009211101000122400007058103D9
:1006F00008000A0904010001030102000921110197
:100700000001224D000705820308000A09040200C7
:100710000103000000092111010001223600070534
:10072000830308000A0904030001030000000921F3
:100730001101000122390007058403200001120184
:10074000100100000008EDFE071301000102030183
:1007500005010906A101050719E029E71500250192
:10076000950875018102050819012905950575018E
:1007700091029501750391010507190029F71500EC
:10078000250195F875018102C005010980A1018547
:10079000021601002603001A81002A8300751095B5
:1007A000018100C0050C0901A10185031601002685
:1007B0009C021A01002A9C02751095018100C00557
:1007C000010902A1010901A1000509190129051565
:1007D00000250195057501810295017503810105CB
:1007E00001093009311581257F95027508810609B7
:1007F000381581257F950175088106050C0A380298
:100800001581257F950175088106C0C0050109067F
:10081000A101050719E029E71500250195087501D3
:1008200081029501750881010508190129059505C1
:10083000750191029501750391010507190029FFC2
:10084000150026FF00950675088100C011241FBE03
:10085000CFEFDAE0DEBFCDBF11E0A0E0B1E0EEE126
:10086000F5E602C005900D92AC3DB107D9F723E043
:10087000ACEDB1E001C01D92AC3BB207E1F70E94C4
:1008800067290C948D320C9400001092B9008AE014
:100890008093B800089594EA9093BC009091BC00B6
:1008A00097FFFCCF9091B900987F983021F090315C
:1008B00011F081E008958093BB0084E88093BC0030
:1008C0008091BC0087FFFCCF8091B900887F883180
:1008D00011F0803471F780E0089584E98093BC00C2
:1008E0008091BC0084FDFCCF08958093BB0084E818
:1008F0008093BC008091BC0087FFFCCF9091B90031
:10090000987F81E0983209F480E0089584E880932C
:10091000BC008091BC0087FFFCCF8091BB00089594
:1009200080B38C7080BB81B3836F81BB089584B129
:10093000807F84B985B1807F85B98AB1837F8AB988
:100940008BB1837F8BB93E9846980895CF93E82F5B
:10095000873008F58091000181113AC0CE2F80E4E4
:100960000E944B0480930001811112C082E10E9419
:1009700075048093000181110BC081E090E001C0FB
:10098000880FCA95EAF780950E947504809300014C
:10099000CF910C946D0490E0FC013797E730F1059E
:1009A000B8F4EA5AFF4F0C943F32209A289810C0AE
:1009B000219A29980DC0229A2A980AC0239A2B9826
:1009C00007C0529A01C0539A5B9802C03E9A46985B
:1009D000CF910895CF93873018F580910001811150
:1009E00028C080E40E944B0480930001882311F00A
:1009F000C0E012C083E10E94750480930001811160
:100A0000F7CF81E40E944B04809300018111F0CF65
:100A10000E948604C82FC0950E946D048C2F0AC0C6
:100A20009FB18FB1807F869586959370892B809535
:100A300001C080E0CF91089508950C941C050E9498
:100A40005A06809300010E9497040E949004E1E3FB
:100A5000F2E08DED91E01192DC0126E01D92215033
:100A6000E9F7069622E081339207A9F70C94490A28
:100A70000E945A06809300010E9497040E949004ED
:100A8000E1E3F2E0119282E0EF33F807D9F708953D
:100A900026E0829FC0011124FC01E352FE4F20E0BA
:100AA00030E080E041E050E09081992319F09150CE
:100AB000908307C0BA01022E01C0660F0A94EAF7BC
:100AC000862B2F5F3F4F31962630310569F7089509
:100AD00096E0699FB001112420E030E090E04FE003
:100AE000FC01022E02C0F595E7950A94E2F7E0FFBB
:100AF00006C0FB01E20FF31FE352FE4F40832F5F5E
:100B00003F4F2630310561F70895EF92FF920F9322
:100B10001F93CF93DF9380910001882379F0809118
:100B2000DC018F5F8093DC01811108C00E945A06AE
:100B300080930001811102C00E94EC0581E3E82E40
:100B400082E0F82EC0E08C2F0E94A60407E00C0F74
:100B5000802F0E94A6048C2F0E944805182F8C2FEE
:100B60000E94EA04F7019081D12FD095D9238123E7
:100B7000D82B6C2F892F8D270E946805F701D19300
:100B80007F01802F0E944805182F802F0E94EA04C1
:100B9000F7019681D12FD095D9238123D82B602FAF
:100BA000892F8D270E946805F701D6830E9497043C
:100BB000CF5FC73041F60E944B0A81E0DF91CF91B1
:100BC0001F910F91FF90EF900895E82FF0E0EF5CF8
:100BD000FD4F80810895089556985E9825982D9828
:100BE00026982E9827982F988FEF90E09093890061
:100BF0008093880090938B0080938A0090938D005F
:100C000080938C00259A2D9A2FEF80E792E0215057
:100C100080409040E1F700C00000269A2E9A2FEF06
:100C200080E792E0215080409040E1F700C0000052
:100C3000279A2F9A2FEF80E792E021508040904032
:100C4000E1F700C0000025982D982FEF80E792E093
:100C5000215080409040E1F700C0000026982E9877
:100C60002FEF80E792E0215080409040E1F700C0F4
:100C7000000027982F9856985E9825982D982698CA
:100C80002E9827982F98089589EA8093800089E00C
:100C90008093810024982C983F988AB18F7C8AB9E0
:100CA0006E98479A8BB180638BB9769A0E94EC0557
:100CB0000C94F10680E28093000180913F02811143
:100CC0000EC00E94450481E080933F022FEF83ED28
:100CD00090E3215080409040E1F700C0000080E4A4
:100CE0000E944B048093000181112EC00E94750464
:100CF00080930001811128C00E9475048093000137
:100D0000811122C08FE30E9475048093000181113C
:100D10001BC00E946D0480E40E944B04809300017C
:100D2000811112C08CE00E94750480930001811132
:100D30000BC00E94750480930001811105C08FE3F0
:100D40000E947504809300010E946D04809100014F
:100D50000895FC01DB0112968C91882399F1EF5DD7
:100D6000FC45ED30F10578F5E35AFF4F0C943F3226
:100D700088E792E002C082E792E00E94460A80E0A3
:100D800008958CE692E0F9CF85E692E0F6CF8FE504
:100D900092E0F3CF88E592E0F0CF80E492E0EDCFEF
:100DA00080E292E0EACF8CE192E0E7CF87E192E047
:100DB000E4CF8DE092E0E1CF86E092E0DECF8BEFF2
:100DC00091E0DBCF81E00895611108C0FC018281D0
:100DD000882321F086EC91E00E94460A80E090E0B2
:100DE00008950895CF92DF92EF92FF926B017C01FC
:100DF0000E942F2156985E9825982D9826982E9817
:100E000027982F9890E0FC013197E730F105A8F47E
:100E1000E659FF4F0C943F32259A2D9A0EC0259A21
:100E20002D9A269A2E9A09C0259A2D9A04C0259AA1
:100E30002D9A269A2E9A279A2F9AC701B601FF90CB
:100E4000EF90DF90CF90089581E008950C94A9066B
:100E50000E94C31A2FEF84E39CE021508040904011
:100E6000E1F700C000000C941823FF920F931F932A
:100E7000CF93DF938C01FC01C081D18180919502D9
:100E8000811113C08281882349F0CE010E94222063
:100E9000F82E682FCE010E94C91F04C0CE010E9407
:100EA000F51FF82EBE018F2D04C0CE010E94222016
:100EB000BE010E94610AEC01B8010E942607882346
:100EC00009F485C2B801CE010E94CE0C882309F432
:100ED0007EC2B801CE010E941D0D882309F477C29D
:100EE000C93CFCE5DF0741F4F8018281882309F45D
:100EF0006EC20E94D20E6BC2CA3C8CE5D80708F0C5
:100F000013C1C13C9CE5D90761F4F80182818823B3
:100F100009F45DC20E94F3208272F1F00E94E71092
:100F200056C2C23CECE5DE07D0F0F8018281C53C38
:100F3000FCE5DF0709F4CDC008F0DDC0C33CECE5FB
:100F4000DE0709F4CCC008F0D0C0882309F43FC202
:100F50000E94F320827211F30E94DD1038C2C53165
:100F6000FCE5DF0708F07EC0C2308CE5D80708F446
:100F700052C0F8018281882309F459C00E94A0213F
:100F8000811102C00E947F210E94B32190E09093C2
:100F9000AE038093AD03FE01E350FC45E231F10561
:100FA00030F4EF58FF4F8091AD030C943F328091A5
:100FB000AD03816027C0826025C0846023C080614A
:100FC00021C080621FC080641DC080681BC0846017
:100FD000886018C08E7F16C08D7F14C08B7F12C0B2
:100FE0008F7E10C08F7D0EC08F7B0CC08F770AC0A4
:100FF0008B7F877F07C087FB222720F991E092270C
:1010000090FB87F98093AD038091AD030E94B721D7
:101010000E94C31ADCC1C1159CE5D90781F0C1301B
:10102000DC45A9F081E08093450280934602C80127
:10103000DF91CF911F910F91FF900C942407F8013D
:101040008281882309F4C3C10E942807C0C1F80126
:101050008281882309F4BBC180913403816080932D
:101060003403B5C1C531FCE5DF0739F50E94F32033
:10107000982FF80182812091030130910401882387
:1010800079F09A7A81E009F480E08093400291112E
:1010900002C069E201C065E3C9010E9419220AC0C9
:1010A00080914002811102C069E201C065E3C9017B
:1010B0000E9424220E94C0208AC1C03CDC4509F065
:1010C000B1CFF8018281882309F481C10E944811BF
:1010D0007EC1882309F47BC10E94331078C1882324
:1010E00009F475C10E94FC0F72C1882309F46FC115
:1010F0000E9414106CC1C73C9CE5D90731F48823C9
:1011000009F465C10E94571062C1C83CDC4530F447
:10111000882309F45CC10E94451059C1882309F451
:1011200056C10E94721053C1C13DFCE5DF0749F46E
:10113000F8018281882309F44AC188E10E94DA100B
:1011400046C1C23D8CE5D80708F087C0F80182810E
:10115000CD3CFCE5DF07A1F4882309F438C10E94E7
:10116000C40E663071058105910540F00E94C40EE1
:10117000683071058105910508F4EECE86E0DECF7A
:10118000CE3C9CE5D90730F5CB3CECE5DE0729F4F5
:10119000882309F41CC181E0D1CFCC3CDC4530F47C
:1011A000882309F414C10E94E70E11C1882309F4B1
:1011B0000EC10E94C40E623071058105910540F098
:1011C0000E94C40E653071058105910508F4C4CEF6
:1011D00082E0B4CFCF3C9CE5D907A1F4882309F481
:1011E000F6C00E94C40E6F3071058105910540F074
:1011F0000E94C40E643171058105910508F4ACCEDE
:101200008FE09CCFC03DDC45A0F4882309F4DFC00B
:101210000E94C40E693071058105910540F00E945D
:10122000C40E6E3071058105910508F495CE89E0F4
:1012300085CF882309F4CBC00E94C40E65317105A7
:101240008105910540F00E94C40E6731710581054A
:10125000910508F481CE85E171CFC53DFCE5DF073E
:1012600081F5F8018281882361F0109246020E9484
:10127000BC22909344028093430280E20E94BF17F5
:10128000A6C00E94F32081FF05C081E08093450243
:10129000809346028091460281110FC080914302E3
:1012A000909144020E94C822883C910530F487E264
:1012B0000E945E1687E20E94601780E20E94C617B5
:1012C00086C0C63D8CE5D80708F04CC0F801828185
:1012D000C33DFCE5DF0729F4882309F478C083E2E5
:1012E0002DCFC43DDC45A0F4882309F470C00E94D2
:1012F000C40E693171058105910540F00E94C40E4C
:10130000623271058105910508F426CE89E116CF78
:10131000882351F0109245020E94BC229093420211
:101320008093410282E0AACF0E94F32085FF05C08E
:1013300081E08093450280934602809145028111AD
:101340000FC080914102909142020E94C822883CC5
:10135000910530F486E20E945E1686E20E946017D4
:1013600082E0ACCFC93DECE5DE0731F4F8018281C3
:10137000882369F180E009C0CA3DFCE5DF0741F43C
:10138000F8018281882319F182E00E94032A1FC09C
:10139000C63DDC4509F046CEF8018281811165CF5A
:1013A00080914602811189CF80914302909144023D
:1013B0000E94C822883C910508F07FCF80E20E94FD
:1013C000C61788E20E945E1688E20E94601780E0DD
:1013D000DF91CF911F910F91FF900895CF9390E0EF
:1013E000FC01E558FB4FC491FC01E550FB4F849193
:1013F000882359F081EE0E945E168C2F0E945E16A3
:101400008C2F0E94601781EE04C08C2F0E945E1604
:101410008C2FCF910C9460170F931F93CF93DF9372
:10142000EC01062FFE018491882359F19E012F5F64
:101430003F4F813041F4E901F9011491812F0E945D
:101440005E16812F0DC0823031F4E901F9018491DB
:101450000E945E160AC0833031F4E901F9018491DB
:101460000E94601702C00E94EE092196802F8823F7
:10147000C9F2EFE9FFE03197F1F700C000008150B9
:10148000F6CFDF91CF911F910F91089560E00C94FA
:101490000C0A0C9444060C941D05282F2F7041F063
:1014A000822F90E02A3010F44D9608950697089503
:1014B00087E290E0089508950C945B0A0C945C0A0E
:1014C000089524E5829FC0011124FC0126E0729F4B
:1014D000E00DF11D1124E60FF11DEE0FFF1FED577A
:1014E000FD4F859194910895880F991FFC01E15853
:1014F000FD4F859194910895CF93DF930E94610AE7
:101500000E942E0CEC018115904508F041C0C115D8
:1015100080E4D80708F025C1C83ED10510F5C03ECB
:10152000D10508F097C1C83AD10578F4C53AD1057C
:1015300008F0A7C0C130D10509F48CC108F443C13B
:10154000C430D10508F086C13EC1CD3BD10508F4B9
:10155000A3C0C03CD10508F436C1CE01805C91091E
:10156000F2C0C11590E2D90758F4C11521E0D207A5
:1015700008F070C1C03FD10508F425C1D0656AC12B
:10158000C11580E3D80708F0E2C0CE019F70DBC030
:10159000C11595E5D90708F044C0C11524E5D20767
:1015A00008F0F6C0C11582E5D80710F5C11591E520
:1015B000D90708F0D9C0CE0174E0969587957A9541
:1015C000E1F7282F23703C2F337081E090E002C0B8
:1015D000880F991F3A95E2F79C68922BCF70C695B9
:1015E000C69520E2C29FE0011124C82BD92B32C13D
:1015F0009E01237033278C2F86958695C115D34580
:1016000008F0B7C0C1E0D0E002C0CC0FDD1F2A95C2
:10161000E2F720E2829FC0011124C82BD92BDC689D
:1016200019C1C1152AE5D207A0F4C11589E5D8076B
:1016300008F0B9C0C11596E5D90708F4AEC0C115C8
:1016400028E5D20708F4BFC0DC2FCC27C06FD06AD2
:1016500001C1C1158BE5D80708F4B5C0C1159CE5DB
:10166000D90708F4ADC0CE0190568115904208F01C
:10167000AAC08D2F8F710E94AA0CDD27D0628F71B6
:101680009DC0C53AD10509F4A1C0C63AD10509F0FB
:10169000A0C0C2E8D0E4DEC0C83AD10509F49CC0BD
:1016A000C93AD10509F49BC0CA3AD10509F49AC0D8
:1016B000CB3AD10509F499C0CC3AD10509F498C0C8
:1016C000CB3BD10509F497C0CC3BD10509F496C0BA
:1016D000CD3AD10509F495C0C03BD10509F494C0B9
:1016E000CE3AD10509F493C0CF3AD10509F492C09E
:1016F000C13BD10509F491C0C23BD10509F490C0AA
:10170000C33BD10509F48FC0C43BD10509F48EC099
:10171000C53BD10509F48DC0C63BD10509F48CC089
:10172000C73BD10509F48BC0C83BD10509F48AC079
:10173000C93BD10509F489C0CA3BD10509F488C069
:10174000C0E0D4E487C00E94740AEC0183C0CE01DB
:101750009927D3FF03C0EC01D86C7CC0EC01D06C9E
:1017600079C0DF70D06A76C0DC2FCC27C16FD06A19
:1017700071C0C1E0D0E002C0CC0FDD1F2A95E2F7B6
:1017800020E2829FC0011124C82BD92BDA6862C0E5
:10179000DC2FCC27C46FD06A5DC0CF71DD27DC2F72
:1017A000CC27D06257C0CE0124E0969587952A9524
:1017B000E1F78F70CF70C06ED0E0D06AD82B4AC0EE
:1017C000DD27D06647C0C0E0D0E044C0C1E8D0E427
:1017D00041C0C3E8D0E43EC0C2EED4E43BC0C9EE91
:1017E000D4E438C0CAEED4E435C0C5EBD4E432C08A
:1017F000C6EBD4E42FC0C3EBD4E42CC0C4EBD4E4D8
:1018000029C0C7EBD4E426C0CCECD4E423C0CDEC93
:10181000D4E420C0C3E8D5E41DC0CAE8D5E41AC0AA
:10182000C2E9D5E417C0C4E9D5E414C0C1E2D6E4E6
:1018300011C0C3E2D6E40EC0C4E2D6E40BC0C5E2D8
:10184000D6E408C0C6E2D6E405C0C7E2D6E402C0CA
:10185000CAE2D6E4CE01DF91CF9108958238910596
:1018600049F1B0F48133910509F459C048F4893243
:10187000910509F44FC08A32910509F455C00895C5
:101880008533910509F441C08933910599F0089594
:10189000833E910531F138F4803E910591F0823E0E
:1018A0009105A9F00895863E910501F1873E9105C5
:1018B00039F108952091AD0320FD3BC021FD39C0D1
:1018C00008958091AD0380FF34C089E341C08091C9
:1018D000AD0382FF30C08091AD0384FD2EC083EE46
:1018E00037C08091AD0382FD26C0F5CF8091AD0356
:1018F00083FF25C08091AD0384FD1FC087EE28C003
:101900008091AD0383FD1BC0F5CF8091AD0385FDB4
:1019100018C019C08091AD0385FD15C012C080911B
:10192000AD0386FD12C013C08091AD0386FD0FC0CC
:101930000CC080EE0DC082EE0BC080E009C086EEC8
:1019400007C089E205C085E303C08AE201C081E3E4
:1019500090E008959091AD0392FF0DC0282F28715B
:10196000283019F4877F846006C0282F2471243022
:1019700011F48B7F886093FF0DC0282F28712831C8
:1019800019F4877E846106C0282F2471243111F454
:101990008B7E886194FD877E089508950F931F9331
:1019A000CF93FB012281211102C0C1E041C08C0113
:1019B000C0915402C11125C086319C45B1F70E94E7
:1019C000CD0C81E0809354020E94BC22909353027C
:1019D00080935202109247021092490210924802DC
:1019E00010924B0210924A0210924D0210924C0239
:1019F00010924F0210924E02109251021092500219
:101A000017C080915202909153020E94C8228C32DA
:101A1000914058F690914702E92FF0E0EE0FFF1F3A
:101A2000E85BFD4F118300839F5F90934702C0E006
:101A30008C2FCF911F910F910895CF93DF93813019
:101A400020E89207D0F0FB0122812223B1F0EC01C3
:101A500080915502811109C08CE090E00E944532CE
:101A60000E94410D81E0809355020E94480DCE01F5
:101A70009F770E94100E0E94C40D81E0DF91CF91EC
:101A8000089580935602682F8CE090E00C945932B0
:101A9000E0910301F091040180818093650381FF4F
:101AA00003C081EE0E9460178091650385FF03C02B
:101AB00085EE0E9460178091650380FF03C080EE71
:101AC0000E9460178091650384FF03C084EE0E942A
:101AD00060178091650382FF03C082EE0E94601749
:101AE0008091650386FF03C086EE0E946017809197
:101AF000650383FF03C083EE0E9460178091650336
:101B000087FF03C087EE0E946017809156028230E3
:101B100001F1A8F48823C9F0813079F580EE0E94A4
:101B20005E1681EE0E945E1688E10E945E1688E1D4
:101B30000E94601781EE0E94601780EE1CC0843006
:101B400081F08530D1F486EE01C082EE0E945E16EF
:101B500014C082EE0E945E1687E50E945E1687E53D
:101B60000AC086EE0E945E1686EE0E94601788E12B
:101B70000E945E1688E10E9460178FE39CE901973E
:101B8000F1F700C00000089580915602813049F0BD
:101B900030F0823021F0853051F486EE06C082EEBE
:101BA00004C08CE20E945E168CE20E946017809155
:101BB000650381FF03C081EE0E945E16809165037C
:101BC00085FF03C085EE0E945E168091650380FF4D
:101BD00003C080EE0E945E168091650384FF03C0FF
:101BE00084EE0E945E168091650382FF03C082EE40
:101BF0000E945E168091650386FF03C086EE0E94F8
:101C00005E168091650383FF03C083EE0E945E161B
:101C10008091650387FF03C087EE0C945E160895DC
:101C2000EF92FF921F93CF93DF937C01CCE0D0E043
:101C3000C7010C2E02C0969587950A94E2F7182FDB
:101C40001F70812F0E944D0A0E945E16812F0E94F4
:101C50004D0A0E9460172497CC3F8FEFD80741F7B9
:101C6000DF91CF911F91FF90EF900895EF92FF9237
:101C70000F931F93CF93DF93E901662309F44BC0C1
:101C8000242F30E0EFEFF0E0E61BF109B901E69F09
:101C90009001E79F300DF69F300D1124232F8B010B
:101CA000031B11095CE3E52EF12CB7010E941732EA
:101CB000FB01BC01069FC001079F900D169F900D70
:101CC0001124B7010E941732E230F105B1F040F45F
:101CD000309779F0319711F5832F242F461B21C0BF
:101CE000E430F105A1F068F03597C1F4842F861B2C
:101CF00018C0832F262F230F14C0862F830FE42FA5
:101D000003C0E42FE61B842F432F2E2F0AC0842FFD
:101D1000462F430F06C0842F242F03C080E020E00D
:101D200040E0E42FF0E0E956FA4F4491E22FF0E072
:101D3000E956FA4F9491E82FF0E0E956FA4FE49112
:101D400049839883EA83DF91CF911F910F91FF9090
:101D5000EF90089588E090E00C944D32AB01BC0107
:101D600088E090E00C946B32E6E6F3E083E0808359
:101D7000109267038FEF8283838314826081718165
:101D8000828193810C94AE0E6091660360FF06C061
:101D900066956F7370E080E090E0089560E070E019
:101DA000CB01089580916A0390E0019684309105FB
:101DB00014F083E090E080936A0360916603709171
:101DC000670380916803909169030C94AE0E809133
:101DD0006A0390E0019797FF02C080E090E08430B2
:101DE000910514F083E090E080936A0360916603AC
:101DF0007091670380916803909169030C94AE0E13
:101E00008091660380FF06C06FE070E08BE693E090
:101E10000C948214EBE6F3E0118210821282349665
:101E200083E0E73AF807C1F7EFCF9091660390FFA0
:101E30000CC0EBE6F3E0818360834283349693E049
:101E4000E73AF907C1F70C94000F0895CF93DF9399
:101E500000D000D0CDB7DEB72091660320FF0AC0C6
:101E60009E012F5F3F4F0E94360E4B8169818A8110
:101E70000E94150F0F900F900F900F90DF91CF9150
:101E800008955F926F927F928F929F92AF92BF92CE
:101E9000CF92DF92EF92FF920F931F93CF93DF9336
:101EA00000D000D0CDB7DEB78C01E62EF42E522E36
:101EB0008091660380FF89C0982F9E77923061F4ED
:101EC0009E012F5F3F4FC8010E94360E4B816981F2
:101ED0008A810E94150F59C0E82FE695EF739EE3A3
:101EE0009E0F9F73943018F4F09069034EC09AE3EC
:101EF0009E0F9F73993068F4881F8827881F9091E0
:101F00006703292F220F022F082B97FB112710F9A7
:101F10003CC087E28E0F8F738A30B8F5F0E0799776
:101F2000E0FD02C021E001C02FEFEE7FE358FA4F41
:101F3000859194916FE070E00E9417322603400172
:101F4000279F900C1124580188E9A81A8EEFB80A2F
:101F50008BE6C82E83E0D82E98E6692E77247394FA
:101F6000C501B3010E94173296014F2D6E2D0E94BC
:101F7000360EA80CB91C84E0C80ED11C87EAC8161E
:101F800083E0D80669F70E94000F8091660300FB8A
:101F900087F980936603902F9695809167038078E8
:101FA000892B10FB87F980936703E0926803F09216
:101FB0006903552051F06091660370916703809129
:101FC0006803909169030E94AE0E0F900F900F90DE
:101FD0000F90DF91CF911F910F91FF90EF90DF90C5
:101FE000CF90BF90AF909F908F907F906F905F90B9
:101FF000089521E00C94410FE6E6F3E02081221FD2
:102000002227221F30916703432F440F842F822BF6
:1020100037FB992790F90C9668E671E00E942B3205
:10202000438162810C94F90F20916603221F2227BD
:10203000221F30916703432F440F842F822B37FBDD
:10204000992790F98C3091051CF4845A9E4F05C055
:102050000C9768E671E00E942B3240916903609111
:1020600068030C94F90FE6E6F3E08081881F882767
:10207000881F90916703292F220F97FB992790F9CA
:1020800043816FEF822B0C94F90FE6E6F3E0808139
:10209000881F8827881F90916703292F220F97FB9D
:1020A000992790F9438160E0822B0C94F90F4091BD
:1020B0006903842F90E0843F910514F4445F01C0CC
:1020C0004FEF80916603881F8827881F90916703D0
:1020D000292F220F97FB992790F960916803822B93
:1020E0000C94F90F40916903842F90E00C9714F041
:1020F0004C5001C040E080916603881F8827881FEC
:1021000090916703292F220F97FB992790F96091EF
:102110006803822B0C94F90F20E00C94410F9091EE
:10212000660390FF46C09178811102C0926007C09B
:10213000843210F0966403C08F73880F982B9093AD
:102140006603662351F06091660370916703809186
:102150006803909169030E94AE0E80916603382F48
:102160003E77323019F41092700212C0982F969573
:102170009F732EE3290F2F73273110F0363421F48B
:1021800091E09093700204C0995D9F739A3058F368
:10219000881F8827881F90916703292F220F97FB9C
:1021A000992790F94091690360916803822B0C9400
:1021B0008C10089561E00C948F10809166038695D1
:1021C0008F738F5F843208F081E00C94DA10809175
:1021D000660386958F73815009F483E20C94DA10BC
:1021E000E6E6F3E080818160808386958F730C94AE
:1021F000DA1060E00C948F1080913403816080933A
:10220000340381E0809371020E94A021811104C0F7
:102210000E947F210E94B40E0E94AA0E6093660362
:102220007093670380936803909369036E7761F4FA
:102230000E94B40E0E94AA0E609366037093670317
:10224000809368039093690381E08093700280918A
:10225000660380FF04C086958F730C94F91008956F
:10226000E6E6F3E080818E7F8083608171818281E8
:1022700093810E94AE0E109270022FEF80E792E0E1
:10228000215080409040E1F700C000000C94000F06
:102290008091660380FD0C9430110C94F010CF9364
:1022A000C82F80916E0290916F020E94C822EC2F7D
:1022B000F0E0ED56FA4FE491F0E08E179F0708F436
:1022C00043C00E94BC2290936F0280936E02609183
:1022D0006D0270E080E090E00E94183020E030E075
:1022E0004FE753E40E943B2F2BED3FE049E450E4DD
:1022F0000E9441310E94AE310E94B52F2BE43AE397
:102300004EE25FE30E94CE2E20EF3BEF48ED52E419
:102310000E9441310E94E72F462F80916603881F5B
:102320008827881F90916703292F220F97FB9927F1
:1023300090F960916803822B0E94260F80916D02B4
:1023400090E0019680936D02CF910895CF93C82FAE
:1023500080916B0290916C020E94C822EC2FF0E0F9
:10236000E057FA4FE491F0E08E179F07E8F00E94E3
:10237000BC2290936C0280936B0240916903609140
:1023800068038091690290916A020E94260F8091F1
:10239000690290916A02019668E671E00E94173224
:1023A00090936A0280936902CF910895CF92DF9251
:1023B000FF920F931F93CF93DF93F82E80916702C4
:1023C000909168020E94C822EF2DE695F0E0E35755
:1023D000FA4FE491F0E08E179F07B8F10E94BC22FB
:1023E00090936802809367020BE613E0C0E0D0E0B0
:1023F00088E6C82EDD24D394809165029091660210
:102400008C0F9D1FB6010E941732980140916903FD
:10241000609168030E94360E68960C5F1F4FC836A5
:1024200081E0D80749F70E94000F809165029091E2
:102430006602F0FE05C00196BE010E94173201C07F
:1024400001979093660280936502DF91CF911F916F
:102450000F91FF90DF90CF900895CF92DF92EF928F
:10246000FF920F931F93CF93DF93C82F80FF02C07B
:102470001FEF01C011E080916302909164020E94FD
:10248000C822C695EC2FF0E0E657FA4FE491F0E051
:102490008E179F0708F45BC00E94BC2290936402D1
:1024A000809363022BE6E22E23E0F22EC0E0D0E020
:1024B000F70111821082128294E0C92ED12C00E023
:1024C00080916202800F87FD815F082E000C990BBE
:1024D000C817D907E9F4809169038C9DA0018D9DEF
:1024E000500D112455954795559547958091660354
:1024F000881F8827881F90916703592F550F97FBD6
:10250000992790F9970160916803852B0E94360EF8
:10251000010FF1E0CF1AD10899F6219684E0E80E78
:10252000F11CCF30D10521F60E94000F809162028C
:10253000113031F4811102C08EE007C0815005C016
:1025400090E00196BE010E942B3280936202DF91DF
:10255000CF911F910F91FF90EF90DF90CF90089552
:102560000F931F93CF93DF93C82F809160029091B8
:1025700061020E94C822EC2FF0E0E957FA4FE49183
:10258000F0E08E179F0708F456C00E94BC2290937B
:10259000610280936002CBE6D3E0FE0111821082DB
:1025A0001282349683E0E73AF807C1F700E010E0C2
:1025B00080915F02082E000C990B08171907ECF0A8
:1025C00080910201082E000C990B80179107ACF046
:1025D00080916603881F8827881F90916703592F71
:1025E000550F97FB992790F99E01409169036091DF
:1025F0006803852B0E94360E03C0198218821A8246
:102600000F5F1F4F24960F30110591F60E94000FA7
:102610008091010190915F02980F90935F02209149
:102620000201280F20930201121614F49E301CF0B0
:10263000819580930101DF91CF911F910F910895B2
:10264000EF92FF920F931F93CF93DF9380915D02E0
:1026500090915E020E94C822883E9340D0F10E9471
:10266000BC2290935E0280935D02C0915B02D09188
:102670005C022196C170DD27D0935C02C0935B029F
:102680008BE6E82E83E0F82E10E008E7812F869590
:10269000FE01E80FF11DCF0181709927970140914C
:1026A000690360916803FC010E9FC0010F9F900DAC
:1026B00011240E94360E1F5FF4E0EF0EF11C1F3054
:1026C00029F7DF91CF911F910F91FF90EF900C941C
:1026D000000FDF91CF911F910F91FF90EF90089520
:1026E000CF93DF9300D000D0CDB7DEB780915902F1
:1026F00090915A020E94C822EBE7F5E025913491AF
:1027000082179307C0F18091580281110CC09E017D
:102710002F5F3F4F4FEF6FEF80E090E00E94360E4B
:102720008A81809358020E94BC2290935A0280931F
:10273000590280915702813051F028F0823061F4C3
:10274000409158020AC08091580240E007C0609151
:10275000580240E080E003C040E080E060E00E947A
:10276000150F8091570290E0019663E070E00E949F
:102770002B32809357020F900F900F900F90DF91A4
:10278000CF910895809170028823B9F190916603EA
:10279000892F86958F732EE3280F2F73243018F41A
:1027A00082500C944F112AE3280F2F73233018F412
:1027B00086500C94A61127E3280F2F73263018F4A7
:1027C00089500C94D61121E3280F2F73263018F46A
:1027D0008F500C942D122BE2280F2F73233018F4F6
:1027E00085510C94B012892F8E77803311F40C949C
:1027F0002013863411F40C9470130895882319F073
:102800005198599A02C0519A59985098589A95E0FF
:102810009A95F1F70000509A589895E09A95F1F73B
:102820000000882311F0519A599885E08A95F1F7B4
:10283000000008958BB18C7F8BB95098589A5198AD
:10284000599A85E08A95F1F7000008958AB18C7F46
:102850008AB985E08A95F1F70000519A599885E088
:102860008A95F1F70000509A589885E08A95F1F71B
:10287000000008955098589A85E08A95F1F7000075
:102880005198599A85E08A95F1F700000895CF9301
:10289000DF93D82FC8E08D2F80780E94FE13DD0FC4
:1028A000C150C9F780E00E94FE1385E08A95F1F7D8
:1028B000000085E08A95F1F7000080E0DF91CF917C
:1028C00008952BB1342F309523233BB1432B3FB7D1
:1028D000F894FC01680F791FE617F70789F08191DA
:1028E00098E04BB9000000C087FF2BB9880F0000AB
:1028F00000C000C000C02BB900C09A9591F7ECCF82
:102900003FBF0895AF92BF92CF92DF92EF92FF92B6
:102910000F931F93CF93DF938C01EB01CFB6D09031
:10292000BC00F8948091BC008B7F8093BC000E9417
:102930001A140E94261484E80E944714CC0FDD1F4D
:10294000CC0FDD1F78015801AC0EBD1EEA14FB044C
:1029500031F0F70181917F010E944714F7CF0E9467
:102960003A14CFBED092BC00579A40E8BE01C801CD
:10297000DF91CF911F910F91FF90EF90DF90CF905B
:10298000BF90AF900C94611490937702809376027D
:102990000895E0917602F0917702309721F001904E
:1029A000F081E02D099480E00895E0917602F091A5
:1029B0007702309721F00280F381E02D0994089589
:1029C000E0917602F0917702309721F00480F58152
:1029D000E02D099408952091740230917502281712
:1029E000390771F09093750280937402E09176023A
:1029F000F0917702309721F00680F781E02D09945D
:102A0000089520917202309173022817390771F0EE
:102A10009093730280937202E0917602F0917702B4
:102A2000309721F00084F185E02D099408950895F0
:102A30000C94171581E008950E94B3220E941F058F
:102A40000E944A230C94FC10BF92CF92DF92EF9227
:102A5000FF920F931F93CF93DF93CDB7DEB72A97E3
:102A60000FB6F894DEBF0FBECDBF0E9485050E9451
:102A70001A15811111C08FEF89838A831B820E94EE
:102A8000BC228160782F9D838C8349815A816B8120
:102A90008D810E94091654C089E7C82E82E0D82E85
:102AA00000E010E0B02E802F0E94E505E82EF60130
:102AB00021916F01F82EF22631F40F5F1F4F0E3077
:102AC000110581F7D8CF8091340381FD0E94EB0579
:102AD00080E090E02F2D30E0482FB901082E02C091
:102AE000759567950A94E2F760FF25C08E83BF82D3
:102AF00081E090E06C0102C0CC0CDD1C4A95E2F74D
:102B00002E2D30E02C213D21232B09F480E08887F5
:102B10000E94BC228160782F9A8789874E815F81CD
:102B200068858A850E940916F801E758FD4F808163
:102B30008C25808305C001968630910569F6BDCF4E
:102B40000E94DD240E94C914909178028917A9F08F
:102B50000E94C914809378022A960FB6F894DEBFBB
:102B60000FBECDBFDF91CF911F910F91FF90EF90DE
:102B7000DF90CF90BF900C945E0A2A960FB6F8941F
:102B8000DEBF0FBECDBFDF91CF911F910F91FF90A0
:102B9000EF90DF90CF90BF900895DC0111962C91BB
:102BA00011978C91682F70E041E050E001C0440F14
:102BB0008A95EAF712968C91129730E0882329F0D3
:102BC000809197028823E9F006C0F901E957FD4F8B
:102BD00090819423B1F086E0829FF001839FF00DF5
:102BE0001124E60FF71FEE0FFF1FEB5EFE4F8081F3
:102BF00091818D939C93F901E957FD4F8081482B7A
:102C000006C0F901E957FD4F409580814823408374
:102C10000895CF93DF93CDB7DEB72B970FB6F89417
:102C2000DEBF0FBECDBF942F4F83252F58876987F6
:102C30007A878B874A855B85452B31F02F3F31F4AE
:102C400081E09F3F19F403C081E001C080E080FD76
:102C500004C0CE0107960E94CD15DE01119686E0D4
:102C6000FD0111928A95E9F785E0FE013796019002
:102C70000D928A95E1F749815A816B817C818D8122
:102C80009E810E94901D2B960FB6F894DEBF0FBE5A
:102C9000CDBFDF91CF910895FC01808191810E9489
:102CA000612092959F70963041F48091970291E057
:102CB000892780939702909396020895CF93882353
:102CC00009F4FCC0C82F8238C1F40E94C91481FDE8
:102CD000F5C069E380910301909104010E941922DB
:102CE0000E94C0202FEF81EE94E021508040904060
:102CF000E1F700C0000069E319C0833801F50E94C4
:102D0000C91480FDDBC063E580910301909104014B
:102D10000E9419220E94C0202FEF81EE94E02150E2
:102D200080409040E1F700C0000063E5809103011E
:102D3000909104010E942422CF910C94C0208438E9
:102D4000C1F40E94C91482FDB9C067E480910301F7
:102D5000909104010E9419220E94C0202FEF81EE61
:102D600094E0215080409040E1F700C0000067E40B
:102D7000DDCF8CEF8C0F813A68F48C2F0E940127F5
:102D800081119CC06C2F80910301909104010E94DD
:102D90001922D2CF80E28C0F883048F4C77081E0CE
:102DA00001C0880FCA95EAF70E94F620C5CF8BE5CF
:102DB0008C0F833078F4C53A29F0C63A31F083E8B5
:102DC00090E005C081E890E002C082E890E0CF91F9
:102DD0000C94EB1488E58C0F853108F06FC0C83A6D
:102DE00061F1C93A69F1CA3A71F1CB3A79F1CC3A59
:102DF00081F1CB3B89F1CC3B91F1CD3A99F1C03BCC
:102E0000A1F1CE3AA9F1CF3AB1F1C13BB9F1C23B40
:102E1000C1F1C33BC9F1C43BD1F1C53BD9F1C63BBC
:102E2000E1F1C73BE9F1C83BF1F1C93BF9F1CA3B1C
:102E300009F43FC080E090E03EC082EE90E03BC0ED
:102E400089EE90E038C08AEE90E035C085EB90E0E6
:102E500032C086EB90E02FC083EB90E02CC084EB77
:102E600090E029C087EB90E026C08CEC90E023C076
:102E70008DEC90E020C083E891E01DC08AE891E0ED
:102E80001AC082E991E017C084E991E014C081E2A0
:102E900092E011C083E292E00EC084E292E00BC0A7
:102EA00085E292E008C086E292E005C087E292E007
:102EB00002C08AE292E0CF910C940115CF9108955F
:102EC000882309F45BC0682F823879F40E94C91402
:102ED00081FF54C069E380910301909104010E9435
:102EE00019220E94C02069E310C08338B1F40E9407
:102EF000C91480FF43C063E58091030190910401F0
:102F00000E9419220E94C02063E5809103019091E4
:102F100004010E9424220C94C020843879F40E9479
:102F2000C91482FF2BC067E48091030190910401D2
:102F30000E9419220E94C02067E4E7CF8CEF860F21
:102F4000813A18F380E2860F883048F4677081E098
:102F500001C0880F6A95EAF70E94FC20DCCF8BE560
:102F6000860F833020F480E090E00C94EB14685AD4
:102F7000653120F480E090E00C94011508958823D9
:102F800021F00E94F6200C94C0200895882321F09F
:102F90000E94FC200C94C02008958F929F92AF92C3
:102FA000BF92DF92EF92FF920F931F93CF93DF9325
:102FB0007C01D62FC72FFC01058102950F7012816D
:102FC00011110E9413210E94B920882379F0112346
:102FD00069F080E28D0F883048F082E00E94A220E4
:102FE0000E94B92091E0D82ED92601C0D12CBC2E48
:102FF000B2948FE0B8228B2D90E0FC01ED57FF4F8B
:103000000C943F328C2F807FCF70882311F0C295B3
:10301000C07F112399F0CC2309F4BCC180E28D0F4D
:10302000883010F0D11104C08C2F0E94F62003C00C
:103030008C2F0E9406210E94C020ACC18D2F0E94BF
:103040006017CC2309F422C280E28D0F883010F083
:10305000D11104C08C2F0E94FC2003C08C2F0E9431
:103060000C210E94C02012C28C2F807FCF70803232
:1030700011F0C295C07FDD2319F0D130C9F021C015
:10308000112371F0002341F0013031F40E942C2112
:103090008C2B0E942621FAC10E942C218C2B33C13B
:1030A000002319F0013009F4F1C10E94292111C057
:1030B000112321F0023008F0E9C107C00111E6C177
:1030C00008C0112321F0011165C18C2F1CC1011111
:1030D00072C18C2F1EC18C2F86958695837019F036
:1030E000813061F0D3C1112321F08D2F9C2F93707B
:1030F00002C080E090E00E94EB14D5C1112321F0C2
:103100008D2F9C2F937002C080E090E00E940115EB
:10311000CAC11123F9F0D53F51F0D63F71F0D43F29
:10312000A9F48091A7039091A80381600BC08091BE
:10313000A7039091A803826005C08091A703909196
:10314000A80384609093A8038093A7038D2F0E9407
:10315000E5231EC0D53F51F0D63F71F0D43FA9F40E
:103160008091A7039091A8038E7F0BC08091A70345
:103170009091A8038D7F05C08091A7039091A8032B
:103180008B7F9093A8038093A7038D2F0E944D24DB
:103190000E94D22488C18C2F837009F04CC0111179
:1031A0007EC12D2F229526952770220F220F6D2F7D
:1031B0006F70862F90E0A0E0B0E04C015D01022E20
:1031C00004C0880C991CAA1CBB1C0A94D2F7D4FF1B
:1031D00012C08FE090E0A0E0B0E004C0880F991F1B
:1031E000AA1FBB1F2A95D2F7BC01CD01609570952F
:1031F0008095909503C060E070E0CB01C695C695C0
:10320000C370C23051F080F4682979298A299B293A
:10321000C13071F00E94DF1E42C1682979298A29D4
:103220009B290E94F11E3BC10E94DF1EC501B40113
:103230000E94CD1E34C1112319F08C2F817001C062
:103240008695882309F42BC12D2F2295269527706A
:10325000220F220F6D2F6F70862F90E0A0E0B0E05C
:103260004C015D01022E04C0880C991CAA1CBB1CD9
:103270000A94D2F7D4FF12C08FE090E0A0E0B0E053
:1032800004C0880F991FAA1FBB1F2A95D2F7BC0143
:10329000CD01609570958095909503C060E070E0D9
:1032A000CB01C695C695C370C23051F080F4682931
:1032B00079298A299B29C13071F00E94A41FEFC08F
:1032C000682979298A299B290E94B61FE8C00E9493
:1032D000A41FC501B4010E94921FE1C08D2F90E090
:1032E000FC01E05EF109E531F10508F04FC0ED5653
:1032F000FF4F0C943F32DF708C2F8F71112331F010
:103300000E942B1F8D2F0E94BF17C0C00E944C1F10
:103310008D2F0E94C617BAC0112339F00111B6C013
:103320008C2F8F710E94711FB1C0023008F0AEC0A7
:10333000F7CF112339F08C2F8F710E942B1FA6C05D
:103340001123C9F38C2F8F710E944C1F9FC0112332
:1033500029F08C2F8F710E94161F98C00E94111F98
:1033600095C0112349F0CF718C2F0E942B1F63E071
:103370008C2F0E9499208AC081E00E94A2200230F6
:1033800008F484C082E00E94A22080C0112331F0A2
:10339000002389F28D2F0E945E1678C0002391F2DF
:1033A000D93349F4FFEF27EE83E0F150204080400D
:1033B000E1F700C000008D2F0E94601767C04C2FFE
:1033C0004F706D2FC7010E94E4060E943E1E6BC025
:1033D000D23FB1F028F4D03F49F0D13FF9F028C0F6
:1033E000D43FB9F058F0D53F71F022C0112309F451
:1033F00047C09091970281E0892708C081E0182793
:10340000109397023DC011113BC081E08093970259
:1034100037C0111135C01092970232C0112329F024
:1034200080919602882329F329C0002311F328C034
:10343000809196020023C1F0882341F09091970279
:1034400081E0892780939702109296028D2F112395
:1034500019F00E945E1614C00E94601786E0F70102
:1034600011928A95E9F70CC0882351F0111108C018
:103470009091970281E0892780939702109296029B
:103480004C2F4F706D2FC7010E94600AF8E0BF16E5
:1034900031F0BF1640F086EF8B0D823020F40E9491
:1034A000C9140E945E0ADD20E1F00E94952080FD93
:1034B00018C0F70112820E948F200E942B1FC701A3
:1034C0000E947D1A0E948F20DF91CF911F910F9152
:1034D000FF90EF90DF90BF90AF909F908F900C94F3
:1034E0004C1FDF91CF911F910F91FF90EF90DF90D4
:1034F000BF90AF909F908F9008950F931F93CF939D
:10350000DF93EC01988189812B813C81232B31F061
:103510008F3F31F481E09F3F19F403C081E001C087
:1035200080E080FD13C0CE010E943507882371F032
:10353000688179818A810E946C208C010E94C81F59
:103540000E94BB1EB801CE010E94CD17DF91CF9122
:103550001F910F9108950E9413210E9423218091B1
:103560000301909104010E942F220E94C0200E941A
:103570006B250E94D22480E090E00E94EB1480E052
:1035800090E00C9401150E9403210C94AB1A0E9448
:103590006120E92FE295EF704E2F50E0FA0132974B
:1035A000EE30F105B0F4E855FF4F0C943F32803F08
:1035B00091F018F4803E68F40EC0843F51F40BC0C3
:1035C000803E48F0813F29F406C093FB882780F9AC
:1035D000089580E0089581E00895CF93DF9300D0AF
:1035E00000D01F92CDB7DEB70F900F900F900F90C5
:1035F0000F90DF91CF910895CF93DF9300D000D04B
:1036000000D0CDB7DEB726960FB6F894DEBF0FBE5A
:10361000CDBFDF91CF9108951F93CF93DF93C091DA
:10362000980216E080919902C81799F0D0E01C9F8B
:10363000F0011D9FF00D1124E656FD4F4081518190
:1036400062817381848195810E94FC1A2196C770E2
:10365000E9CFDF91CF911F9108954091CA02509117
:10366000CB026091CC027091CD028091CE029091FC
:10367000CF020C94FC1ACF938091CF0282958F7069
:1036800009F05FC08091CC02882309F45AC0809170
:103690009802B09199027091CA02A091CB02409118
:1036A000CD025091CE0291E07F3F09F090E0692F6A
:1036B000C6E08B1709F445C04115510521F0AF3F15
:1036C00021F020E003C021E001C0262F90E020FD82
:1036D00035C0C89FF001C99FF00D1124E656FD4F7B
:1036E00021812A132BC02081271328C02281211178
:1036F00025C0238134812417350710F42150310966
:10370000241B350B283C3105C8F42091CF022F70C3
:1037100020612093CF0226E0289FF001299FF00D21
:103720001124E156FD4F80818F70806180838AEC87
:1037300092E00E947D1ACF910C940C1B0196877029
:10374000B8CFCF910895AF92BF92CF92DF92EF9210
:10375000FF920F931F93CF93DF93CDB7DEB761979F
:103760000FB6F894DEBF0FBECDBF8C0185E0F80127
:10377000DE011D9601900D928A95E1F7D8014C91DA
:1037800011965C9111971296EC903091CA0260915B
:10379000CB028091CD029091CE02009731F06F3F25
:1037A00031F421E03F3F19F403C021E001C020E0E3
:1037B000B22FB170BB2E20FD60C1F801C380D48050
:1037C000A090CC02AA2009F4EEC02091CF02C81626
:1037D000D90628F0D601A81BB90BCD0104C08095ED
:1037E00090958C0D9D1DFF24F394883C910580F0ED
:1037F000F12C207F09F09CC07C2DD98AC88A6E2DBF
:1038000089890E94ED1A8AEC92E00E947D1A2DC1EE
:10381000822F807F09F054C0561314C0431312C086
:10382000FE2CE1100FC02F7020612093CF020E9468
:103830002D1B8AEC92E00E947D1A8091CF02F80144
:1038400085835CC1CD2831F05F3F31F481E04F3F8B
:1038500019F403C081E001C080E080FD03C081E075
:103860008E2502C080E090E0F82FF170FF2E80FFDF
:103870001CC0809198022091990236E0821709F4C9
:103880001AC190E0389FF001399FF00D1124E656DF
:10389000FD4F6181561306C06081461303C06281EB
:1038A000E61203C001968770E9CFFE2CEE2009F4E2
:1038B00025C18091CF0281608093CF02F12C1EC17F
:1038C000561309C0431307C0E11005C08091CF0211
:1038D000F8018583A4C04D875E878D859E850E94F3
:1038E000C71A882379F1EE2069F12091CF02822F47
:1038F00082958F7090E0029774F08091CA02909147
:10390000CB0298878F831986DB86CA862C87CE01E7
:1039100007960E947D1A86E0F801AAECB2E00190B9
:103920000D928A95E1F70E943B1B0E942D1B0DC052
:10393000561771F04D875E878D859E850E94C71A48
:1039400081111AC0C8010E947D1AFF24F394D6C0C9
:103950004313F0CFE110EECF8091CF02F8018583C1
:10396000C8010E947D1A86E0EAECF2E0DF011D92B8
:103970008A95E9F7FA2CC2C0EE2021F32091CF02FC
:10398000822F82958F7090E002972CF28091CA026C
:103990009091CB029A8389831B82DD82CC822E8315
:1039A000CE010196B6CFC816D90628F0F601E81B5D
:1039B000F90BCF0104C0809590958C0D9D1D883C1E
:1039C000910548F0F12C7C2DD98AC88A6E2D898901
:1039D0000E94ED1A4AC0FE2CEE2009F4B3CF561314
:1039E00033C0431331C02091CF0220FD24C0822F69
:1039F00082958F70482F50E041155105E1F0D801B4
:103A000015962C9315974F30510549F08F5F982FDD
:103A10009295907F822F8F70892B15968C93C80179
:103A20000E947D1A86E0F801AAECB2E001900D92A6
:103A30008A95E1F73DC086E0F801AAECB2E001907A
:103A40000D928A95E1F75AC04D875E878D859E85D8
:103A50000E94C71A81115FCF8091CF02816080934D
:103A6000CF02C8010E947D1A49C0EAECF2E086E06C
:103A7000DF011D928A95E9F71BC0EE2009F462CFA1
:103A80004D875E878D859E850E94C71AF82E8823F4
:103A900009F458CF86E0F801AAECB2E001900D924B
:103AA0008A95E1F78AEC92E00E944C160E943B1B3B
:103AB0000E942D1B23C04D875E878D859E850E94A9
:103AC0006120292F22952F70223028F49F7039F021
:103AD000811105C00BC0243028F49F7049F4805E2A
:103AE000883020F0C8010E947D1ABF2CFB2C06C034
:103AF000D80115969C91907F91F7F8CF8F2D619604
:103B00000FB6F894DEBF0FBECDBFDF91CF911F91EE
:103B10000F91FF90EF90DF90CF90BF90AF900895FE
:103B20001F93CF93DF93CDB7DEB72C970FB6F894E2
:103B3000DEBF0FBECDBF4F83588769877A878B87DB
:103B40009C87CE0107960E94A31B8823D1F09F81FA
:103B500088852A853B85232B31F08F3F31F481E026
:103B60009F3F19F403C081E001C080E080FD47C0A1
:103B70004F81588569857A858B859C850E94FC1AC2
:103B80003EC086E0FE013796DE01119601900D924F
:103B90008A95E1F7FF81E8856A857B856115710566
:103BA00031F0EF3F31F481E0FF3F19F403C081E0D1
:103BB00001C080E080FD23C02091990230E0C9015E
:103BC0000196877099274091980250E084179507D5
:103BD000F1F1F983EA837D836C8396E0929FD001B3
:103BE000939FB00D1124A656BD4FFE013196019052
:103BF0000D929A95E1F7809399020E940C1B16E0B2
:103C00008091980290919902891771F1189FC001D3
:103C1000112486569D4F0E94A31B882329F1E09111
:103C200098021E9FF0011124E656FD4F40815181FC
:103C300062817381848195810E94FC1A809198022F
:103C400090E001968770992780939802D9CF0E94BF
:103C5000C31A1092990210929802EAECF2E086E000
:103C6000DF011D928A95E9F72C960FB6F894DEBF16
:103C70000FBECDBFDF91CF911F910895EF92FF92BC
:103C80000F931F93CF93DF938C01892B09F46CC0A2
:103C9000F12CEE24E394E8012196F8018491843715
:103CA00040F4843008F051C0813081F0823019F145
:103CB0005BC0853709F444C0A8F19CE7980F9037A2
:103CC00008F052C08F770E94601741C00E5F1F4FEF
:103CD000FE01849190E2980F983050F48770FE2D89
:103CE00001C0FF0F8A95EAF78F2F0E94162114C09A
:103CF0000E945E162DC00E5F1F4FFE01849190E260
:103D0000980F983060F48770FE2D01C0FF0F8A95E0
:103D1000EAF78F2F0E941C210E94C02019C00E9428
:103D2000601716C00E5F1F4FFE01C491CC2381F0B7
:103D30008FE99FE00197F1F700C00000C150F6CF76
:103D40000E5F1F4FFE01F49003C00E945E168E01AD
:103D50008F2D882309F49FCFEFE9FFE03197F1F72A
:103D600000C000008150F5CFDF91CF911F910F91DE
:103D7000FF90EF900895089508950C94BC1E0E9442
:103D8000BD1E60930B0370930C0380930D039093FF
:103D90000E030C94AB1A0C94BF1E0F931F9300914B
:103DA0000B0310910C0320910D0330910E03602B37
:103DB000712B822B932B1F910F910C94BF1E0F938D
:103DC0001F9300910B0310910C0320910D03309170
:103DD0000E0360237123822393231F910F910C9470
:103DE000BF1E0F931F9300910B0310910C032091A2
:103DF0000D0330910E0360277127822793271F91AF
:103E00000F910C94BF1E0C94F2060E94031F609346
:103E10000703709308038093090390930A030C949B
:103E2000AB1A60E070E0CB010C94051F0F931F9359
:103E300041E050E060E070E08A019B0104C0000FA7
:103E4000111F221F331F8A95D2F7C901B8011F9194
:103E50000F910C94051F0F931F9341E050E060E019
:103E600070E004C0440F551F661F771F8A95D2F774
:103E70008091070390910803A0910903B0910A0370
:103E80008A019B01082B192B2A2B3B2BC901B80156
:103E90001F910F910C94051F0F931F9341E050E069
:103EA00060E070E004C0440F551F661F771F8A95BD
:103EB000D2F7409550956095709580910703909149
:103EC0000803A0910903B0910A038A019B0108230A
:103ED00019232A233B23C901B8011F910F910C9488
:103EE000051F0F931F9341E050E060E070E004C0B5
:103EF000440F551F661F771F8A95D2F780910703DD
:103F000090910803A0910903B0910A038A019B01D3
:103F1000082719272A273B27C901B8011F910F91AC
:103F20000C94051F0F931F93009107031091080332
:103F30002091090330910A03602B712B822B932B64
:103F40001F910F910C94051F0F931F93009107036E
:103F5000109108032091090330910A036023712313
:103F6000822393231F910F910C94051F0F931F938E
:103F700000910703109108032091090330910A036F
:103F800060277127822793271F910F910C94051F9B
:103F90000895292F220F920F990F890FE82FE69588
:103FA000E695E695877051E001C0550F8A95EAF7CE
:103FB00085E0E89FF0011124E053FD4F20E030E060
:103FC00070E04081CB01022E02C0969587950A943D
:103FD000E2F78170819584278523842781932F5F61
:103FE0003F4F2530310569F70895292F220F920F91
:103FF000990F890F682F669566956695982F97702B
:1040000085E0689FB001112440E050E080E0FB01B2
:10401000E40FF51FE053FD4F208130E0092E02C070
:10402000369527950A94E2F721703327042E01C0B4
:10403000220F0A94EAF7822B4F5F5F4F45305105FC
:1040400031F70895CF92DF92EF92FF920F931F9373
:10405000CF93DF938C01C0900703D0900803E090CA
:104060000903F0900A0380910B0390910C03A09137
:104070000D03B0910E03C82AD92AEA2AFB2ACFE100
:10408000D0E0D701C6010C2E04C0B695A795979530
:1040900087950A94D2F780FD04C0219790F780E0BD
:1040A00007C0B8018C2F0E947C0A0197B1F38C2FB6
:1040B000DF91CF911F910F91FF90EF90DF90CF9004
:1040C0000895CF93DF93EC010E942220BE010E944D
:1040D0007C0ADF91CF9108951F93CF93DF93EB017B
:1040E00090919502992321F0CB010E94612013C089
:1040F000882349F0CB010E942220182F682FCE017F
:104100000E94C91F04C0CB010E94F51F182FBE01D9
:10411000812F0E947C0ADF91CF911F910895809199
:104120000F03859585958595089580910F03877078
:10413000089598E0899F90011124262B20930F0366
:104140000C942B1F20910F038095822380930F03E3
:10415000982F977069F430E0482F082E000C550B0B
:104160002417350729F08595859585950C944C1F66
:10417000089590910F03977081E009F480E008950D
:10418000E0910301F0910401809133038083E09179
:104190000301F0910401908180913203892B808387
:1041A000E0910301F0910401908180913103892B0A
:1041B000808380911003882381F0E0910301F091C6
:1041C00004019081892B80838091030190910401E7
:1041D0000E94BC21811110921003809103019091E3
:1041E00004010C94D5148091330308959091330306
:1041F000892B80933303089580959091330389230D
:1042000080933303089510923303089590913203FD
:10421000892B8093320308958095909132038923EE
:1042200080933203089510923203089590913103E0
:10423000892B8093310308958095909131038923D0
:1042400080933103089510923103089580931003F1
:104250000895109210030895809110030895CF924D
:10426000DF92EF92FF926C01EE24FF24C114D1047F
:10427000E104F10421F0C701B60120E101C020E012
:10428000C72ED82EE92EFF24C114D104E104F10475
:1042900019F0285FC701B6016B017C0154E0F69468
:1042A000E794D794C7945A95D1F7C114D104E10487
:1042B000F10419F02C5FC701B6016B017C0142E0EB
:1042C000F694E794D794C7944A95D1F7C114D104D2
:1042D000E104F10419F02E5FC701B601DC01CB0146
:1042E000B695A79597958795892B8A2B8B2B09F0E7
:1042F0002F5F822FFF90EF90DF90CF9008956DEEAB
:104300007EEF80E090E00E94773260E082E090E013
:104310000E94593260E083E090E00E94593260E0F0
:1043200084E090E00E94593260E085E090E00E94D5
:10433000593240E050E0BA0188E090E00C946B32D2
:1043400080E090E00E94533221E08D3E9E4F09F0C4
:1043500020E0822F089582E090E00C94453283E0C3
:1043600090E00C94453284E090E00C944532682F44
:1043700084E090E00C945932FC0131969C01205E5F
:104380003F4F80E0919191118F5FE217F307D1F7D2
:1043900008959C01FC0132969FEF80E04191461701
:1043A00089F09F3F19F4411101C0982F8F5F8E3122
:1043B000A9F79F3F39F0F901E90FF11D97FDFA9533
:1043C0006283089508959C01225E3F4FFC01428163
:1043D000461301C01282019682179307B9F7089518
:1043E000262F2695269526952F3169F0FC01E20FA0
:1043F000F11D677021E030E001C0220F6A95EAF7F5
:104400008181282B21830895262F26952695269590
:104410002F3171F0FC01E20FF11D677021E030E0F7
:1044200001C0220F6A95EAF7209581812823218314
:10443000089520911401222329F02091AD0327FD36
:104440000C94F0210C94C92120911401222329F00D
:104450002091AD0327FD0C9404220C94E321FC0170
:10446000319680961192E817F907E1F708950895BB
:104470000C943722CF930E9438050E9485050E9434
:104480003822C0E08C2F0E94E505811104C0CF5F67
:10449000CE30C1F701C081E0CF9108950C9437224E
:1044A0000C944E228091B303843049F1109235036D
:1044B00020E488E190E00FB6F894A895809360001E
:1044C0000FBE2093600080E00E945E0A0E9450228E
:1044D00083B7817F846083BF83B7816083BF789413
:1044E000889583B78E7F83BF0FB6F894A895809187
:1044F0006000886180936000109260000FBE089594
:104500000C9437220E94C31A0E94C9140E945E0AAA
:104510000C9480221F920F920FB60F9211248F934A
:104520009F93AF93BF9380913503811113C0809106
:10453000A9039091AA03A091AB03B091AC0341965B
:10454000A11DB11D8093A9039093AA03A093AB036F
:10455000B093AC03BF91AF919F918F910F900FBE1D
:104560000F901F90189582E084BD93E095BD9AEF5F
:1045700097BD80936E0008952FB7F8948091A9039A
:104580009091AA03A091AB03B091AC032FBF089503
:10459000CF92DF92EF92FF920F931F932FB7F89471
:1045A0004091A9035091AA036091AB037091AC03B1
:1045B0002FBF6A017B01EE24FF248C0120E030E054
:1045C000C016D106E206F30610F4415051099A01D3
:1045D000281B390BC9011F910F91FF90EF90DF90BD
:1045E000CF90089578941F920F920FB60F921124D6
:1045F0008F939F93AF93BF938091A9039091AA0348
:10460000A091AB03B091AC030196A11DB11D8093A5
:10461000A9039093AA03A093AB03B093AC03BF91FB
:10462000AF919F918F910F900FBE0F901F90189593
:10463000F89481E08093E00080E28093D800E9EC78
:10464000F0E010828FE19EE40197F1F700C00000D6
:104650001DBA109268001CBC10BE1FBA10927A00DE
:1046600010926E0010926F00109271001092720002
:104670001082ECEBF0E0108214B817B81AB81DB82D
:1046800010BA108215B818B81BB81EB811BA0C941D
:10469000003F08950E94A021811102C00E947F2145
:1046A0000E94AB21809334030E94B32190E0909349
:1046B000AE038093AD030E94AF21682F70E080E0CD
:1046C00090E00C94CB1E8091390380FF0BC0609169
:1046D000080185E0689FB00111247595679575956F
:1046E00067952BC081FF09C06091080185E0689F34
:1046F000B00111247595679520C082FF07C06091B5
:10470000080185E0689FB001112417C090913A0319
:104710009923D1F060910701961788F7209108013D
:1047200085E0289F90011124929FA001939F500D36
:10473000112470E0CA010E942B326038710540F4E8
:104740006115710519F406C065E070E0862F0895C3
:104750008FE7089581E008958091390380FF08C0B4
:104760006091060170E0759567957595679521C014
:1047700081FF06C06091060170E07595679519C0CC
:1047800082FF04C06091060170E010C090913A036E
:10479000992399F0609105019617A0F78091060181
:1047A000899FC001112470E00E942B32603871058E
:1047B00040F46115710519F406C061E070E0862FC0
:1047C00008958FE7089581E00895803F21F40E94C5
:1047D0006323819504C0813F29F40E946323809361
:1047E0003D030895823F21F40E946323819504C014
:1047F000833F29F40E94632380933C030895893FFB
:1048000019F40E94AC2305C08A3F31F40E94AC2306
:10481000819580933E0308958B3F21F40E94AC2341
:10482000819504C08C3F29F40E94AC2380933F0300
:104830000895843F21F480913B03816017C0853F38
:1048400021F480913B03826011C0863F21F4809166
:104850003B0384600BC0873F21F480913B03886059
:1048600005C0883F31F480913B03806180933B0316
:1048700008958D3F21F48091390381600BC08E3FF4
:1048800021F480913903826005C08F3F29F4809123
:1048900039038460809339030895803F39F480910F
:1048A0003D0387FF6CC010923D0369C0813F29F42E
:1048B00080913D031816BCF362C090913C03823F87
:1048C00029F497FF5CC010923C0359C0833F19F450
:1048D0001916CCF354C0893F41F480913E03181659
:1048E0000CF04DC010923E034AC08A3F29F48091DB
:1048F0003E0387FF44C0F6CF8B3F39F480913F03DE
:1049000087FF3DC010923F033AC08C3F29F480914D
:104910003F031816BCF333C0843F21F480913B035E
:104920008E7F17C0853F21F480913B038D7F11C09E
:10493000863F21F480913B038B7F0BC0873F21F49E
:1049400080913B03877F05C0883F31F480913B0312
:104950008F7E80933B0313C08D3F21F480913903F8
:104960008E7F0BC08E3F21F4809139038D7F05C06F
:104970008F3F29F4809139038B7F80933903809195
:104980003C0381110EC080913D0381110AC08091CA
:104990003E03811106C080913F03811102C0109235
:1049A0003A0308958BE393E00E94E0140E94BC2236
:1049B000909337038093360308951F93CF93DF932B
:1049C00080913603909137030E94C822AC019091E8
:1049D0003A03992321F02091090130E006C020918B
:1049E00038038AE0289F900111244217530708F4E6
:1049F0006EC080913C03C0913D03D0913E03109165
:104A00003F03811107C0C1115EC0D1115CC01111FB
:104A10005AC05DC09F3F19F09F5F90933A031816EC
:104A200024F40E94632380933C0380913C0387FF1E
:104A300005C00E946323819580933C031C1624F4D7
:104A40000E94632380933D0380913D0387FF05C04F
:104A50000E946323819580933D0340913C0344234E
:104A600079F030913D03332359F025EB4203A00147
:104A7000112450933C033203C001112490933D0351
:104A80001D1624F40E94AC2380933E0380913E03C4
:104A900087FF05C00E94AC23819580933E031116C9
:104AA00024F40E94AC2380933F0380913F0387FF4F
:104AB00005C00E94AC23819580933F03DF91CF9185
:104AC0001F910C94D2249F3F09F0A6CFB7CFDF915E
:104AD000CF911F910895EBE3F3E085E0DF011D9294
:104AE0008A95E9F710923A031092390308958330BA
:104AF00081F128F4813059F08230D1F00895853069
:104B000009F449C0B8F1863009F456C0089580917F
:104B10003803262F30E0280F311D2F3F310524F4B4
:104B2000680F6093380308958FEF809338030895DA
:104B300080910901262F30E0280F311D2F3F3105CC
:104B400024F4680F6093090108958FEF80930901A1
:104B5000089580910801262F30E0280F311D2F3F46
:104B6000310524F4680F6093080108958FEF809356
:104B70000801089580910701262F30E0280F311D8C
:104B80002F3F310524F4680F6093070108958FEFDC
:104B900080930701089580910601262F30E0280FA9
:104BA000311D2F3F310524F4680F609306010895ED
:104BB0008FEF80930601089580910501262F30E044
:104BC000280F311D2F3F310524F4680F6093050134
:104BD00008958FEF809305010895833011F128F433
:104BE000813049F0823091F00895853081F120F1D3
:104BF0008630C1F1089580913803681720F4861B30
:104C00008093380308951092380308958091090124
:104C1000681720F4861B80930901089510920901FA
:104C2000089580910801681720F4861B809308017D
:104C3000089510920801089580910701681720F4E3
:104C4000861B8093070108951092070108958091B3
:104C50000601681720F4861B8093060108951092C0
:104C60000601089580910501681720F4861B809342
:104C7000050108951092050108950F931F9341E0D7
:104C800050E060E070E08A019B0104C0000F111F3A
:104C9000221F331F8A95D2F7C901B8010E94CB1E8B
:104CA0001F910F910C94C31A873208F04DC08E31BA
:104CB00008F08FC0803109F479C008F5873009F415
:104CC00067C068F4863009F08BC080913403817F1F
:104CD0008E7F8093340381E08093410308958B306D
:104CE00009F47AC08E3009F07BC08091340382FBD6
:104CF000222720F991E0922790FB82F960C086314B
:104D000009F46AC088F4813109F06AC00E94C31AAC
:104D10008091AD0387FB222720F991E0922790FB39
:104D200087F98093AD0358C0893109F455C08B31A0
:104D300009F056C08091340381FB222720F991E0CD
:104D4000922790FB81F93BC0883309F445C048F4B1
:104D5000893209F443C0853309F440C08732F1F148
:104D60003FC08334D9F120F48A33D0F1895332C063
:104D70008834B1F50E94C31A2FEF83ED90E32150E0
:104D800080409040E1F700C000000E94182324C03A
:104D900080913403982F9095917090FB80F98093C7
:104DA0003403911119C0897F877F10C0809134032B
:104DB00083FB222720F991E0922790FB83F98093CF
:104DC0003403992349F08091340381608093340344
:104DD00003C08D510E943D2681E0089580E0FACF06
:104DE00080E0089580E008950C94F2268E518A3078
:104DF00030F4E82FF0E0E354FE4F8081089580E026
:104E00000895CF93C82F80914103813079F018F035
:104E10008230E9F185C0E0910301F09104018081C5
:104E2000813169F0823209F07DC009C0E09103014F
:104E3000F09104018081813111F0823261F48C2F74
:104E40000E94F426811104C08C2F0E9454261DC09C
:104E500081E090E01AC08C2F0E94F226811114C0CC
:104E6000C43179F048F4CB3079F0C03109F05EC03C
:104E700082E08093410308C0C93219F0C83321F0A1
:104E800055C01092410352C081E0817051C0C932B7
:104E900079F108F5C43161F1A0F4C73009F044C0DC
:104EA0001092380384E180930901C09308018CE3D8
:104EB0008093070188E08093060188E280930501D2
:104EC00033C082EE8C0F863078F58C2F0E94F62648
:104ED0008093400329C0CE34E9F020F4CB3421F58F
:104EE0006AE013C0C13579F0C235F1F461E00DC05C
:104EF00080914003882319F01092400315C081E08F
:104F00008093410315C061E006C0809140030E9478
:104F100077250AC06AE0809140030E94ED2504C015
:104F20001092410380E004C081E002C080E0ADCF78
:104F3000CF9108958091620308950F931F93CF93AB
:104F4000DF9300D01F92CDB7DEB78C010E94132AE9
:104F5000823011F0843019F583E089831B830A8342
:104F60008093E9008FEF9091E800815095FD06C095
:104F700095ED9A95F1F700008111F5CF8091E80049
:104F800085FF0DC040E050E063E070E0CE01019687
:104F90000E94302A8091E8008E778093E8000F907D
:104FA0000F900F90DF91CF911F910F910895CF93A4
:104FB000DF9300D01F92CDB7DEB72091B30324302A
:104FC00031F522E02983805891099B838A8383E00D
:104FD0008093E9008FEF9091E800815095FD06C025
:104FE00095ED9A95F1F700008111F5CF8091E800D9
:104FF00085FF0DC040E050E063E070E0CE01019617
:105000000E94302A8091E8008E778093E8000F900C
:105010000F900F90DF91CF910895CF93DF93EC0124
:105020000E94132A823011F08430F9F482E08093D8
:10503000E9008FEF9091E800815095FD06C095ED55
:105040009A95F1F700008111F5CF8091E80085FF76
:105050000CC040E050E065E070E0CE010E94302AD4
:105060008091E8008E778093E800DF91CF910895DA
:10507000CF93DF93EC010E94132A823019F0843021
:1050800009F047C0809114018823E1F08091AD03BD
:1050900087FF18C084E08093E9008FEF9091E800CB
:1050A000815095FD06C095E19A95F1F700008111B8
:1050B000F5CF8091E80085FF2CC040E050E060E231
:1050C00070E017C081E08093E9008FEF9091E800D5
:1050D000815095FD06C095ED9A95F1F7000081117C
:1050E000F5CF8091E80085FF14C040E050E068E013
:1050F00070E0CE010E94302A8091E8008E77809384
:10510000E80080E2FE01A2E4B3E001900D928A95EE
:10511000E1F7DF91CF9108958091B203811109C029
:105120000E94C12B0E941E2C8091E200846080931B
:10513000E20008951092B2030895089508950C9422
:10514000822242E061EC81E00E943A2B42E061EC75
:1051500082E00E943A2B42E061EC83E00E943A2B0D
:1051600042E261EC84E00C943A2B8091B5038330E9
:1051700009F455C030F4813071F0823009F48EC0EA
:1051800008958A3009F47AC08B3009F460C0893000
:1051900009F09CC020C08091B403813A09F096C008
:1051A0008091E800877F8093E8008091B803909118
:1051B000B903892B21F460E282E493E003C060E04C
:1051C00080E090E070E00E947B2A8091E8008B777D
:1051D0008093E80008958091B403813209F076C08D
:1051E0008091B8039091B903009719F0039709F0E3
:1051F0006DC08091E800877F8093E8008091E8008F
:1052000082FD05C08091B3038111F8CF5FC080910A
:10521000F100809362038091E8008B7753C0809106
:10522000B403813A09F052C08091B8039091B90358
:10523000892B09F04BC08091E800877F8093E800BC
:105240008091E80080FFFCCF8091140136C08091EE
:10525000B4038132D9F58091B8039091B903892BB9
:10526000A9F58091E800877F8093E8000E946F2B6A
:105270008091B603809314010C94C31A8091B403F7
:10528000813221F58091E800877F8093E8000E94B9
:105290006F2B8091B7038093630308958091B403CB
:1052A000813AA1F48091E800877F8093E8008091A3
:1052B000E80080FFFCCF809163038093F100809130
:1052C000E8008E778093E8000C946F2B089584B7E4
:1052D000877F84BF0FB6F894A8958091600088619D
:1052E00080936000109260000FBE80E880936100A0
:1052F000109261000E9418150E94C12B0E941E2C62
:105300008091E20084608093E20078940E94B32E42
:105310000E941C158AE091E00E94C4148091B3039E
:10532000853069F40E9452228091B1038823B1F341
:105330000E943A22882391F30E941A2AEFCF0E94FA
:1053400024150E94C213EACF0C94A629292F3327D3
:1053500023303105C9F060F42130310581F022306D
:10536000310509F047C08DE690E021ED36E046C0FA
:105370002132310511F12232310561F13BC082E168
:1053800090E02EE337E03AC099278130910561F033
:1053900040F08230910559F0039761F5E7E9F6E0B6
:1053A00008C0EDECF6E005C0E5EBF6E002C0EDE983
:1053B000F6E0849190E09F0121C064307105D0F443
:1053C000660F771FFB01ED52FE4F2081318189E08E
:1053D00090E014C06430710568F4FB01EE0FFF1F0C
:1053E000E553FE4F20813181FB01E953FE4F80815F
:1053F00090E004C080E090E020E030E0FA013183EA
:10540000208308950895CF93C82F0E94022AC09345
:105410006403CF9108958091B303843011F081E04B
:10542000089582E0089580916403811102C00C9474
:105430000B2A089580E189BD82E189BD09B400FE8F
:10544000FDCF8091D8008F7D8093D8008091E000BF
:1054500082608093E0008091E00081FDFCCF0895A0
:10546000CF92DF92EF92FF920F931F93CF93DF9330
:10547000EC018B017A010E948E2B811133C0E11463
:10548000F10439F0F70180819181081B190BC80FD5
:10549000D91FC12CD12C0115110519F18091E800FB
:1054A00085FD16C08091E8008E778093E800E114B6
:1054B000F10449F0F70180819181C80ED91ED18293
:1054C000C08285E00FC00E948E2B882321F30AC082
:1054D00089918093F10001501109FFEFCF1ADF0A83
:1054E000DACF80E0DF91CF911F910F91FF90EF9085
:1054F000DF90CF9008952091BA033091BB03261717
:10550000370748F06115710539F42091E8002E77CE
:105510002093E80001C0B901FC0120E0611571058C
:1055200079F18091B3038823F1F18530F1F1809115
:10553000E80083FD3CC08091E80082FD2EC0809190
:10554000E80080FFEBCF2091F3008091F20090E023
:10555000922B6115710551F08830910538F4219135
:105560002093F100615071090196F3CF21E0089773
:1055700009F020E08091E8008E778093E800CECF9C
:105580002111CFCF0AC08091B303882361F0853009
:1055900061F08091E80083FD0AC08091E80082FFFD
:1055A000F2CF80E0089582E0089583E0089581E0DD
:1055B00008952091BA033091BB032617370748F0AE
:1055C0006115710539F42091E8002E772093E800E9
:1055D00001C0B901FC0120E06115710591F18091D4
:1055E000B303882309F440C0853009F43FC080919B
:1055F000E80083FD3DC08091E80082FD2FC08091CE
:10560000E80080FFE9CF2091F3008091F20090E064
:10561000922B6115710559F08830910540F4249161
:105620002093F1003196615071090196F2CF21E08B
:10563000089709F020E08091E8008E778093E800D9
:10564000CBCF2111CCCF0AC08091B303882361F066
:10565000853061F08091E80083FD0AC08091E80008
:1056600082FFF2CF80E0089582E0089583E00895FC
:1056700081E00895982F973068F59093E900981786
:1056800039F07091EC002091ED005091F00003C0D2
:10569000242F762F50E021FD02C09F5FECCF309188
:1056A000EB003E7F3093EB003091ED003D7F309377
:1056B000ED003091EB0031603093EB007093EC0023
:1056C0002093ED005093F0002091EE0027FDE5CFF0
:1056D00080E008958F708093E90081E008958091C3
:1056E000B40387FF11C08091E80082FD05C080915E
:1056F000B3038111F8CF11C08091E8008B770BC004
:105700008091B303882349F08091E80080FFF8CFAF
:105710008091E8008E778093E80008952091E4005E
:105720003091E50095E64091EC00842F817040FFB8
:1057300023C08091E80080FD1DC08091B3038823C1
:1057400099F0853099F08091EB0085FD11C0409172
:10575000E4005091E5002417350729F3915011F02A
:105760009A01E1CF84E0089582E0089583E00895EE
:1057700081E0089580E008954091E80042FFDDCF88
:1057800008950E942F2C0E94372CE0EEF0E08081DB
:1057900081608083E8EDF0E080818F77808319BCA1
:1057A000A7EDB0E08C918E7F8C9380818F7E80837B
:1057B0001092B20308950F931F93CF93DF930E942B
:1057C0002F2C0E94372CC8EDD0E088818F778883FA
:1057D00088818068888388818F7D888319BC109236
:1057E000B3031092AF031092B1031092B00300EE16
:1057F00010E0F80180818B7F8083888181608883BD
:1058000042E060E080E00E943A2BE1EEF0E080812F
:105810008E7F8083E2EEF0E08081816080838081F2
:1058200088608083F80180818E7F80838881806199
:105830008883DF91CF911F910F910895E8EDF0E0FB
:1058400080818F7E8083E7EDF0E0808181608083BE
:1058500084E082BF81E08093B2030C94DB2BE8EDFF
:10586000F0E080818E7F80831092E2000895109294
:10587000DA001092E10008951F920F920FB60F9276
:1058800011242F933F934F935F936F937F938F9345
:105890009F93AF93BF93EF93FF938091E10082FFBB
:1058A0000BC08091E20082FF07C08091E1008B7FF6
:1058B0008093E1000E94B22E8091DA0080FF1FC029
:1058C0008091D80080FF1BC08091DA008E7F80938A
:1058D000DA008091D90080FF0DC080E189BD82E1AE
:1058E00089BD09B400FEFDCF81E08093B3030E941F
:1058F0008C2805C019BC1092B3030E949A2880918D
:10590000E10080FF19C08091E20080FF15C0809106
:10591000E2008E7F8093E2008091E20080618093BC
:10592000E2008091D80080628093D80019BC85E0A5
:105930008093B3030E949E288091E10084FF30C0D1
:105940008091E20084FF2CC080E189BD82E189BDA5
:1059500009B400FEFDCF8091D8008F7D8093D800E0
:105960008091E1008F7E8093E1008091E2008F7E44
:105970008093E2008091E20081608093E200809158
:10598000AF03882311F084E007C08091E30087FD16
:1059900002C081E001C083E08093B3030E949F288E
:1059A0008091E10083FF29C08091E20083FF25C040
:1059B0008091E100877F8093E10082E08093B303D0
:1059C0001092AF038091E1008E7F8093E10080917F
:1059D000E2008E7F8093E2008091E20080618093FC
:1059E000E20042E060E080E00E943A2B8091F0000B
:1059F00088608093F0000E949D28FF91EF91BF91F5
:105A0000AF919F918F917F916F915F914F913F9156
:105A10002F910F900FBE0F901F9018951F920F920D
:105A20000FB60F9211242F933F934F935F936F9371
:105A30007F938F939F93AF93BF93CF93DF93EF9316
:105A4000FF93C091E900CF708091EC00D82FD17006
:105A500080FDD0E81092E9008091F000877F80936C
:105A6000F00078940E94522D1092E9008091F0008D
:105A700088608093F000CD2BCF70C093E900FF9138
:105A8000EF91DF91CF91BF91AF919F918F917F91D6
:105A90006F915F914F913F912F910F900FBE0F909B
:105AA0001F9018951F93CF93DF93CDB7DEB7AA97BA
:105AB0000FB6F894DEBF0FBECDBFE4EBF3E08091EC
:105AC000F100819323E0EC3BF207C9F70E94B5286F
:105AD0008091E80083FF2EC18091B4039091B503BB
