:100000000C9414040C9431040C9431040C943104B9
:100010000C9431040C9431040C9431040C9431048C
:100020000C9431040C9431040C943D2C0C940F2D41
:100030000C9480220C9431040C9431040C943104FF
:100040000C9431040C9431040C9431040C9431045C
:100050000C9431040C94E8220C9431040C94310477
:100060000C9431040C9431040C9431040C9431043C
:100070000C9431040C9431040C9431040C9431042C
:100080000C9431040C9431040C9431040C9431041C
:100090000C9431040C9431040C9431040C9431040C
:1000A0000C9431040C9431040C943104C304C60440
:1000B000C904CC04CF04D104D404B506B806BE06E6
:1000C000C106C406C706CA06CD06D006D306000779
:1000D00005070F07030708070D070B07CF07D10711
:1000E000DC07D307D507D707D907DB07DE07E0070B
:1000F000E207ED07E407E607E807EA07EC07EF0782
:1001000021182118531853188A18AA18131A711A8B
:10011000EC18711A991999190A1A711A711A6B1A2D
:10012000A619A619A619A619A619A619A619A619D7
:10013000A619A619A619A619A619A619A619A619C7
:10014000B719C419CB19D219DC19FC1AFC1A0E1BE9
:100150000E1B051B0E1B0E1B0E1BFC1AFC1A0A1B8A
:100160000E1B0E1B0A1B7C2DA32D952EA32D952E49
:10017000EF2D122E952E682E772E07634236B79BF1
:10018000D8A71A39685618AEBAAB558C1D3CB7CCF7
:100190005763BD6DEDFD753EF6177231BF0000006F
:1001A000803F05A84CCDB2D44EB93836A9020C50C8
:1001B000B9918688083CA6AAAA2ABE000000803F02
:1001C0006572676F646F785F657A2F666B6F6831F1
:1001D00031315F64656661756C74204020302E3665
:1001E0002E34382D32302D673036343837642D6454
:1001F0006972747900253E25003C2D0066726564A5
:100200006572696B2E68616E73656E4064656E74AD
:10021000737561656769732E636F6D0066726564DF
:100220006572696B5F6B6F6B4069636C6F75642E91
:10023000636F6D0002E3012C03E30002E06E03E054
:100240000002E2013D03E20002E07403E00002E08C
:100250007703E00002E3010F03E3000000F0A1DFF9
:100260005C2B004C00E100006100001E0014000443
:10027000001D00E45C4D001F001A0016001B00006A
:10028000742A002000080007000600E7002C002167
:100290000015000900190000644A00220017000A36
:1002A00000050000002F005600010000000153006F
:1002B0000030002E02B7000000B6000000E400236A
:1002C000001C000B00110000002900240018000D84
:1002D00000100052004B0025000C000E00360051AB
:1002E000002800260012000F00370050002B0027C6
:1002F000001300330001004F004E002E002F003489
:10030000002D0038000000DF5C2B004C00E10000F5
:100310006100003A00E25C04001D0001004D003B5A
:1003200000E35CF2001B0000742A003C00F000F1C6
:100330000006000068F4003D00E15CF300190000D5
:10034000644A003E00E05C0100010000002F00E76D
:100350005C01000000010000003000E85CB7000014
:1003600000B60000000100FD0001000100110000C6
:10037000002900FE00E85CFB00A90052004B00FFD2
:1003800000F900FA00AA0051002800E65C1200FC07
:1003900000A8005000F500E55C3102380031004F44
:1003A000004E002E003500340002513800000001DC
:1003B0000001000100010001000000E05C010001FB
:1003C00000010001000100E25C01000100010001E8
:1003D000002A003C0001000100010001002C003D4A
:1003E00000010001000100006401003E0001000165
:1003F00000010000002F00E45C010000000100008B
:100400000030000100010000000100000001003F79
:10041000000100010001000000290040000100016E
:100420000001000100010041000100010001000184
:100430000001004200010001000100010001004331
:10044000000100010001000100010044004500011D
:100450000001000100000000000000000000002A70
:100460002B28000000000000000000000000000039
:10047000000029000000002C1E34202122243426F4
:1004800027252E362D3738271E1F202122232425ED
:10049000263333362E37381F0405060708090A0BA2
:1004A0000C0D0E0F101112131415161718191A1B14
:1004B0001C1D2F3130232D350405060708090A0BB2
:1004C0000C0D0E0F101112131415161718191A1BF4
:1004D0001C1D2F3130354C000000000000000000D2
:1004E000000000000000000000000000000000000C
:1004F00000000000000000000101010101010001F5
:1005000001010100000000000000000000000000E8
:1005100000010001000101010101010101010101CE
:1005200001010101010101010101010101010101BB
:1005300001010000000101000000000000000000B7
:1005400000000000000000000000000000000000AB
:100550000000010101010000046801F000B400780E
:10056000005A007F3F1F643214643214783C1E1E10
:10057000140A050000000000010101010101010150
:100580000102020202020202020203030303030346
:100590000303040404040404050505050506060612
:1005A000060607070707080808080909090A0A0ACA
:1005B0000A0B0B0B0C0C0C0D0D0D0E0E0F0F0F106C
:1005C00010111111121213131414151516161717F2
:1005D000181819191A1A1B1C1C1D1D1E1F1F20205C
:1005E0002122222324252526272728292A2B2B2CA4
:1005F0002D2E2F2F30313233343536363738393AC5
:100600003B3C3D3E3F4041424344464748494A4BBC
:100610004C4D4F50515253555657585A5B5C5E5F84
:10062000606263646667696A6C6D6E70717374761C
:1006300078797B7C7E8081838486888A8B8D8F917C
:10064000929496989A9B9D9FA1A3A5A7A9ABADAFA5
:10065000B1B3B5B7B9BBBDBFC1C4C6C8CACCCFD191
:10066000D3D6D8DADCDFE1E4E6E8EBEDF0F2F5F73B
:10067000FAFCFF0403300000001603450072006717
:10068000006F0044006F007800200045005A000011
:100690000016034500720067006F0044006F007889
:1006A00000200045005A0000000403090409026DFF
:1006B00000040100A0FA090400000103010100097F
:1006C00021110100012240000705810308000A09E9
:1006D0000401000103010200092111010001224D62
:1006E000000705820308000A090402000103000054
:1006F00000092111010001223600070583030800CB
:100700000A0904030001030000000921110100018E
:1007100022390007058403200001120110010000A6
:100720000008EDFE0713010001020301050109069F
:10073000A101050719E029E71500250195087501B4
:100740008102050819012905950575019102950198
:10075000750391010507190029F71500250195F882
:1007600075018102C005010980A101850216010001
:100770002603001A81002A8300751095018100C0AC
:10078000050C0901A1018503160100269C021A012E
:10079000002A9C02751095018100C005010902A183
:1007A000010901A100050919012905150025019577
:1007B0000575018102950175038101050109300963
:1007C000311581257F950275088106093815812527
:1007D0007F950175088106050C0A38021581257F71
:1007E000950175088106C0C005010906A10105072C
:1007F00019E029E715002501950875018102950189
:1008000075088101050819012905950575019102F1
:100810009501750391010507190029FF150026FFB1
:1008200000950675088100C011241FBECFEFDAE0E5
:10083000DEBFCDBF11E0A0E0B1E0E4E1F5E602C02B
:1008400005900D92AC3DB107D9F723E0ACEDB1E0D6
:1008500001C01D92AC3BB207E1F70E9462290C94E3
:1008600088320C9400001092B9008AE08093B8009E
:10087000089594EA9093BC009091BC0097FFFCCF40
:100880009091B900987F983021F0903111F081E07B
:1008900008958093BB0084E88093BC008091BC00E5
:1008A00087FFFCCF8091B900887F883111F08034B8
:1008B00071F780E0089584E98093BC008091BC00CA
:1008C00084FDFCCF08958093BB0084E88093BC0036
:1008D0008091BC0087FFFCCF9091B900987F81E0A8
:1008E000983209F480E0089584E88093BC008091F8
:1008F000BC0087FFFCCF8091BB00089580B38C7053
:1009000080BB81B3836F81BB089584B1807F84B93C
:1009100085B1807F85B98AB1837F8AB98BB1837FA6
:100920008BB93E9846980895CF93E82F873008F505
:100930008091000181113AC0CE2F80E40E943904D9
:1009400080930001811112C082E10E9463048093B0
:10095000000181110BC081E090E001C0880FCA95B1
:10096000EAF780950E94630480930001CF910C9474
:100970005B0490E0FC013797E730F105B8F4EA5AE0
:10098000FF4F0C943A32209A289810C0219A299847
:100990000DC0229A2A980AC0239A2B9807C0529A0F
:1009A00001C0539A5B9802C03E9A4698CF91089531
:1009B000CF93873018F580910001811128C080E421
:1009C0000E94390480930001882311F0C0E012C016
:1009D00083E10E946304809300018111F7CF81E4D9
:1009E0000E943904809300018111F0CF0E947404A9
:1009F000C82FC0950E945B048C2F0AC09FB18FB195
:100A0000807F869586959370892B809501C080E0C4
:100A1000CF91089508950C940A050E94570680937B
:100A200000010E9485040E947E042DED31E0E1E387
:100A3000F2E04EE04E0F119280E090E0D901A80F55
:100A4000B91F1C92019686309105C1F72A5F3F4F6E
:100A50004E13F1CF0C943E0A0E945706809300017A
:100A60000E9485040E947E04E1E3F2E08EE08E0F96
:100A700011928E13FDCF089526E0829FC0011124AC
:100A8000FC01E352FE4F20E030E080E041E050E026
:100A90009081992319F09150908307C0BA01022EDA
:100AA00001C0660F0A94EAF7862B2F5F3F4F3196FD
:100AB0002630310569F7089596E0699FB001112449
:100AC00020E030E090E04FE0FC01022E02C0F595FE
:100AD000E7950A94E2F7E0FF06C0F901E60FF71F79
:100AE000E352FE4F40832F5F3F4F2630310561F7C1
:100AF0000895CF92DF92EF92FF920F931F93CF93BF
:100B0000DF9380910001882379F08091DC018F5F71
:100B10008093DC01811108C00E9457068093000178
:100B2000811102C00E94E90581E3C82E82E0D82E1F
:100B300098E3E92E92E0F92EC0E08C2F0E949404F5
:100B400007E00C0F802F0E9494048C2F0E943C051C
:100B5000182F8C2F0E94D804F6019081D12FD095A8
:100B6000D9238123D82B6C2F8D2F89270E945C05D8
:100B7000F601D1936F01802F0E943C05182F802F22
:100B80000E94D804F7019081D12FD095D9238123D9
:100B9000D82B602F8D2F89270E945C05F701D193F8
:100BA0007F010E948504CF5FC73039F60E94400A5A
:100BB00081E0DF91CF911F910F91FF90EF90DF9037
:100BC000CF900895E82FF0E0EF5CFD4F808108950D
:100BD000089556985E9825982D9826982E982798CF
:100BE0002F988FEF90E090938900809388009093E6
:100BF0008B0080938A0090938D0080938C00259ABF
:100C00002D9A2FEF80E792E0215080409040E1F74D
:100C100000C00000269A2E9A2FEF80E792E0215024
:100C200080409040E1F700C00000279A2F9A2FEFF4
:100C300080E792E0215080409040E1F700C0000042
:100C400025982D982FEF80E792E02150804090402A
:100C5000E1F700C0000026982E982FEF80E792E081
:100C6000215080409040E1F700C0000027982F9865
:100C700056985E9825982D9826982E9827982F9804
:100C8000089589EA8093800089E080938100249808
:100C90002C983F988AB18F7C8AB96E98479A8BB10D
:100CA00080638BB9769A0E94E9050C94E50680E290
:100CB0008093000180913F0281110EC00E94330495
:100CC00081E080933F022FEF83ED90E3215080403D
:100CD0009040E1F700C0000080E40E943904809356
:100CE000000181112EC00E946304809300018111D4
:100CF00028C00E94630480930001811122C08FE309
:100D00000E9463048093000181111BC00E945B0458
:100D100080E40E94390480930001811112C08CE0AC
:100D20000E9463048093000181110BC00E94630440
:100D300080930001811105C08FE30E9463048093BA
:100D400000010E945B04809100010895FC01DB0119
:100D500012968C91882351F1EF5DFC45EA30F10544
:100D600030F5E35AFF4F0C943A3284E592E002C02A
:100D70008EE492E00E943B0A80E0089588E492E0CD
:100D8000F9CF81E492E0F6CF8BE392E0F3CF84E3F6
:100D900092E0F0CF8CE192E0EDCF8CEF91E0EACFE2
:100DA00089EF91E0E7CF85EF91E0E4CF81E008950E
:100DB000611108C0FC018281882321F080EC91E060
:100DC0000E943B0A80E090E008950895CF92DF9260
:100DD000EF92FF926B017C010E94282156985E9849
:100DE00025982D9826982E9827982F9890E0FC010A
:100DF0003197E730F105A8F4E959FF4F0C943A32E6
:100E0000259A2D9A0EC0259A2D9A269A2E9A09C0B7
:100E1000259A2D9A04C0259A2D9A269A2E9A279AB9
:100E20002F9AC701B601FF90EF90DF90CF90089501
:100E300081E008950C94A6060E94EA1A2FEF84E33D
:100E40009CE0215080409040E1F700C000000C94ED
:100E50000E23FF920F931F93CF93DF938C01FC011E
:100E6000C081D18180919502811113C08281882334
:100E700049F0CE010E941B20F82E682FCE010E945F
:100E8000BE1F04C0CE010E94EE1FF82EBE018F2DA2
:100E900004C0CE010E941B20BE010E94560AEC0134
:100EA000B8010E941A07882309F485C2B801CE014F
:100EB0000E94C00C882309F47EC2B801CE010E94B2
:100EC0000F0D882309F477C2C93CFCE5DF0741F424
:100ED000F8018281882309F46EC20E94C40E6BC29D
:100EE000CA3C8CE5D80708F013C1C13C9CE5D90782
:100EF00061F4F8018281882309F45DC20E94EC202C
:100F00008272F1F00E94DE1056C2C23CECE5DE07B0
:100F1000D0F0F8018281C53CFCE5DF0709F4CDC0C3
:100F200008F0DDC0C33CECE5DE0709F4CCC008F0F6
:100F3000D0C0882309F43FC20E94EC20827211F3D2
:100F40000E94D41038C2C531FCE5DF0708F07EC02E
:100F5000C2308CE5D80708F452C0F801828188239A
:100F600009F459C00E949921811102C00E94782180
:100F70000E94AC2190E09093AE038093AD03FE01FC
:100F8000E350FC45E231F10530F4E259FF4F809126
:100F9000AD030C943A328091AD03816027C082602A
:100FA00025C0846023C0806121C080621FC080642E
:100FB0001DC080681BC08460886018C08E7F16C00A
:100FC0008D7F14C08B7F12C08F7E10C08F7D0EC0AE
:100FD0008F7B0CC08F770AC08B7F877F07C087FB12
:100FE000222720F991E0922790FB87F98093AD03A7
:100FF0008091AD030E94B0210E94EA1ADCC1C115A4
:101000009CE5D90781F0C130DC45A9F081E08093EF
:10101000450280934602C801DF91CF911F910F9145
:10102000FF900C941807F8018281882309F4C3C14A
:101030000E941C07C0C1F8018281882309F4BBC14A
:1010400080913403816080933403B5C1C531FCE5E0
:10105000DF0739F50E94EC20282FF80182814091AA
:10106000030150910401882379F02A7A91E009F470
:1010700090E090934002911102C069E201C065E3E3
:10108000CA010E9411220AC080914002811102C04F
:1010900069E201C065E3CA010E941C220E94B920D6
:1010A0008AC1C03CDC4509F0B1CFF80182818823B8
:1010B00009F481C10E943F117EC1882309F47BC1DC
:1010C0000E942A1078C1882309F475C10E94F30F89
:1010D00072C1882309F46FC10E940B106CC1C73C18
:1010E0009CE5D90731F4882309F465C10E944E10AC
:1010F00062C1C83CDC4530F4882309F45CC10E941D
:101100003C1059C1882309F456C10E94691053C18B
:10111000C13DFCE5DF0749F4F8018281882309F429
:101120004AC188E10E94D11046C1C23D8CE5D80772
:1011300008F087C0F8018281CD3CFCE5DF07A1F40F
:10114000882309F438C10E94B60E66307105810506
:10115000910540F00E94B60E683071058105910539
:1011600008F4EECE86E0DECFCE3C9CE5D90730F524
:10117000CB3CECE5DE0729F4882309F41CC181E0AF
:10118000D1CFCC3CDC4530F4882309F414C10E9453
:10119000D90E11C1882309F40EC10E94B60E623027
:1011A00071058105910540F00E94B60E653071050C
:1011B0008105910508F4C4CE82E0B4CFCF3C9CE514
:1011C000D907A1F4882309F4F6C00E94B60E6F3047
:1011D00071058105910540F00E94B60E64317105DC
:1011E0008105910508F4ACCE8FE09CCFC03DDC4575
:1011F000A0F4882309F4DFC00E94B60E693071059F
:101200008105910540F00E94B60E6E307105810592
:10121000910508F495CE89E085CF882309F4CBC0E9
:101220000E94B60E653171058105910540F00E945E
:10123000B60E673171058105910508F481CE85E10F
:1012400071CFC53DFCE5DF0781F5F8018281882378
:1012500061F0109246020E94B22290934402809361
:10126000430280E20E94DF17A6C00E94EC2081FFAB
:1012700005C081E08093450280934602809146023A
:1012800081110FC080914302909144020E94BE22BE
:10129000883C910530F487E20E94711687E20E9433
:1012A000801780E20E94E61786C0C63D8CE5D8070D
:1012B00008F04CC0F8018281C33DFCE5DF0729F44A
:1012C000882309F478C083E22DCFC43DDC45A0F427
:1012D000882309F470C00E94B60E6931710581053A
:1012E000910540F00E94B60E6232710581059105AC
:1012F00008F426CE89E116CF882351F010924502DA
:101300000E94B222909342028093410282E0AACFCF
:101310000E94EC2085FF05C081E080934502809308
:1013200046028091450281110FC080914102909147
:1013300042020E94BE22883C910530F486E20E945F
:10134000711686E20E94801782E0ACCFC93DECE5C1
:10135000DE0731F4F8018281882369F180E009C059
:10136000CA3DFCE5DF0741F4F8018281882319F1C9
:1013700082E00E94002A1FC0C63DDC4509F046CE2F
:10138000F8018281811165CF80914602811189CF58
:1013900080914302909144020E94BE22883C9105B4
:1013A00008F07FCF80E20E94E61788E20E94711663
:1013B00088E20E94801780E0DF91CF911F910F910A
:1013C000FF900895CF93282F30E0F901E95AFB4FA1
:1013D000C491F901E952FB4F2491222359F081EE87
:1013E0000E9471168C2F0E9471168C2F0E948017FC
:1013F00081EE04C08C2F0E9471168C2FCF910C941B
:1014000080170F931F93CF93DF93EC01062FFE01FC
:101410008491882359F19E012F5F3F4F813041F421
:10142000E901F9011491812F0E947116812F0DC0DD
:10143000823031F4E901F90184910E9471160AC0E9
:10144000833031F4E901F90184910E94801702C0D0
:101450000E94E2092196802F8823C9F2EFE9FFE07C
:101460003197F1F700C000008150F6CFDF91CF91A6
:101470001F910F91089560E00C94010A0C944106AD
:101480000C940B05282F2F7041F0822F90E02A300A
:1014900010F44D9608950697089587E290E0089518
:1014A00008950C94500A0C94510A089596E0799F7F
:1014B000F001112494E5899FE00DF11D1124E60F40
:1014C000F11DEE0FFF1FE15AFD4F85919491089594
:1014D000880F991FFC01E55AFD4F8591949108955D
:1014E000CF93DF930E94560A0E941F0CEC018115D6
:1014F00020E59207F0F5811530E4930708F021C14B
:10150000883E910500F5803E910508F094C1883A27
:10151000910570F4853A910508F0A3C081309105DA
:1015200009F489C108F440C1049708F084C13CC1A2
:101530008D3B910508F4A0C0803C910508F434C1AE
:10154000805C9109F0C08115904258F4C11581E08A
:10155000D80708F070C1C03FD10508F425C1D06597
:101560006AC1C11590E3D90708F0E1C0CE019F70B0
:10157000DAC0811525E5920708F043C0811534E5EE
:10158000930708F0F5C0811542E5940708F5C115E9
:1015900081E5D80708F0D8C02C2F237081E090E0B7
:1015A00002C0880F991F2A95E2F79C689E0174E09B
:1015B000369527957A95E1F72370922BCF70C695D3
:1015C000C69540E2C49FE0011124C82BD92B33C13A
:1015D000869586959E0123703327C115D34508F063
:1015E000B8C040E2849FC0011124C1E0D0E002C035
:1015F000CC0FDD1F2A95E2F78C2B9D2BEC01DC68CC
:101600001AC181152AE5920798F4811539E59307E7
:1016100008F0B9C08115964508F4AFC0C11588E53A
:10162000D80708F4C1C0DC2FCC27C06FD06A03C133
:10163000C1159BE5D90708F4B7C0C1152CE5D20741
:1016400008F4AFC0CE0190568115904208F0ACC0AE
:101650008D2F8F710E949C0CDD27D0628F71D82B4B
:10166000EAC0853A910509F4A2C0863A910509F0CD
:10167000A1C0C2E8D0E4DFC0883A910509F49DC05A
:10168000893A910509F49CC08A3A910509F49BC0F6
:101690008B3A910509F49AC08C3A910509F499C0E6
:1016A0008B3B910509F498C08C3B910509F497C0D8
:1016B0008D3A910509F496C0803B910509F495C0D7
:1016C0008E3A910509F494C08F3A910509F493C0BC
:1016D000813B910509F492C0823B910509F491C0C8
:1016E000833B910509F490C0843B910509F48FC0B8
:1016F000853B910509F48EC0863B910509F48DC0A8
:10170000873B910509F48CC0883B910509F48BC097
:10171000893B910509F48AC08A3B910509F489C087
:10172000C0E0D4E488C00E94680AEC0184C0CE0105
:101730009927D3FF03C0EC01D86C7DC0EC01D06CBD
:101740007AC0DF70D06A77C0DC2FCC27C16FD06A37
:1017500072C040E2849FC0011124C1E0D0E002C009
:10176000CC0FDD1F2A95E2F7C82BD92BDA6863C0AE
:10177000D82FCC27C46FD06A5EC0CF71DD27DC2F95
:10178000CC27D06258C08F70806E90E0906A24E0C1
:10179000D695C7952A95E1F7CF709C013C2BE901BE
:1017A0004AC0DD27D06647C0C0E0D0E044C0C1E8F1
:1017B000D0E441C0C3E8D0E43EC0C2EED4E43BC0B4
:1017C000C9EED4E438C0CAEED4E435C0C5EBD4E4E5
:1017D00032C0C6EBD4E42FC0C3EBD4E42CC0C4EBBE
:1017E000D4E429C0C7EBD4E426C0CCECD4E423C0B5
:1017F000CDECD4E420C0C3E8D5E41DC0CAE8D5E4EC
:101800001AC0C2E9D5E417C0C4E9D5E414C0C1E2E6
:10181000D6E411C0C3E2D6E40EC0C4E2D6E40BC0E5
:10182000C5E2D6E408C0C6E2D6E405C0C7E2D6E405
:1018300002C0CAE2D6E4CE01DF91CF91089582388A
:10184000910549F1B0F48133910509F458C048F489
:101850008932910509F44EC08A32910509F454C0C9
:1018600008958533910509F440C08933910599F0B5
:101870000895833E910529F138F4803E910591F059
:10188000823E9105A1F00895863E9105F9F0873ECC
:10189000910531F108952091AD0320FD3AC021FD5D
:1018A00038C008958091AD0380FD35C032C080916D
:1018B000AD0382FF32C08091AD0384FD30C083EE62
:1018C00039C08091AD0382FD28C0F5CF8091AD0372
:1018D00083FF27C08091AD0384FD21C087EE2AC01D
:1018E0008091AD0383FD1DC0F5CF8091AD0385FDD3
:1018F0001AC01BC08091AD0385FD17C014C0809134
:10190000AD0386FD14C015C08091AD0386FD11C0E6
:101910000EC080EE0FC089E30DC082EE0BC080E0E8
:1019200009C086EE07C089E205C085E303C08AE2EC
:1019300001C081E390E008959091AD0392FF0DC046
:10194000282F2871283019F4877F846006C0282F3B
:101950002471243011F48B7F886093FF0DC0282FF1
:101960002871283119F4877E846106C0282F2471DC
:10197000243111F48B7E886194FD877E089508954B
:101980000F931F93CF93FB012281211102C0C1E06D
:1019900041C08C01C0915402C11125C086319C45C3
:1019A000B1F70E94BF0C81E0809354020E94B222E2
:1019B0009093530280935202109247021092490270
:1019C0001092480210924B0210924A0210924D025D
:1019D00010924C0210924F0210924E02109251023D
:1019E0001092500217C080915202909153020E94AF
:1019F000BE228C32914058F690914702E92FF0E0D8
:101A0000EE0FFF1FE85BFD4F118300839F5F9093F4
:101A10004702C0E08C2FCF911F910F910895CF9373
:101A2000DF93813020E89207D0F0FB01228122234E
:101A3000B1F0EC0180915502811109C08CE090E079
:101A40000E9440320E94330D81E0809355020E9433
:101A50003A0DCE019F770E94020E0E94B60D81E0E2
:101A6000DF91CF91089580935602682F8CE090E02B
:101A70000C945432E0910301F09104018081809331
:101A8000650381FF03C081EE0E948017809165038A
:101A900085FF03C085EE0E9480178091650380FF5B
:101AA00003C080EE0E9480178091650384FF03C00D
:101AB00084EE0E9480178091650382FF03C082EE4E
:101AC0000E9480178091650386FF03C086EE0E9406
:101AD00080178091650383FF03C083EE0E94801707
:101AE0008091650387FF03C087EE0E948017809175
:101AF0005602823001F1A8F48823C9F0813079F5CB
:101B000080EE0E94711681EE0E94711688E10E949B
:101B1000711688E10E94801781EE0E94801780EE86
:101B20001CC0843081F08530D1F486EE01C082EE95
:101B30000E94711614C082EE0E94711687E50E9401
:101B4000711687E50AC086EE0E94711686EE0E9425
:101B5000801788E10E94711688E10E9480178FE348
:101B60009CE90197F1F700C00000089580915602AA
:101B7000813049F030F0823021F0853051F486EE2A
:101B800006C082EE04C08CE20E9471168CE20E94B4
:101B900080178091650381FF03C081EE0E9471165A
:101BA0008091650385FF03C085EE0E9471168091C8
:101BB000650380FF03C080EE0E947116809165036B
:101BC00084FF03C084EE0E9471168091650382FF3A
:101BD00003C082EE0E9471168091650386FF03C0E8
:101BE00086EE0E9471168091650383FF03C083EE29
:101BF0000E9471168091650387FF03C087EE0C94E5
:101C000071160895EF92FF921F93CF93DF937C019B
:101C1000CCE0D0E097010C2E02C0369527950A94AF
:101C2000E2F7122F1F70812F0E94420A0E94711644
:101C3000812F0E94420A0E9480172497CC3F8FEF89
:101C4000D80741F7DF91CF911F91FF90EF90089552
:101C5000EF92FF920F931F93CF93DF93E9016623D7
:101C600009F44BC0242F30E0EFEFF0E0E61BF10960
:101C7000B901E69F9001E79F300DF69F300D1124CA
:101C8000232F8B01031B11095CE3E52EF12CB70117
:101C90000E941232FB01BC01069FC001079F900DFC
:101CA000169F900D1124B7010E941232E230F10507
:101CB000B1F040F4309779F0319711F5832F242F4C
:101CC000461B21C0E430F105A1F068F03597C1F45E
:101CD000842F861B18C0832F262F230F14C0862F16
:101CE000830FE42F03C0E42FE61B842F432F2E2FF6
:101CF0000AC0842F462F430F06C0842F242F03C011
:101D000080E020E040E0E42FF0E0ED58FA4F44910D
:101D1000E22FF0E0ED58FA4F9491E82FF0E0ED5803
:101D2000FA4FE49149839883EA83DF91CF911F9121
:101D30000F91FF90EF90089588E090E00C94483266
:101D4000AB01BC0188E090E00C946632E6E6F3E07B
:101D500083E08083109267038FEF828383831482F2
:101D600060817181828193810C94A00E60916603E1
:101D700060FF06C066956F7370E080E090E00895A4
:101D800060E070E0CB01089580916A0390E00196D5
:101D90008430910514F083E090E080936A036091B1
:101DA00066037091670380916803909169030C94B6
:101DB000A00E80916A0390E0019797FF02C080E037
:101DC00090E08430910514F083E090E080936A0302
:101DD0006091660370916703809168039091690335
:101DE0000C94A00E8091660380FF06C06FE070E047
:101DF0008BE693E00C949C1480E090E0FC01E559A4
:101E0000FC4F11821082128204968C339105B1F737
:101E1000EDCF9091660390FF0FC020E030E0F90114
:101E2000E559FC4F8183608342832C5F3F4F2C3305
:101E30003105A9F70C94F20E0895CF93DF9300D0EB
:101E400000D0CDB7DEB72091660320FF0AC09E0107
:101E50002F5F3F4F0E94280E4B8169818A810E942B
:101E6000090F0F900F900F900F90DF91CF91089571
:101E70005F926F927F928F929F92AF92BF92CF921A
:101E8000DF92EF92FF920F931F93CF93DF9300D0D7
:101E900000D0CDB7DEB78C01E62EF42E522E809105
:101EA000660380FF89C0982F9E77923061F49E016F
:101EB0002F5F3F4FC8010E94280E4B8169818A81A4
:101EC0000E94090F59C0E82FE695EF739EE39E0F1D
:101ED0009F73943018F4F09069034EC09AE39E0FFC
:101EE0009F73993068F4881F8827881F9091670333
:101EF000292F220F022F082B97FB112710F93CC026
:101F000087E28E0F8F738A30B8F5F0E07997E0FDA5
:101F100002C021E001C02FEFEE7FE75AFA4F859112
:101F200094916FE070E00E94123226034001279FD7
:101F3000900C1124580188E9A81A8EEFB80A8BE694
:101F4000C82E83E0D82E98E6692E77247394C501B5
:101F5000B3010E94123296014F2D6E2D0E94280E61
:101F6000A80CB91C84E0C80ED11C87EAC81683E00F
:101F7000D80669F70E94F20E8091660300FB87F98C
:101F800080936603902F9695809167038078892BC4
:101F900010FB87F980936703E0926803F09269036E
:101FA000552051F06091660370916703809168033A
:101FB000909169030E94A00E0F900F900F900F90C8
:101FC000DF91CF911F910F91FF90EF90DF90CF9015
:101FD000BF90AF909F908F907F906F905F9008958B
:101FE00021E00C94380FE6E6F3E02081221F22273F
:101FF000221F30916703432F440F842F822B37FB1E
:10200000992790F90C9668E671E00E942632438188
:1020100062810C94F00F20916603221F2227221F59
:1020200030916703432F440F842F822B37FB99276E
:1020300090F98C3091051CF4845A9E4F01C00C9786
:1020400068E671E00E94263240916903609168035E
:102050000C94F00FE6E6F3E08081881F8827881F44
:1020600090916703292F220F97FB992790F94381BD
:102070006FEF822B0C94F00FE6E6F3E08081881F6F
:102080008827881F90916703292F220F97FB992794
:1020900090F9438160E0822B0C94F00F409169032A
:1020A000842F90E0843F910514F4445F01C04FEF0A
:1020B00080916603881F8827881F90916703292FC6
:1020C000220F97FB992790F960916803822B0C945B
:1020D000F00F40916903842F90E00C9714F04C505E
:1020E00001C040E080916603881F8827881F909177
:1020F0006703292F220F97FB992790F960916803B6
:10210000822B0C94F00F20E00C94380F9091660312
:1021100090FF46C09178811102C0926007C084325E
:1021200010F0966403C08F73880F982B909366030A
:10213000662351F060916603709167038091680394
:10214000909169030E94A00E80916603382F3E771C
:10215000323019F41092700212C0982F96959F7326
:102160002EE3290F2F73273110F0363421F491E03C
:102170009093700204C0995D9F739A3058F3881F42
:102180008827881F90916703292F220F97FB992793
:1021900090F94091690360916803822B0C9483103D
:1021A000089561E00C9486108091660386958F7384
:1021B0008F5F843208F081E00C94D1108091660327
:1021C00086958F73815009F483E20C94D110E6E672
:1021D000F3E080818160808386958F730C94D110A9
:1021E00060E00C9486108091340381608093340306
:1021F00081E0809371020E949921811104C00E94A4
:1022000078210E94A60E0E949C0E60936603709334
:10221000670380936803909369036E7761F40E946B
:10222000A60E0E949C0E60936603709367038093D2
:1022300068039093690381E0809370028091660344
:1022400080FF04C086958F730C94F0100895E6E625
:10225000F3E080818E7F80836081718182819381B0
:102260000E94A00E109270022FEF80E792E02150A2
:1022700080409040E1F700C000000C94F20E809185
:10228000660380FD0C9427110C94E710CF93C82FA0
:1022900080916E0290916F020E94BE22EC2FF0E0BE
:1022A000E159FA4FE491F0E08E179F0708F443C01C
:1022B0000E94B22290936F0280936E0260916D0231
:1022C00070E080E090E00E94133020E030E04FE7C3
:1022D00053E40E94362F2BED3FE049E450E40E9486
:1022E0003C310E94A9310E94B02F2BE43AE34EE228
:1022F0005FE30E94C92E20EF3BEF48ED52E40E94BD
:102300003C310E94E22F462F80916603881F882768
:10231000881F90916703292F220F97FB992790F927
:1023200060916803822B0E941D0F80916D0290E0E6
:10233000019680936D02CF910895CF93C82F80911D
:102340006B0290916C020E94BE22EC2FF0E0E459E7
:10235000FA4FE491F0E08E179F07E8F00E94B22256
:1023600090936C0280936B024091690360916803C3
:102370008091690290916A020E941D0F809169020A
:1023800090916A02019668E671E00E941232909381
:102390006A0280936902CF910895CF92DF92FF92F3
:1023A0000F931F93CF93DF93F82E80916702909144
:1023B00068020E94BE22EF2DE695F0E0E759FA4F41
:1023C000E491F0E08E179F07E8F10E94B22290930B
:1023D0006802809367020BE613E0C0E0D0E088E675
:1023E000C82EDD24D39480916502909166028C0FF3
:1023F0009D1FB6010E9412329801409169036091BD
:1024000068030E94280E68960C5F1F4FC83681E053
:10241000D80749F70E94F20E2091650230916602BA
:10242000F0FE0AC0C9010196BE010E9412329093CB
:1024300066028093650206C021503109309366021E
:1024400020936502DF91CF911F910F91FF90DF9054
:10245000CF900895AF92BF92CF92DF92EF92FF920A
:102460000F931F93CF93DF93C82F80FF02C01FEFFE
:1024700001C011E080916302909164020E94BE222B
:10248000C695EC2FF0E0EA59FA4FE491F0E08E1790
:102490009F0708F466C00E94B22290936402809362
:1024A00063022BE6C22E23E0D22E3DE6E32E33E07C
:1024B000F32EC0E0D0E0F70131971082F6011082D0
:1024C000F701108294E0A92EB12C00E08091620205
:1024D000800F87FD815F082E000C990BC817D90764
:1024E000E9F4809169038A9DA0018B9D500D112410
:1024F000559547955595479580916603881F882780
:10250000881F90916703592F550F97FB992790F9D2
:10251000960160916803852B0E94280E010FF1E05F
:10252000AF1AB10899F6219684E0C80ED11CE4E0F8
:10253000EE0EF11CCF30D10509F0BDCF0E94F20E96
:1025400080916202113031F4811102C08EE007C027
:10255000815005C090E00196BE010E942632809312
:102560006202DF91CF911F910F91FF90EF90DF906A
:10257000CF90BF90AF9008950F931F93CF93DF93A9
:10258000C82F80916002909161020E94BE22EC2FC0
:10259000F0E0ED59FA4FE491F0E08E179F0708F450
:1025A00064C00E94B222909361028093600280E036
:1025B00090E0FC01E559FC4F1182108212820496D2
:1025C0008C339105B1F7C0E0D0E00FE010E0CE0110
:1025D000B8010E942632FC0180915F02082E000C97
:1025E000990BEE0FFF1FEE0FFF1FC817D907FCF066
:1025F00080910201082E000C990B8C179D07BCF0EE
:102600009F0125593C4F80916603881F8827881FAA
:1026100090916703592F550F97FB992790F9409197
:10262000690360916803852B0E94280E05C0E55957
:10263000FC4F1182108212822196CF30D10539F6DB
:102640000E94F20E8091010190915F02980F909389
:102650005F0220910201280F20930201121614F448
:102660009E301CF0819580930101DF91CF911F91E5
:102670000F910895EF92FF920F931F93CF93DF93E3
:1026800080915D0290915E020E94BE22883E93403E
:10269000D0F10E94B22290935E0280935D02C091BD
:1026A0005B02D0915C022196C170DD27D0935C0261
:1026B000C0935B028BE6E82E83E0F82E10E008E77B
:1026C000812F8695FE01E80FF11DCF0181709927BA
:1026D00097014091690360916803FC010E9FC0015E
:1026E0000F9F900D11240E94280E1F5FF4E0EF0E43
:1026F000F11C1F3029F7DF91CF911F910F91FF90AF
:10270000EF900C94F20EDF91CF911F910F91FF90FB
:10271000EF900895CF93DF9300D000D0CDB7DEB710
:102720008091590290915A020E94BE22E7E5F5E09D
:102730002591349182179307C0F18091580281113D
:102740000CC09E012F5F3F4F4FEF6FEF80E090E096
:102750000E94280E8A81809358020E94B222909390
:102760005A028093590280915702813051F028F02B
:10277000823061F4409158020AC08091580240E0D2
:1027800007C06091580240E080E003C040E080E074
:1027900060E00E94090F8091570290E0019663E08B
:1027A00070E00E942632809357020F900F900F9096
:1027B0000F90DF91CF910895809170028823B9F135
:1027C00090916603892F86958F732EE3280F2F73C0
:1027D000243018F482500C9446112AE3280F2F73EA
:1027E000233018F486500C949D1127E3280F2F7383
:1027F000263018F489500C94CD1121E3280F2F7343
:10280000263018F48F500C942A122BE2280F2F73C5
:10281000233018F485510C94BC12892F8E778033A5
:1028200011F40C943A13863411F40C948A1308951D
:10283000882319F05198599A02C0519A5998509882
:10284000589A95E09A95F1F70000509A589895E0BB
:102850009A95F1F70000882311F0519A599885E074
:102860008A95F1F7000008958BB18C7F8BB9509851
:10287000589A5198599A85E08A95F1F70000089581
:102880008AB18C7F8AB985E08A95F1F70000519A68
:10289000599885E08A95F1F70000509A589885E09C
:1028A0008A95F1F7000008955098589A85E08A9526
:1028B000F1F700005198599A85E08A95F1F70000E8
:1028C0000895CF93DF93D82FC8E08D2F80780E9492
:1028D0001814DD0FC150C9F780E00E94181485E07C
:1028E0008A95F1F7000085E08A95F1F7000080E015
:1028F000DF91CF9108952BB1342F309523233BB135
:10290000432B3FB7F894FC01680F791FE617F707D0
:1029100089F0819198E04BB9000000C087FF2BB986
:10292000880F000000C000C000C02BB900C09A95FD
:1029300091F7ECCF3FBF0895AF92BF92CF92DF9255
:10294000EF92FF920F931F93CF93DF938C01EB01D4
:10295000CFB6D090BC00F8948091BC008B7F809360
:10296000BC000E9434140E94401484E80E94611448
:10297000CC0FDD1FCC0FDD1F78015801AC0EBD1E42
:10298000EA14FB0431F0F70181917F010E94611488
:10299000F7CF0E945414CFBED092BC00579A40E8A3
:1029A000BE01C801DF91CF911F910F91FF90EF9071
:1029B000DF90CF90BF90AF900C947B1490937702F0
:1029C000809376020895E0917602F0917702309735
:1029D00021F00190F081E02D099480E00895E091CC
:1029E0007602F0917702309721F00280F381E02D9A
:1029F00009940895E0917602F0917702309721F0E2
:102A00000480F581E02D099408952091740230919D
:102A100075028217930771F0909375028093740288
:102A2000E0917602F0917702309721F00680F781ED
:102A3000E02D09940895209172023091730282175B
:102A4000930771F09093730280937202E091760283
:102A5000F0917702309721F00084F185E02D099400
:102A6000089508950C94311581E008950E94A922DB
:102A70000E940D050E9440230C94F310CF92DF9228
:102A8000EF92FF920F931F93CF93DF93CDB7DEB7F3
:102A90002B970FB6F894DEBF0FBECDBF0E9479050D
:102AA0000E943415811111C08FEF89838A831B82A4
:102AB0000E94B2228160782F9D838C8349815A8144
:102AC0006B818D810E94221656C089E7C82E82E054
:102AD000D82E00E010E0E02E802F0E94E205F601E3
:102AE00041916F01F42EF82631F40F5F1F4F0E3025
:102AF000110589F7D9CF9091340391FF04C08B87DA
:102B00000E94E8058B8520E030E04F2D50E0922FA9
:102B1000BA01022E02C0759567950A94E2F760FF2C
:102B200024C02E83EF8221E030E0690102C0CC0C8A
:102B3000DD1C9A95E2F790E08C219D21892B09F408
:102B400020E028870E94B2228160782F9A878987A7
:102B50004E815F8168858A850E942216F801E758B8
:102B6000FD4F8081C826C08206C02F5F3F4F2630B0
:102B7000310569F6BACF0E94D324109178020E94E1
:102B8000E3141817A1F00E94E314809378022B96A7
:102B90000FB6F894DEBF0FBECDBFDF91CF911F916E
:102BA0000F91FF90EF90DF90CF900C94530A2B96EB
:102BB0000FB6F894DEBF0FBECDBFDF91CF911F914E
:102BC0000F91FF90EF90DF90CF900895DC01119668
:102BD0002C9111978C91682F70E041E050E001C07A
:102BE000440F8A95EAF712968C91129730E0882369
:102BF00029F0809197028823E9F006C0F901E9578E
:102C0000FD4F90819423B1F086E0829FF001839F75
:102C1000F00D1124E60FF71FEE0FFF1FEB5EFE4FC6
:102C2000808191818D939C93F901E957FD4F8081BB
:102C3000482B06C0F901E957FD4F40958081482394
:102C400040830895CF93DF93CDB7DEB72B970FB6B0
:102C5000F894DEBF0FBECDBF942F4F83252F58872A
:102C600069877A878B874A855B85452B21F02F3FC3
:102C700009F59F3FF9F4DE01119686E0FD011192FE
:102C80008A95E9F785E0FE01379601900D928A95C5
:102C9000E1F749815A816B817C818D819E810E94FF
:102CA000911D2B960FB6F894DEBF0FBECDBFDF91FE
:102CB000CF910895CE0107960E94E615DCCFFC0166
:102CC000808191810E945A2092959F70963041F4A4
:102CD0008091970291E089278093970290939602C2
:102CE0000895CF93DF931F92CDB7DEB7882309F401
:102CF00003C1682F8238C1F40E94E31481FDFCC037
:102D000069E380910301909104010E9411220E94C5
:102D1000B9202FEF81EE94E0215080409040E1F700
:102D200000C0000069E319C0833811F50E94E31464
:102D300080FDE2C063E580910301909104010E944F
:102D400011220E94B9202FEF81EE94E021508040A3
:102D50009040E1F700C0000063E58091030190918D
:102D600004010E941C220F90DF91CF910C94B92096
:102D70008438C1F40E94E31482FDBEC067E48091F0
:102D80000301909104010E9411220E94B9202FEFAB
:102D900081EE94E0215080409040E1F700C00000B7
:102DA00067E4DBCF8CEF860F813A70F4862F69835E
:102DB0000E94FC26698181119FC08091030190913E
:102DC00004010E941122CFCF80E2860F883048F4A0
:102DD000677081E001C0880F6A95EAF70E94EF20D2
:102DE000C2CF8BE5860F833088F4653A29F0663AC6
:102DF00031F083E890E005C081E890E002C082E80D
:102E000090E00F90DF91CF910C94051588E5860F27
:102E1000853108F071C0683A61F1693A69F16A3A3E
:102E200071F16B3A79F16C3A81F16B3B89F16C3B52
:102E300091F16D3A99F1603BA1F16E3AA9F16F3AC7
:102E4000B1F1613BB9F1623BC1F1633BC9F1643B54
:102E5000D1F1653BD9F1663BE1F1673BE9F1683BB4
:102E6000F1F1693BF9F16A3B09F43FC080E090E081
:102E70003EC082EE90E03BC089EE90E038C08AEE22
:102E800090E035C085EB90E032C086EB90E02FC03B
:102E900083EB90E02CC084EB90E029C087EB90E0BE
:102EA00026C08CEC90E023C08DEC90E020C083E83D
:102EB00091E01DC08AE891E01AC082E991E017C054
:102EC00084E991E014C081E292E011C083E292E0D3
:102ED0000EC084E292E00BC085E292E008C086E278
:102EE00092E005C087E292E002C08AE292E00F9091
:102EF000DF91CF910C941B150F90DF91CF91089526
:102F0000882309F45BC0682F823879F40E94E314A7
:102F100081FF54C069E380910301909104010E94F4
:102F200011220E94B92069E310C08338B1F40E94D5
:102F3000E31480FF43C063E5809103019091040195
:102F40000E9411220E94B92063E5809103019091B3
:102F500004010E941C220C94B920843879F40E9448
:102F6000E31482FF2BC067E4809103019091040178
:102F70000E9411220E94B92067E4E7CF8CEF860FF0
:102F8000813A18F380E2860F883048F4677081E058
:102F900001C0880F6A95EAF70E94F520DCCF8BE527
:102FA000860F833020F480E090E00C940515685A79
:102FB000653120F480E090E00C941B15089588237F
:102FC00021F00E94EF200C94B9200895882321F06D
:102FD0000E94F5200C94B92008958F929F92AF9291
:102FE000BF92DF92EF92FF920F931F93CF93DF93E5
:102FF0007C01D62FC72FFC01058102950F7012812D
:1030000011110E940C210E94B220882379F0112313
:1030100069F080E28D0F883048F082E00E949B20AA
:103020000E94B22091E0D82ED92601C0D12CAC2E1E
:10303000A2948FE0A822B12CF501E058FF4F0C9428
:103040003A328C2F807FCF70882311F0C295C07FD9
:10305000112399F0CC2309F4C8C180E28D0F883088
:1030600010F0D11104C08C2F0E94EF2003C08C2FD0
:103070000E94FF200E94B920B8C18D2F0E948017A6
:10308000CC2309F42EC280E28D0F883010F0D111CC
:1030900004C08C2F0E94F52003C08C2F0E940521B4
:1030A0000E94B9201EC28C2F807FCF70803211F019
:1030B000C295C07FDD2319F0D130C9F021C01123A2
:1030C00071F0002341F0013031F40E9425218C2B56
:1030D0000E941F2106C20E9425218C2B3FC1002384
:1030E00019F0013009F4FDC10E94222111C0112301
:1030F00021F0023008F0F5C107C00111F2C108C08B
:10310000112321F0011171C18C2F28C101117EC141
:103110008C2F2AC18C2F86958695837090E000971E
:1031200019F0019761F0DDC1112321F08D2F9C2F43
:10313000937002C080E090E00E940515E2C1112367
:1031400021F08D2F9C2F937002C080E090E00E94B0
:103150001B15D7C11123F9F0D53F51F0D63F71F0BF
:10316000D43FA9F48091A7039091A80381600BC07C
:103170008091A7039091A803826005C08091A70366
:103180009091A80384609093A8038093A7038D2F48
:103190000E94DB231EC0D53F51F0D63F71F0D43FD3
:1031A000A9F48091A7039091A8038E7F0BC0809112
:1031B000A7039091A8038D7F05C08091A7039091EC
:1031C000A8038B7F9093A8038093A7038D2F0E9461
:1031D00043240E94C82495C18C2F837009F050C0ED
:1031E00011118BC18D2F829586958770880F880F5E
:1031F0009D2F9F70892E912CA12CB12C082E04C0DC
:10320000880C991CAA1CBB1C0A94D2F7D4FF14C0CA
:103210000FE010E020E030E0B901A80104C0440F45
:10322000551F661F771F8A95D2F7CB01BA016095AB
:1032300070958095909503C060E070E0CB01C695D5
:10324000C695C370D0E0C230D10561F0C330D1055E
:1032500081F0682979298A299B29219771F00E9498
:10326000D41E4BC1682979298A299B290E94E61E10
:1032700044C10E94D41EC501B4010E94C21E3DC1BA
:10328000112319F08C2F817001C08695882309F4D1
:1032900034C18D2F829586958770880F880F9D2F5A
:1032A0009F70892E912CA12CB12C082E04C0880C63
:1032B000991CAA1CBB1C0A94D2F7D4FF14C00FE0BF
:1032C00010E020E030E0B901A80104C0440F551F10
:1032D000661F771F8A95D2F7CB01BA01609570956A
:1032E0008095909503C060E070E0CB01C695C695CF
:1032F000C3704C2F50E04230510569F04330510506
:1033000089F0682979298A299B294130510571F072
:103310000E94991FF2C0682979298A299B290E9455
:10332000AB1FEBC00E94991FC501B4010E94871F0B
:10333000E4C08D2F90E0FC01E05EF109E531F1057C
:1033400008F04FC0E057FF4F0C943A32DF708C2FDB
:103350008F71112331F00E94201F8D2F0E94DF17E3
:10336000C0C00E94411F8D2F0E94E617BAC01123D2
:1033700039F00111B6C08C2F8F710E94661FB1C049
:10338000023008F0AEC0F7CF112339F08C2F8F71C7
:103390000E94201FA6C01123C9F38C2F8F710E9499
:1033A000411F9FC0112329F08C2F8F710E940B1F8A
:1033B00098C00E94061F95C0112349F0CF718C2F31
:1033C0000E94201F63E08C2F0E9492208AC081E01F
:1033D0000E949B20023008F484C082E00E949B205F
:1033E00080C0112331F0002389F28D2F0E947116C5
:1033F00078C0002391F2D93349F45FEF67EE73E0B0
:10340000515060407040E1F700C000008D2F0E94D5
:10341000801767C04C2F4F706D2FC7010E94D806D0
:103420000E94351E6EC0D23FB1F028F4D03F49F063
:10343000D13FF9F028C0D43FB9F058F0D53F71F032
:1034400022C0112309F447C09091970281E0892797
:1034500008C081E01827109397023DC011113BC0AE
:1034600081E08093970237C0111135C01092970206
:1034700032C0112329F080919602882329F329C0B4
:10348000002311F328C0809196020023C1F0882305
:1034900041F09091970281E08927809397021092E2
:1034A00096028D2F112319F00E94711614C00E94EC
:1034B000801786E0F70111928A95E9F70CC08823FE
:1034C00051F0111108C09091970281E089278093F3
:1034D0009702109296024C2F4F706D2FC7010E94D9
:1034E000550AF8E0AF16B10441F05CF04AE0A41AC6
:1034F000B10852E0A516B10420F40E94E3140E9422
:10350000530ADD20E1F00E948E2080FD18C0F701F3
:1035100012820E9488200E94201FC7010E94AB1ABD
:103520000E948820DF91CF911F910F91FF90EF9023
:10353000DF90BF90AF909F908F900C94411FDF91D0
:10354000CF911F910F91FF90EF90DF90BF90AF90C0
:103550009F908F9008950F931F93CF93DF93EC016B
:10356000888199812B813C81232BB9F09F3F11F4F5
:103570008F3F99F0CE010E942907882371F068815E
:1035800079818A810E9465208C010E94BD1F0E9462
:10359000BF1EB801CE010E94ED17DF91CF911F91A0
:1035A0000F9108950E940C210E941C21809103011B
:1035B000909104010E9427220E94B9200E94612557
:1035C0000E94C82480E090E00E94051580E090E011
:1035D0000C941B150E94FC200C94D21A0E945A20B5
:1035E000E92FE295EF70F0E03297EE30F105B0F49C
:1035F000EB55FF4F0C943A32803F91F018F4803E27
:1036000068F40EC0843F51F40BC0803E48F0813F07
:1036100029F406C093FB882780F9089580E0089577
:1036200081E00895CF93DF9300D000D01F92CDB7F3
:10363000DEB70F900F900F900F900F90DF91CF910A
:103640000895CF93DF9300D000D000D0CDB7DEB780
:1036500026960FB6F894DEBF0FBECDBFDF91CF9197
:1036600008951F93CF93DF93C091980216E0809145
:103670009902C81799F0D0E01C9FF0011D9FF00D32
:103680001124E656FD4F408151816281738184810E
:1036900095810E94211B2196C770E9CFDF91CF91C0
:1036A0001F9108954091CA025091CB026091CC02C3
:1036B0007091CD028091CE029091CF020C94211B8B
:1036C0008091CF0282958F7009F054C08091CC0216
:1036D000882309F44FC080919802A09199026091CB
:1036E000CA027091CB024091CD025091CE02B6E059
:1036F0008A1709F43FC090E041155105C1F17F3FA1
:1037000011F46F3FA1F1B89FF001B99FF00D1124A2
:10371000E656FD4F218172132AC02081621327C013
:103720002281211124C0238134812417350710F40C
:1037300021503109241B350B283C3105C0F4209160
:10374000CF022F7020612093CF0226E0289FF00146
:10375000299FF00D1124E156FD4F80818F7080610B
:1037600080838AEC92E00E94AB1A0C94311B019684
:103770008770BECF0895CF92DF92EF92FF920F93A2
:103780001F93CF93DF93CDB7DEB762970FB6F89450
:10379000DEBF0FBECDBF8C0185E0F801DE011D96B6
:1037A00001900D928A95E1F7D8014C9111965C91A8
:1037B000119712966C9112971396CD90DC901497F6
:1037C0003091CA027091CB028091CD029091CE02CD
:1037D000009709F46BC17F3F19F43F3F09F466C1BC
:1037E000E090CC02EE2009F4C0C02091CF02C816B0
:1037F000D90628F0F601E81BF90BCF0104C080952B
:1038000090958C0D9D1DFF24F394883C910578F0D4
:10381000F12C207F09F0C6C07C2DD98AC88A8989FD
:103820000E94121B8AEC92E00E94AB1AB1C0822F58
:10383000807F09F046C0751314C0341312C06111A3
:1038400010C02F7020612093CF020E94521B8AEC7F
:1038500092E00E94AB1A8091CF02D80115968C930A
:103860002EC0CD2819F15F3F11F44F3FF9F0F62E2D
:1038700061111CC0809198022091990236E0821754
:1038800009F45AC090E0389FF001399FF00D1124DF
:10389000E656FD4F7181571306C07081471303C070
:1038A0007281711103C001968770E9CFF62E6623ED
:1038B00009F427C18091CF0281608093CF02F12C5F
:1038C00020C1751308C0341306C0611104C0809173
:1038D000CF02D801C3C04D875E878D859E856A8BD8
:1038E0000E94EE1A6A898823E1F16623D1F12091C2
:1038F000CF02822F82958F7090E0029774F08091B2
:10390000CA029091CB0298878F831986DB86CA867C
:103910002C87CE0107960E94AB1A86E0F801AAEC2C
:10392000B2E001900D928A95E1F70E94601B0E941F
:10393000521BFF24F394E5C04D875E878D859E85DD
:103940000E945A20292F22952F7030E02230310515
:103950000CF0CBC09F7009F0C5C0805E883008F4C1
:10396000D0C0C8010E94AB1AE4CFC816D90608F42B
:1039700053C0F601E81BF90BCF01883C910508F410
:1039800050C0F12C7C2DD98AC88A89890E94121BCB
:10399000EAECF2E086E0DF011D928A95E9F70E94E9
:1039A000521BAFC0751314C0341312C0611110C084
:1039B0008091CF02F8018583C8010E94AB1A86E08E
:1039C000EAECF2E0DF011D928A95E9F7FE2C99C03E
:1039D0004D875E878D859E856A8B0E94EE1A6A8967
:1039E000882309F4BECF662309F4BBCF2091CF0210
:1039F000822F82958F7090E002970CF48ECF809189
:103A0000CA029091CB029A8389831B82DD82CC8289
:103A10002E83CE0101967FCF809590958C0D9D1DB4
:103A2000ACCFF62E662309F49CCF75132EC0341349
:103A30002CC02091CF0220FD1FC0822F82958F7055
:103A4000D9F0D80115962C9315978F3049F08F5FD8
:103A5000982F9295907F822F8F70892B15968C933B
:103A6000C8010E94AB1A86E0F801AAECB2E001900E
:103A70000D928A95E1F793CF86E0F801AAECB2E0C7
:103A800001900D928A95E1F73CC04D875E878D8548
:103A90009E850E94EE1A811140CF8091CF028160F5
:103AA0008093CF02C8010E94AB1A2BC0662309F491
:103AB00058CF4D875E878D859E850E94EE1AF82E21
:103AC000882309F44ECF86E0F801AAECB2E0019019
:103AD0000D928A95E1F78AEC92E00E945F160E94AF
:103AE000601B5DCF811139CF0CC0243031050CF043
:103AF00038CF9F7009F431CFF8019581907F09F09C
:103B00002CCF8F2D62960FB6F894DEBF0FBECDBFBF
:103B1000DF91CF911F910F91FF90EF90DF90CF90A9
:103B200008951F93CF93DF93CDB7DEB72C970FB6D1
:103B3000F894DEBF0FBECDBF4F83588769877A8761
:103B40008B879C87CE0107960E94BB1B882369F058
:103B50008F8198852A853B85232BF1F19F3F09F0C2
:103B600063C08F3F09F060C037C086E0FE01379622
:103B7000DE01119601900D928A95E1F76F817885AB
:103B8000EA85FB85309741F17F3F11F46F3F21F1CA
:103B90002091990230E0C9010196877099274091E0
:103BA000980250E08417950709F447C069837A8327
:103BB000FD83EC8396E0929FD001939FB00D11247A
:103BC000A656BD4FFE01319601900D929A95E1F7F0
:103BD000809399020E94311B16E080919802909187
:103BE00099028917C1F1189FC001112486569D4F73
:103BF0000E94BB1B882379F1E09198021E9FF0017F
:103C00001124E656FD4F4081518162817381848188
:103C100095810E94211B8091980290E00196877007
:103C2000992780939802D9CF4F81588569857A85E5
:103C30008B859C850E94211BCFCF0E94EA1A10928F
:103C4000990210929802EAECF2E086E0DF011D9200
:103C50008A95E9F7C1CF2C960FB6F894DEBF0FBE58
:103C6000CDBFDF91CF911F910895EF92FF920F93F7
:103C70001F93CF93DF938C01892B09F46CC0F12C37
:103C8000EE24E394E8012196F8018491843740F40E
:103C9000843008F051C0813081F0823019F15BC06E
:103CA000853709F444C0A8F19CE7980F903708F0D5
:103CB00052C08F770E94801741C00E5F1F4FFE01D8
:103CC000C49180E28C0F883048F4C7708E2D01C0FB
:103CD000880FCA95EAF70E940F2114C08C2F0E940A
:103CE00071162DC00E5F1F4FFE01C49180E28C0F34
:103CF000883058F4C7708E2D01C0880FCA95EAF736
:103D00000E9415210E94B9201AC08C2F0E94801792
:103D100016C00E5F1F4FFE01C491CC2381F08FE9C6
:103D20009FE00197F1F700C00000C150F6CF0E5F91
:103D30001F4FFE01F49003C00E9471168E018F2D5B
:103D4000882309F49FCFEFE9FFE03197F1F700C036
:103D500000008150F5CFDF91CF911F910F91FF901F
:103D6000EF90089508950E94B21E60930B03709324
:103D70000C0380930D0390930E030C94D21A0895B4
:103D80000C94B31E0F931F9300910B0310910C031F
:103D900020910D0330910E03602B712B822B932BFE
:103DA0001F910F910C94B31E0F931F9300910B035F
:103DB00010910C0320910D0330910E0360237123A9
:103DC000822393231F910F910C94B31E0F931F9383
:103DD00000910B0310910C0320910D0330910E0301
:103DE00060277127822793271F910F910C94B31E90
:103DF0000C94E6060E94F81E609307037093080374
:103E00008093090390930A030C94D21A60E070E047
:103E1000CB010C94FA1E0F931F9341E050E060E039
:103E200070E08A019B0104C0000F111F221F331F85
:103E30008A95D2F7C901B8011F910F910C94FA1E0F
:103E40000F931F9341E050E060E070E004C0440F26
:103E5000551F661F771F8A95D2F7809107039091AF
:103E60000803A0910903B0910A038A019B01082B62
:103E7000192B2A2B3B2BC901B8011F910F910C94D0
:103E8000FA1E0F931F9341E050E060E070E004C021
:103E9000440F551F661F771F8A95D2F7409550959E
:103EA000609570958091070390910803A091090394
:103EB000B0910A038A019B01082319232A233B237B
:103EC000C901B8011F910F910C94FA1E0F931F9313
:103ED00041E050E060E070E004C0440F551F661FF1
:103EE000771F8A95D2F78091070390910803A091DC
:103EF0000903B0910A038A019B01082719272A2781
:103F00003B27C901B8011F910F910C94FA1E0F9322
:103F10001F9300910703109108032091090330912A
:103F20000A03602B712B822B932B1F910F910C9402
:103F3000FA1E0F931F93009107031091080320911D
:103F4000090330910A0360237123822393231F9175
:103F50000F910C94FA1E0F931F9300910703109179
:103F600008032091090330910A03602771278227F3
:103F700093271F910F910C94FA1E0895292F220F59
:103F8000920F990F890FA82FA695A695A6958770D1
:103F900051E001C0550F8A95EAF785E0A89FD0014E
:103FA000112420E030E070E0F901EA0FFB1FE0533C
:103FB000FD4F4081CB01022E02C0969587950A9451
:103FC000E2F7817099278195842785238427808350
:103FD0002F5F3F4F2530310539F70895292F220FE4
:103FE000920F990F890F682F669566956695982FA1
:103FF000977085E0689FB001112440E050E080E0B8
:10400000FA01E60FF71FE053FD4F208130E0092E43
:1040100002C0369527950A94E2F721703327042EC3
:1040200001C0220F0A94EAF7822B4F5F5F4F4530A1
:10403000510531F70895CF92DF92EF92FF920F93DF
:104040001F93CF93DF938C01C0900B03D0900C0390
:10405000E0900D03F0900E03809107039091080308
:10406000A0910903B0910A03C82AD92AEA2AFB2A97
:10407000CFE1D0E0D701C6010C2E04C0B695A795BC
:10408000979587950A94D2F780FF06C0B8018C2FC8
:104090000E94700A019721F4219760F780E001C027
:1040A0008C2FDF91CF911F910F91FF90EF90DF90B8
:1040B000CF900895CF93DF93EC010E941B20BE01A7
:1040C0000E94700ADF91CF9108951F93CF93DF93E1
:1040D000EB0190919502992321F0CB010E945A2087
:1040E00013C0882349F0CB010E941B20182F682F92
:1040F000CE010E94BE1F04C0CB010E94EE1F182FEC
:10410000BE01812F0E94700ADF91CF911F91089507
:1041100080910F03859585958595089580910F036E
:104120008770089598E0899F90011124262B209391
:104130000F030C94201F20910F03809582238093FE
:104140000F03982F977069F430E0482F082E000C69
:10415000550B2417350729F08595859585950C9481
:10416000411F089590910F03977081E009F480E05A
:104170000895E0910301F09104018091330380835D
:10418000E0910301F0910401908180913203892B29
:104190008083E0910301F0910401908180913103CB
:1041A000892B808380911003882381F0E0910301A3
:1041B000F09104019081892B80838091030190917B
:1041C00004010E94B5218111109210038091030116
:1041D000909104010C94EF14809133030895909111
:1041E0003303892B80933303089580959091330393
:1041F0008923809333030895109233030895909197
:104200003203892B80933203089580959091320375
:104210008923809332030895109232030895909178
:104220003103892B80933103089580959091310358
:104230008923809331030895109231030895809368
:1042400010030895109210030895809110030895AB
:10425000CF92DF92EF92FF926C01EE24FF24C11403
:10426000D104E104F10421F0C701B60120E101C04D
:1042700020E0C72ED82EE92EFF24C114D104E1047A
:10428000F10419F0285FC701B6016B017C0154E00D
:10429000F694E794D794C7945A95D1F7C114D104F2
:1042A000E104F10419F02C5FC701B6016B017C0138
:1042B00042E0F694E794D794C7944A95D1F7C11495
:1042C000D104E104F10419F02E5FC701B601DC014D
:1042D000CB01B695A79597958795892B8A2B8B2B24
:1042E00009F02F5F822FFF90EF90DF90CF9008951D
:1042F0006DEE7EEF80E090E00E94723260E082E03E
:1043000090E00E94543260E083E090E00E945432DA
:1043100060E084E090E00E94543260E085E090E04C
:104320000E94543240E050E0BA0188E090E00C94E2
:10433000663280E090E00E944E3221E08D3E9E4F3A
:1043400009F020E0822F089582E090E00C94403242
:1043500083E090E00C94403284E090E00C94403292
:10436000682F84E090E00C945432FC0131969C015B
:10437000205E3F4F80E0919191118F5FE217F3072C
:10438000D1F708959C01FC0132969FEF80E04191A6
:10439000461789F09F3F19F4411101C0982F8F5F94
:1043A0008E31A9F79F3F39F0F901E90FF11D97FD13
:1043B000FA95628308950895FC01329680962081D3
:1043C000261301C010823196E817F907C1F7089546
:1043D000262F2695269526952F3168F4FC01E20FAD
:1043E000F11D677021E030E001C0220F6A95EAF705
:1043F0008181282B21830895262F269526952695A1
:104400002F3170F4FC01E20FF11D677021E030E004
:1044100001C0220F6A95EAF7209581812823218324
:10442000089520911401222329F02091AD0327FD46
:104430000C94E8210C94C22120911401222329F02C
:104440002091AD0327FD0C94FC210C94DC21FC0190
:10445000319680961192E817F907E1F708950895CB
:104460000C942F228091B303843049F110923503CC
:1044700020E488E190E00FB6F894A895809360005E
:104480000FBE2093600080E00E94530A0E943022F9
:1044900083B7817F846083BF83B7816083BF789453
:1044A000889583B78E7F83BF0FB6F894A8958091C7
:1044B0006000886180936000109260000FBE0895D4
:1044C0000895CF930E942C050E9479050E946022D6
:1044D000C0E08C2F0E94E205811104C0CF5FCE3076
:1044E000C1F701C081E0CF91089508950C94752221
:1044F0000E94EA1A0E94E3140E94530A0C94762246
:104500001F920F920FB60F9211248F939F93AF9328
:10451000BF9380913503811113C08091A9039091BD
:10452000AA03A091AB03B091AC034196A11DB11DAC
:104530008093A9039093AA03A093AB03B093AC0319
:10454000BF91AF919F918F910F900FBE0F901F90D1
:10455000189582E084BD93E095BD9AEF97BD809356
:104560006E0008952FB7F8948091A9039091AA0343
:10457000A091AB03B091AC032FBF0895CF92DF920F
:10458000EF92FF920F931F932FB7F8944091A903D6
:104590005091AA036091AB037091AC032FBF6A01E5
:1045A0007B01EE24FF248C0120E030E0C016D10610
:1045B000E206F30610F4415051099A01281B390B09
:1045C000C9011F910F91FF90EF90DF90CF90089558
:1045D00078941F920F920FB60F9211248F939F938E
:1045E000AF93BF938091A9039091AA03A091AB03CD
:1045F000B091AC030196A11DB11D8093A9039093C6
:10460000AA03A093AB03B093AC03BF91AF919F916A
:104610008F910F900FBE0F901F901895F89481E026
:104620008093E00080E28093D800E9ECF0E0108213
:104630008FE19EE40197F1F700C000001DBA1092CF
:1046400068001CBC10BE1FBA10927A0010926E0057
:1046500010926F0010927100109272001082ECEBB9
:10466000F0E0108214B817B81AB81DB810BA10824A
:1046700015B818B81BB81EB811BA0C94003F0895AD
:104680000E949921811102C00E9478210E94A421D8
:10469000809334030E94AC2190E09093AE0380930A
:1046A000AD030E94A821682F70E080E090E00C9498
:1046B000C01E8091390380FF0BC06091080185E026
:1046C000689FB001112475956795759567952BC006
:1046D00081FF09C06091080185E0689FB001112445
:1046E0007595679520C082FF07C06091080185E03D
:1046F000689FB001112417C090913A039923D1F01B
:1047000060910701961788F72091080185E0289F9E
:1047100090011124929FA001939F500D112470E0ED
:10472000CA010E9426326038710540F46115710596
:1047300039F002C065E070E0862F08958FE7089594
:1047400081E008958091390380FF08C060910601DF
:1047500070E0759567957595679521C081FF06C0D6
:104760006091060170E07595679519C082FF04C0DD
:104770006091060170E010C090913A039923C1F056
:10478000609105019617A0F780910601899FC001ED
:10479000112470E00E9426326038710528F46115FA
:1047A000710521F0862F08958FE7089581E008951F
:1047B00061E070E0F4CF803F21F40E94592381959D
:1047C00004C0813F29F40E94592380933D0308953A
:1047D000823F21F40E945923819504C0833F29F42C
:1047E0000E94592380933C030895893F19F40E9445
:1047F000A22305C08A3F31F40E94A22381958093B1
:104800003E0308958B3F21F40E94A223819504C0AA
:104810008C3F29F40E94A22380933F030895843F94
:1048200021F480913B03816017C0853F21F4809182
:104830003B03826011C0863F21F480913B0384607A
:104840000BC0873F21F480913B03886005C0883FFF
:1048500031F480913B03806180933B0308958D3F49
:1048600021F48091390381600BC08E3F21F4809147
:104870003903826005C08F3F29F480913903846039
:10488000809339030895803F39F480913D0387FF79
:104890006CC010923D0369C0813F29F480913D03B3
:1048A0001816BCF362C090913C03823F29F497FF35
:1048B0005CC010923C0359C0833F19F41916CCF325
:1048C00054C0893F41F480913E0318160CF04DC04E
:1048D00010923E034AC08A3F29F480913E0387FF2D
:1048E00044C0F6CF8B3F39F480913F0387FF3DC032
:1048F00010923F033AC08C3F29F480913F03181671
:10490000BCF333C0843F21F480913B038E7F17C0FA
:10491000853F21F480913B038D7F11C0863F21F4B8
:1049200080913B038B7F0BC0873F21F480913B0339
:10493000877F05C0883F31F480913B038F7E809351
:104940003B0313C08D3F21F4809139038E7F0BC050
:104950008E3F21F4809139038D7F05C08F3F29F46C
:10496000809139038B7F8093390380913C038111BF
:104970000EC080913D0381110AC080913E038111D8
:1049800006C080913F03811102C010923A0308953E
:104990008BE393E00E94FA140E94B22290933703B3
:1049A0008093360308951F93CF93DF93809136034E
:1049B000909137030E94BE22AC0190913A03992353
:1049C00021F02091090130E006C0209138038AE0EF
:1049D000289F900111244217530708F46EC080915C
:1049E0003C03C0913D03D0913E0310913F038111E0
:1049F00007C0C1115EC0D1115CC011115AC05DC0A9
:104A00009F3F19F09F5F90933A03181624F40E9479
:104A1000592380933C0380913C0387FF05C00E948B
:104A20005923819580933C031C1624F40E9459233A
:104A300080933D0380913D0387FF05C00E94592369
:104A4000819580933D0340913C03442379F030915C
:104A50003D03332359F025EB4203A0011124509369
:104A60003C033203C001112490933D031D1624F42E
:104A70000E94A22380933E0380913E0387FF05C0DE
:104A80000E94A223819580933E03111624F40E9474
:104A9000A22380933F0380913F0387FF05C00E94BC
:104AA000A223819580933F03DF91CF911F910C94B6
:104AB000C8249F3F09F0A6CFAECFDF91CF911F91C1
:104AC0000895EBE3F3E085E0DF011D928A95E9F7B5
:104AD00010923A03109239030895833081F128F43B
:104AE000813059F08230D1F00895853009F449C001
:104AF000B8F1863009F456C0089580913803262F06
:104B000030E0280F311D2F3F310524F4680F6093EA
:104B1000380308958FEF8093380308958091090139
:104B2000262F30E0280F311D2F3F310524F4680F68
:104B30006093090108958FEF809309010895809192
:104B40000801262F30E0280F311D2F3F310524F4B6
:104B5000680F6093080108958FEF8093080108950E
:104B600080910701262F30E0280F311D2F3F31059E
:104B700024F4680F6093070108958FEF8093070175
:104B8000089580910601262F30E0280F311D2F3F18
:104B9000310524F4680F6093060108958FEF809328
:104BA0000601089580910501262F30E0280F311D60
:104BB0002F3F310524F4680F6093050108958FEFAE
:104BC000809305010895833011F128F4813049F074
:104BD000823091F00895853081F120F18630C1F165
:104BE000089580913803681720F4861B809338035A
:104BF000089510923803089580910901681720F4F0
:104C0000861B8093090108951092090108958091EF
:104C10000801681720F4861B8093080108951092FC
:104C20000801089580910701681720F4861B80937E
:104C300007010895109207010895809106016817F1
:104C400020F4861B809306010895109206010895B2
:104C500080910501681720F4861B80930501089553
:104C60001092050108950F931F93873208F04DC0ED
:104C70008E3108F093C0803109F47DC008F587308B
:104C800009F46BC068F4863009F0A3C08091340346
:104C9000817F8E7F8093340381E0809341039AC0AB
:104CA0008B3009F48FC08E3009F093C080913403AB
:104CB00082FB222720F991E0922790FB82F964C0C1
:104CC000863109F47FC088F4813109F082C00E94E6
:104CD000EA1A8091AD0387FB222720F991E0922701
:104CE00090FB87F98093AD036DC0893109F46AC0E8
:104CF0008B3109F06EC08091340381FB222720F9AB
:104D000091E0922790FB81F93FC0883309F45AC0A3
:104D100050F4893209F458C0853309F455C08732FC
:104D200009F452C056C0833409F44EC028F48A33C3
:104D300008F44FC0895333C0883409F04AC00E9438
:104D4000EA1A0FEF13ED20E3015010402040E1F785
:104D500000C000000E940E2335C080913403982FBC
:104D60009095917090FB80F98093340391112AC043
:104D7000897F877F10C08091340383FB222720F92D
:104D800091E0922790FB83F9809334039923D1F02B
:104D90008091340381608093340314C08D5141E0CD
:104DA00050E060E070E08A019B0104C0000F111F19
:104DB000221F331F8A95D2F7C901B8010E94C01E75
:104DC0000E94EA1A81E006C061E070E080E090E0B5
:104DD000F5CF80E01F910F91089580E0089580E065
:104DE00008958E518A3030F4E82FF0E0E354FE4FFE
:104DF0008081089580E00895CF93C82F809141036A
:104E0000813079F018F08230E9F185C0E09103013A
:104E1000F09104018081813169F0823209F07DC016
:104E200009C0E0910301F09104018081813111F00A
:104E3000823261F48C2F0E94ED26811104C08C2FE8
:104E40000E9433261DC081E090E01AC08C2F0E9482
:104E5000EF26811114C0C43179F048F4CB3079F0D9
:104E6000C03109F05EC082E08093410308C0C932BE
:104E700019F0C83321F055C01092410352C081E0AF
:104E8000817051C0C93279F108F5C43161F1A0F4E3
:104E9000C73009F044C01092380384E180930901BF
:104EA000C09308018CE38093070188E0809306019A
:104EB00088E28093050133C082EE8C0F863078F54E
:104EC0008C2F0E94F1268093400329C0CE34E9F054
:104ED00020F4CB3421F56AE013C0C13579F0C23536
:104EE000F1F461E00DC080914003882319F0109225
:104EF000400315C081E08093410315C061E006C006
:104F0000809140030E946D250AC06AE080914003B1
:104F10000E94E32504C01092410380E004C081E0B8
:104F200002C080E0ADCFCF910895809162030895D3
:104F30000F931F93CF93DF9300D01F92CDB7DEB7AF
:104F40008C010E94102A823011F0843019F593E010
:104F500099831B830A839093E9008FEF9091E80077
:104F6000815095FD06C095ED9A95F1F700008111ED
:104F7000F5CF8091E80085FF0DC040E050E063E090
:104F800070E0CE0101960E942D2A8091E8008E7774
:104F90008093E8000F900F900F90DF91CF911F91B9
:104FA0000F910895CF93DF9300D01F92CDB7DEB756
:104FB0002091B303243031F522E0298380589109F0
:104FC0009B838A8383E08093E9008FEF9091E800D0
:104FD000815095FD06C095ED9A95F1F7000081117D
:104FE000F5CF8091E80085FF0DC040E050E063E020
:104FF00070E0CE0101960E942D2A8091E8008E7704
:105000008093E8000F900F900F90DF91CF9108955B
:10501000CF93DF93EC010E94102A823011F084308C
:10502000F9F482E08093E9009FEF8091E8009150CD
:1050300085FD06C085ED8A95F1F700009111F5CF49
:105040008091E80085FF0CC040E050E065E070E032
:10505000CE010E942D2A8091E8008E778093E8008F
:10506000DF91CF910895CF93DF93EC010E94102A36
:10507000823019F0843009F047C0809114018823F0
:10508000E1F08091AD0387FF18C084E08093E900D0
:105090008FEF9091E800815095FD06C095E19A95BB
:1050A000F1F700008111F5CF8091E80085FF2CC059
:1050B00040E050E060E270E017C081E08093E900DA
:1050C0008FEF9091E800815095FD06C095ED9A957F
:1050D000F1F700008111F5CF8091E80085FF14C041
:1050E00040E050E068E070E0CE010E942D2A8091FF
:1050F000E8008E778093E80080E2FE01A2E4B3E04E
:1051000001900D928A95E1F7DF91CF9108958091FA
:10511000B203811109C00E94C22B0E941F2C8091F2
:10512000E20084608093E20008951092B203089533
:10513000089508950C94782242E061EC81E00E9489
:105140003C2B42E061EC82E00E943C2B42E061ECAF
:1051500083E00E943C2B42E261EC84E00C943C2B07
:105160008091B503833009F455C030F4813071F07B
:10517000823009F48EC008958A3009F47AC08B30E9
:1051800009F460C0893009F09CC020C08091B4034C
:10519000813A09F096C08091E800877F8093E8000B
:1051A0008091B8039091B903892B21F460E282E4E5
:1051B00093E003C060E080E090E070E00E94782A15
:1051C0008091E8008B778093E80008958091B40384
:1051D000813209F076C08091B8039091B9030097AD
:1051E00019F0039709F06DC08091E800877F8093E4
:1051F000E8008091E80082FD05C08091B303811131
:10520000F8CF5FC08091F100809362038091E80045
:105210008B7753C08091B403813A09F052C08091DA
:10522000B8039091B903892B09F04BC08091E80035
:10523000877F8093E8008091E80080FFFCCF809119
:10524000140136C08091B4038132D9F58091B8033E
:105250009091B903892BA9F58091E800877F80930D
:10526000E8000E94712B8091B603809314010C9486
:10527000EA1A8091B403813221F58091E800877F9A
:105280008093E8000E94712B8091B70380936303A1
:1052900008958091B403813AA1F48091E800877F5A
:1052A0008093E8008091E80080FFFCCF8091630349
:1052B0008093F1008091E8008E778093E8000C9451
:1052C000712B089584B7877F84BF0FB6F894A89593
:1052D00080916000886180936000109260000FBE32
:1052E00080E880936100109261000E9432150E9454
:1052F000C22B0E941F2C8091E20084608093E20008
:1053000078940E94AE2E0E9436158AE091E00E94A9
:10531000DE148091B303853069F40E9432228091BB
:10532000B1038823B1F30E946122882391F30E9484
:10533000172AEFCF0E943E150E94DC13EACF0C948F
:10534000A129292F332723303105C9F064F42130F6
:10535000310581F02230310509F049C08DE690E039
:105360002DEA36E048C02132310521F122323105E3
:1053700071F13DC082E190E02AE137E03CC099271D
:105380008130910571F02CF4892B89F5E9EAF6E07A
:105390000DC08230910541F0039749F5E3E7F6E04F
:1053A00005C0E1E9F6E002C0E9E7F6E0849190E0AB
:1053B0009F0121C064307105D0F4660F771FFB0197
:1053C000ED52FE4F2081318189E090E014C06430BD
:1053D000710568F4FB01EE0FFF1FE553FE4F2081BE
:1053E0003181FB01E953FE4F808190E004C080E0F1
:1053F00090E020E030E0FA013183208308950895A1
:10540000CF93C82F0E94FF29C0936403CF910895C2
:105410008091B303843011F081E0089582E0089513
:1054200080916403811102C00C94082A089580E1E0
:1054300089BD82E189BD09B400FEFDCF8091D8000D
:105440008F7D8093D8008091E00082608093E0009F
:105450008091E00081FDFCCF0895CF92DF92EF9222
:10546000FF920F931F93CF93DF93EC018B016A019F
:105470000E94902B811133C0C114D10439F0F60180
:1054800080819181081B190BC80FD91FE12CF12CC9
:105490000115110519F18091E80085FD16C0809174
:1054A000E8008E778093E800C114D10449F0F6013A
:1054B00080819181E80EF91EF182E08285E00FC0C3
:1054C0000E94902B882321F30AC089918093F100D8
:1054D00001501109FFEFEF1AFF0ADACF80E0DF91E8
:1054E000CF911F910F91FF90EF90DF90CF90089593
:1054F0002091BA033091BB032617370748F0611596
:10550000710539F42091E8002E772093E80001C05E
:10551000B90140E061157105A9F12091B30322237F
:1055200009F443C0253009F442C02091E80023FD6E
:1055300040C02091E80022FD32C02091E80020FF09
:10554000E9CF4091F3002091F20030E0342BFC01D0
:10555000CF016115710559F02830310540F4819172
:105560008093F100615071092F5F3F4FF1CF41E00F
:105570002830310509F040E02091E8002E77209393
:10558000E800C8CF4111C9CF0AC08091B303882376
:1055900061F0853061F08091E80083FD0AC0809160
:1055A000E80082FFF2CF80E0089582E0089583E072
:1055B000089581E008952091BA033091BB03261726
:1055C000370748F06115710539F42091E8002E770E
:1055D0002093E80001C0B901FC0120E061157105CC
:1055E00091F18091B303882309F440C0853009F418
:1055F0003FC08091E80083FD3DC08091E80082FDBE
:105600002FC08091E80080FFE9CF2091F3008091C6
:10561000F20090E0922B6115710559F088309105E8
:1056200040F424912093F100319661507109019664
:10563000F2CF21E0089709F020E08091E8008E7712
:105640008093E800CBCF2111CCCF0AC08091B30367
:10565000882361F0853061F08091E80083FD0AC005
:105660008091E80082FFF2CF80E0089582E0089503
:1056700083E0089581E00895982F973058F590932E
:10568000E900981739F07091EC002091ED005091ED
:10569000F00003C0242F762F50E021FF19C0309175
:1056A000EB003E7F3093EB003091ED003D7F309377
:1056B000ED003091EB0031603093EB007093EC0023
:1056C0002093ED005093F0002091EE0027FF07C0DB
:1056D0009F5FD3CF8F708093E90081E0089580E0D1
:1056E00008958091B40387FF11C08091E80082FD86
:1056F00005C08091B3038111F8CF11C08091E800FB
:105700008B770BC08091B303882349F08091E80028
:1057100080FFF8CF8091E8008E778093E8000895AD
:105720002091E4003091E50095E64091EC00842F53
:10573000817040FF22C08091E80080FD1CC08091F4
:10574000B303882391F0853091F08091EB0085FDC3
:1057500010C04091E4005091E5004217530729F32F
:105760009A01915011F784E0089582E0089583E052
:10577000089581E0089580E008954091E80042FF97
:10578000DECF08950E94302C0E94382CE0EEF0E02D
:10579000808181608083E8EDF0E080818F77808375
:1057A00019BCA7EDB0E08C918E7F8C9380818F7EA9
:1057B00080831092B20308950F931F93CF93DF93CA
:1057C0000E94302C0E94382CC8EDD0E088818F7761
:1057D000888388818068888388818F7D888319BCCD
:1057E0001092B3031092AF031092B1031092B00362
:1057F00000EE10E0F80180818B7F808388818160DA
:10580000888342E060E080E00E943C2BE1EEF0E023
:1058100080818E7F8083E2EEF0E0808181608083F2
:10582000808188608083F80180818E7F8083888179
:1058300080618883DF91CF911F910F910895E8EDEA
:10584000F0E080818F7E8083E7EDF0E080818160F1
:10585000808384E082BF81E08093B2030C94DC2BD0
:10586000E8EDF0E080818E7F80831092E200089561
:105870001092DA001092E10008951F920F920FB675
:105880000F9211242F933F934F935F936F937F93C6
:105890008F939F93AF93BF93EF93FF938091E1001A
:1058A00082FF0BC08091E20082FF07C08091E1007F
:1058B0008B7F8093E1000E94AD2E8091DA0080FF03
:1058C0001FC08091D80080FF1BC08091DA008E7FBE
:1058D0008093DA008091D90080FF0DC080E189BDFE
:1058E00082E189BD09B400FEFDCF81E08093B3035E
:1058F0000E94872805C019BC1092B3030E94952806
:105900008091E10080FF19C08091E20080FF15C006
:105910008091E2008E7F8093E2008091E2008061BE
:105920008093E2008091D80080628093D80019BCF7
:1059300085E08093B3030E9499288091E10084FF61
:1059400030C08091E20084FF2CC080E189BD82E1FB
:1059500089BD09B400FEFDCF8091D8008F7D809372
:10596000D8008091E1008F7E8093E1008091E20079
:105970008F7E8093E2008091E20081608093E2005C
:105980008091AF03882311F084E007C08091E30089
:1059900087FD02C081E001C083E08093B3030E94D1
:1059A0009A288091E10083FF29C08091E20083FF63
:1059B00025C08091E100877F8093E10082E08093A1
:1059C000B3031092AF038091E1008E7F8093E100DA
:1059D0008091E2008E7F8093E2008091E2008061FE
:1059E0008093E20042E060E080E00E943C2B8091E6
:1059F000F00088608093F0000E949828FF91EF915A
:105A0000BF91AF919F918F917F916F915F914F91D6
:105A10003F912F910F900FBE0F901F9018951F92DE
:105A20000F920FB60F9211242F933F934F935F93D2
:105A30006F937F938F939F93AF93BF93CF93DF9396
:105A4000EF93FF93C091E900CF708091EC00D82FC5
:105A5000D17080FDD0E81092E9008091F000877F3E
:105A60008093F00078940E94532D1092E900809169
:105A7000F00088608093F000CD2BCF70C093E900D8
:105A8000FF91EF91DF91CF91BF91AF919F918F9156
:105A90007F916F915F914F913F912F910F900FBE2A
:105AA0000F901F9018951F93CF93DF93CDB7DEB75C
:105AB000AA970FB6F894DEBF0FBECDBFE4EBF3E0BC
:105AC00088E08E0F9091F10091938E13FBCF0E948E
:105AD000B0288091E80083FF28C18091B4039091A1
