:100000000C9411040C942E040C942E040C942E04C5
:100010000C942E040C942E040C942E040C942E0498
:100020000C942E040C942E040C943A2C0C940C2D4D
:100030000C947D220C942E040C942E040C942E040B
:100040000C942E040C942E040C942E040C942E0468
:100050000C942E040C94E5220C942E040C942E0483
:100060000C942E040C942E040C942E040C942E0448
:100070000C942E040C942E040C942E040C942E0438
:100080000C942E040C942E040C942E040C942E0428
:100090000C942E040C942E040C942E040C942E0418
:1000A0000C942E040C942E040C942E04C004C3044F
:1000B000C604C904CC04CE04D104B206B506BB06FE
:1000C000BE06C106C406C706CA06CD06D006FD0692
:1000D00002070C07000705070A070807CC07CE0729
:1000E000D907D007D207D407D607D807DB07DD0723
:1000F000DF07EA07E107E307E507E707E907EC079A
:100100001E181E18501850188718A718101A6E1AA3
:10011000E9186E1A96199619071A6E1A6E1A681A45
:10012000A319A319A319A319A319A319A319A319EF
:10013000A319A319A319A319A319A319A319A319DF
:10014000B419C119C819CF19D919F91AF91A0B1B01
:100150000B1B021B0B1B0B1B0B1BF91AF91A071BA2
:100160000B1B0B1B071B792DA02D922EA02D922E61
:10017000EC2D0F2E922E652E742E07634236B79B00
:10018000D8A71A39685618AEBAAB558C1D3CB7CCF7
:100190005763BD6DEDFD753EF6177231BF0000006F
:1001A000803F05A84CCDB2D44EB93836A9020C50C8
:1001B000B9918688083CA6AAAA2ABE000000803F02
:1001C0006572676F646F785F657A2F666B6F6831F1
:1001D00031315F64656661756C74204020302E3665
:1001E0002E34382D32312D673835353563310025C1
:1001F0003E25003C2D00667265646572696B2E6851
:10020000616E73656E4064656E7473756165676970
:10021000732E636F6D00667265646572696B5F6BE8
:100220006F6B4069636C6F75642E636F6D0002E3E2
:10023000012C03E30002E06E03E00002E2013D0353
:10024000E20002E07403E00002E07703E00002E372
:10025000010F03E3000000F0A1DF5C2B004C00E184
:1002600000006100001E00140004001D00E45C4D4D
:10027000001F001A0016001B0000742A002000084E
:100280000007000600E7002C0021001500090019F6
:100290000000644A00220017000A00050000002F39
:1002A000005600010000000153000030002E02B78C
:1002B000000000B6000000E40023001C000B001149
:1002C0000000002900240018000D00100052004B0F
:1002D0000025000C000E00360051002800260012F8
:1002E000000F00370050002B0027001300330001DF
:1002F000004F004E002E002F0034002D003800006B
:1003000000DF5C2B004C00E100006100003A00E2DD
:100310005C04001D0001004D003B00E35CF2001B8B
:100320000000742A003C00F000F10006000068F4B0
:10033000003D00E15CF300190000644A003E00E06B
:100340005C0100010000002F00E75C0100000001DB
:100350000000003000E85CB7000000B600000001BB
:1003600000FD0001000100110000002900FE00E86E
:100370005CFB00A90052004B00FF00F900FA00AA44
:100380000051002800E65C1200FC00A8005000F5B7
:1003900000E55C3102380031004F004E002E003580
:1003A000003400025138000000010001000100018A
:1003B0000001000000E05C010001000100010001FB
:1003C00000E25C01000100010001002A003C000184
:1003D000000100010001002C003D000100010001AE
:1003E00000006401003E0001000100010000002F38
:1003F00000E45C0100000001000000300001000189
:100400000000000100000001003F000100010001A8
:10041000000000290040000100010001000100016E
:100420000041000100010001000100010042000143
:100430000001000100010001004300010001000172
:10044000000100010044004500010001000100001E
:100450000000000000000000002A2B28000000001F
:100460000000000000000000000000002900000063
:10047000002C1E3420212224342627252E362D3709
:1004800038271E1F202122232425263333362E37DA
:10049000381F0405060708090A0B0C0D0E0F101172
:1004A00012131415161718191A1B1C1D2F3130237F
:1004B0002D350405060708090A0B0C0D0E0F101147
:1004C00012131415161718191A1B1C1D2F3130354D
:1004D0004C000000000000000000000000000000D0
:1004E000000000000000000000000000000000000C
:1004F00000000101010101010001010101000000F2
:1005000000000000000000000000000100010001E8
:1005100001010101010101010101010101010101CB
:1005200001010101010101010101010100000001BE
:1005300001000000000000000000000000000000BA
:1005400000000000000000000000000001010101A7
:100550000000046801F000B40078005A007F3F1FDB
:10056000643214643214783C1E1E140A0500000024
:100570000000010101010101010101020202020268
:10058000020202020303030303030303040404043B
:100590000404050505050506060606060707070700
:1005A000080808080909090A0A0A0A0B0B0B0C0CAF
:1005B0000C0D0D0D0E0E0F0F0F1010111111121248
:1005C00013131414151516161717181819191A1AC3
:1005D0001B1C1C1D1D1E1F1F202021222223242521
:1005E0002526272728292A2B2B2C2D2E2F2F30315B
:1005F0003233343536363738393A3B3C3D3E3F406E
:1006000041424344464748494A4B4C4D4F50515252
:1006100053555657585A5B5C5E5F60626364666709
:10062000696A6C6D6E707173747678797B7C7E808C
:1006300081838486888A8B8D8F91929496989A9BD9
:100640009D9FA1A3A5A7A9ABADAFB1B3B5B7B9BBEA
:10065000BDBFC1C4C6C8CACCCFD1D3D6D8DADCDFBF
:10066000E1E4E6E8EBEDF0F2F5F7FAFCFF04033025
:1006700000000016034500720067006F0044006F21
:10068000007800200045005A000000160345007263
:100690000067006F0044006F007800200045005A9A
:1006A0000000000403090409026D00040100A0FA1F
:1006B00009040000010301010009211101000122C8
:1006C00040000705810308000A0904010001030135
:1006D0000200092111010001224D000705820308D3
:1006E000000A0904020001030000000921110100B1
:1006F000012236000705830308000A0904030001EC
:1007000003000000092111010001223900070584BE
:10071000032000011201100100000008EDFE071384
:1007200001000102030105010906A101050719E005
:1007300029E71500250195087501810205081901B1
:10074000290595057501910295017503910105072C
:10075000190029F71500250195F875018102C005DA
:10076000010980A10185021601002603001A8100FB
:100770002A8300751095018100C0050C0901A101B3
:100780008503160100269C021A01002A9C0275109E
:1007900095018100C005010902A1010901A100051F
:1007A0000919012905150025019505750181029595
:1007B00001750381010501093009311581257F95F6
:1007C000027508810609381581257F950175088114
:1007D00006050C0A38021581257F950175088106EA
:1007E000C0C005010906A101050719E029E71500A8
:1007F000250195087501810295017508810105089B
:10080000190129059505750191029501750391015D
:100810000507190029FF150026FF009506750881B8
:1008200000C011241FBECFEFDAE0DEBFCDBF11E064
:10083000A0E0B1E0EEE0F5E602C005900D92AC3D1F
:10084000B107D9F723E0ACEDB1E001C01D92AC3B9C
:10085000B207E1F70E945F290C9485320C940000E6
:100860001092B9008AE08093B800089594EA9093BA
:10087000BC009091BC0097FFFCCF9091B900987F8D
:10088000983021F0903111F081E008958093BB0001
:1008900084E88093BC008091BC0087FFFCCF8091EE
:1008A000B900887F883111F0803471F780E00895B5
:1008B00084E98093BC008091BC0084FDFCCF089546
:1008C0008093BB0084E88093BC008091BC0087FFCC
:1008D000FCCF9091B900987F81E0983209F480E0D4
:1008E000089584E88093BC008091BC0087FFFCCF12
:1008F0008091BB00089580B38C7080BB81B3836FFF
:1009000081BB089584B1807F84B985B1807F85B92A
:100910008AB1837F8AB98BB1837F8BB93E98469821
:100920000895CF93E82F873008F580910001811159
:100930003AC0CE2F80E40E943604809300018111DA
:1009400012C082E10E9460048093000181110BC0FB
:1009500081E090E001C0880FCA95EAF780950E9477
:10096000600480930001CF910C94580490E0FC0146
:100970003797E730F105B8F4EA5AFF4F0C94373255
:10098000209A289810C0219A29980DC0229A2A9856
:100990000AC0239A2B9807C0529A01C0539A5B98B9
:1009A00002C03E9A4698CF910895CF93873018F5AC
:1009B00080910001811128C080E40E943604809358
:1009C0000001882311F0C0E012C083E10E9460049E
:1009D000809300018111F7CF81E40E943604809357
:1009E00000018111F0CF0E947104C82FC0950E94B0
:1009F00058048C2F0AC09FB18FB1807F8695869551
:100A00009370892B809501C080E0CF91089508955F
:100A10000C9407050E945406809300010E948204F2
:100A20000E947B042DED31E0E1E3F2E04EE04E0F59
:100A3000119280E090E0D901A80FB91F1C92019695
:100A400086309105C1F72A5F3F4F4E13F1CF0C94CA
:100A50003B0A0E945406809300010E9482040E9477
:100A60007B04E1E3F2E08EE08E0F11928E13FDCF56
:100A7000089526E0829FC0011124FC01E352FE4F3D
:100A800020E030E080E041E050E09081992319F0CF
:100A90009150908307C0BA01022E01C0660F0A94DC
:100AA000EAF7862B2F5F3F4F31962630310569F7E5
:100AB000089596E0699FB001112420E030E090E0B5
:100AC0004FE0FC01022E02C0F595E7950A94E2F78B
:100AD000E0FF06C0F901E60FF71FE352FE4F408327
:100AE0002F5F3F4F2630310561F70895CF92DF9297
:100AF000EF92FF920F931F93CF93DF9380910001AA
:100B0000882379F08091DC018F5F8093DC01811173
:100B100008C00E94540680930001811102C00E9407
:100B2000E60581E3C82E82E0D82E98E3E92E92E014
:100B3000F92EC0E08C2F0E94910407E00C0F802F4B
:100B40000E9491048C2F0E943905182F8C2F0E942F
:100B5000D504F6019081D12FD095D9238123D82BAC
:100B60006C2F8D2F89270E945905F601D1936F01B3
:100B7000802F0E943905182F802F0E94D504F7017D
:100B80009081D12FD095D9238123D82B602F8D2F01
:100B900089270E945905F701D1937F010E948204A1
:100BA000CF5FC73039F60E943D0A81E0DF91CF91D7
:100BB0001F910F91FF90EF90DF90CF900895E82F55
:100BC000F0E0EF5CFD4F80810895089556985E989F
:100BD00025982D9826982E9827982F988FEF90E09B
:100BE000909389008093880090938B0080938A0073
:100BF00090938D0080938C00259A2D9A2FEF80E79B
:100C000092E0215080409040E1F700C00000269A19
:100C10002E9A2FEF80E792E0215080409040E1F73C
:100C200000C00000279A2F9A2FEF80E792E0215012
:100C300080409040E1F700C0000025982D982FEFEC
:100C400080E792E0215080409040E1F700C0000032
:100C500026982E982FEF80E792E021508040904018
:100C6000E1F700C0000027982F9856985E982598C5
:100C70002D9826982E9827982F98089589EA809382
:100C8000800089E08093810024982C983F988AB155
:100C90008F7C8AB96E98479A8BB180638BB9769AAC
:100CA0000E94E6050C94E20680E2809300018091A8
:100CB0003F0281110EC00E94300481E080933F0208
:100CC0002FEF83ED90E3215080409040E1F700C08A
:100CD000000080E40E9436048093000181112EC040
:100CE0000E94600480930001811128C00E9460046A
:100CF00080930001811122C08FE30E9460048093E1
:100D0000000181111BC00E94580480E40E94360437
:100D100080930001811112C08CE00E9460048093D6
:100D2000000181110BC00E946004809300018111B9
:100D300005C08FE30E946004809300010E94580464
:100D4000809100010895FC01DB0112968C918823AB
:100D500051F1EF5DFC45EA30F10530F5E35AFF4F04
:100D60000C9437328EE492E002C088E492E00E9454
:100D7000380A80E0089582E492E0F9CF8BE392E0B4
:100D8000F6CF85E392E0F3CF8EE292E0F0CF86E1FA
:100D900092E0EDCF86EF91E0EACF83EF91E0E7CFED
:100DA0008FEE91E0E4CF81E00895611108C0FC016D
:100DB0008281882321F080EC91E00E94380A80E053
:100DC00090E008950895CF92DF92EF92FF926B0129
:100DD0007C010E94252156985E9825982D9826988A
:100DE0002E9827982F9890E0FC013197E730F10575
:100DF000A8F4E959FF4F0C943732259A2D9A0EC06A
:100E0000259A2D9A269A2E9A09C0259A2D9A04C0C1
:100E1000259A2D9A269A2E9A279A2F9AC701B601BB
:100E2000FF90EF90DF90CF90089581E008950C94AB
:100E3000A3060E94E71A2FEF84E39CE02150804034
:100E40009040E1F700C000000C940B23FF920F9339
:100E50001F93CF93DF938C01FC01C081D1818091DE
:100E60009502811113C08281882349F0CE010E942E
:100E70001820F82E682FCE010E94BB1F04C0CE019F
:100E80000E94EB1FF82EBE018F2D04C0CE010E94E0
:100E90001820BE010E94530AEC01B8010E941707F6
:100EA000882309F485C2B801CE010E94BD0C8823B5
:100EB00009F47EC2B801CE010E940C0D882309F40A
:100EC00077C2C93CFCE5DF0741F4F8018281882341
:100ED00009F46EC20E94C10E6BC2CA3C8CE5D807F1
:100EE00008F013C1C13C9CE5D90761F4F801828187
:100EF000882309F45DC20E94E9208272F1F00E9409
:100F0000DB1056C2C23CECE5DE07D0F0F80182816E
:100F1000C53CFCE5DF0709F4CDC008F0DDC0C33CEB
:100F2000ECE5DE0709F4CCC008F0D0C0882309F452
:100F30003FC20E94E920827211F30E94D11038C290
:100F4000C531FCE5DF0708F07EC0C2308CE5D8076C
:100F500008F452C0F8018281882309F459C00E9424
:100F60009621811102C00E9475210E94A92190E062
:100F70009093AE038093AD03FE01E350FC45E23154
:100F8000F10530F4E259FF4F8091AD030C943732F4
:100F90008091AD03816027C0826025C0846023C03A
:100FA000806121C080621FC080641DC080681BC03A
:100FB0008460886018C08E7F16C08D7F14C08B7FC0
:100FC00012C08F7E10C08F7D0EC08F7B0CC08F77BC
:100FD0000AC08B7F877F07C087FB222720F991E01B
:100FE000922790FB87F98093AD038091AD030E9417
:100FF000AD210E94E71ADCC1C1159CE5D90781F03B
:10100000C130DC45A9F081E080934502809346021F
:10101000C801DF91CF911F910F91FF900C9415079C
:10102000F8018281882309F4C3C10E941907C0C155
:10103000F8018281882309F4BBC180913403816067
:1010400080933403B5C1C531FCE5DF0739F50E9453
:10105000E920282FF8018281409103015091040179
:10106000882379F02A7A91E009F490E09093400285
:10107000911102C069E201C065E3CA010E940E221B
:101080000AC080914002811102C069E201C065E39B
:10109000CA010E9419220E94B6208AC1C03CDC45C8
:1010A00009F0B1CFF8018281882309F481C10E943F
:1010B0003C117EC1882309F47BC10E94271078C1AE
:1010C000882309F475C10E94F00F72C1882309F4C6
:1010D0006FC10E9408106CC1C73C9CE5D90731F470
:1010E000882309F465C10E944B1062C1C83CDC45ED
:1010F00030F4882309F45CC10E94391059C1882357
:1011000009F456C10E94661053C1C13DFCE5DF07DA
:1011100049F4F8018281882309F44AC188E10E94D8
:10112000CE1046C1C23D8CE5D80708F087C0F80153
:101130008281CD3CFCE5DF07A1F4882309F438C1A6
:101140000E94B30E663071058105910540F00E9442
:10115000B30E683071058105910508F4EECE86E086
:10116000DECFCE3C9CE5D90730F5CB3CECE5DE0785
:1011700029F4882309F41CC181E0D1CFCC3CDC45A3
:1011800030F4882309F414C10E94D60E11C18823BB
:1011900009F40EC10E94B30E6230710581059105FC
:1011A00040F00E94B30E653071058105910508F489
:1011B000C4CE82E0B4CFCF3C9CE5D907A1F488230C
:1011C00009F4F6C00E94B30E6F30710581059105D8
:1011D00040F00E94B30E643171058105910508F459
:1011E000ACCE8FE09CCFC03DDC45A0F4882309F451
:1011F000DFC00E94B30E693071058105910540F092
:101200000E94B30E6E3071058105910508F495CEEC
:1012100089E085CF882309F4CBC00E94B30E6531E5
:1012200071058105910540F00E94B30E673171058B
:101230008105910508F481CE85E171CFC53DFCE5BE
:10124000DF0781F5F8018281882361F01092460260
:101250000E94AF22909344028093430280E20E9456
:10126000DC17A6C00E94E92081FF05C081E08093C1
:101270004502809346028091460281110FC0809101
:101280004302909144020E94BB22883C910530F4B5
:1012900087E20E946E1687E20E947D1780E20E941C
:1012A000E31786C0C63D8CE5D80708F04CC0F801AE
:1012B0008281C33DFCE5DF0729F4882309F478C067
:1012C00083E22DCFC43DDC45A0F4882309F470C02F
:1012D0000E94B30E693171058105910540F00E94AD
:1012E000B30E623271058105910508F426CE89E1BD
:1012F00016CF882351F0109245020E94AF2290939E
:1013000042028093410282E0AACF0E94E92085FF39
:1013100005C081E08093450280934602809145029A
:1013200081110FC080914102909142020E94BB2224
:10133000883C910530F486E20E946E1686E20E9497
:101340007D1782E0ACCFC93DECE5DE0731F4F80152
:101350008281882369F180E009C0CA3DFCE5DF078E
:1013600041F4F8018281882319F182E00E94FD296D
:101370001FC0C63DDC4509F046CEF80182818111CF
:1013800065CF80914602811189CF8091430290916F
:1013900044020E94BB22883C910508F07FCF80E286
:1013A0000E94E31788E20E946E1688E20E947D1771
:1013B00080E0DF91CF911F910F91FF900895CF931F
:1013C000282F30E0F901EF5AFB4FC491F901EF5299
:1013D000FB4F2491222359F081EE0E946E168C2F30
:1013E0000E946E168C2F0E947D1781EE04C08C2FF8
:1013F0000E946E168C2FCF910C947D170F931F9324
:10140000CF93DF93EC01062FFE018491882359F1DD
:101410009E012F5F3F4F813041F4E901F9011491A2
:10142000812F0E946E16812F0DC0823031F4E901A8
:10143000F90184910E946E160AC0833031F4E901EB
:10144000F90184910E947D1702C00E94DF09219654
:10145000802F8823C9F2EFE9FFE03197F1F700C050
:1014600000008150F6CFDF91CF911F910F91089529
:1014700060E00C94FE090C943E060C940805282F9D
:101480002F7041F0822F90E02A3010F44D9608958D
:101490000697089587E290E0089508950C944D0A08
:1014A0000C944E0A089596E0799FF001112494E57A
:1014B000899FE00DF11D1124E60FF11DEE0FFF1FB6
:1014C000E75AFD4F859194910895880F991FFC016B
:1014D000EB5AFD4F859194910895CF93DF930E942D
:1014E000530A0E941C0CEC01811520E59207F0F5CF
:1014F000811530E4930708F021C1883E910500F57D
:10150000803E910508F094C1883A910570F4853ABF
:10151000910508F0A3C08130910509F489C108F450
:1015200040C1049708F084C13CC18D3B910508F48B
:10153000A0C0803C910508F434C1805C9109F0C0E2
:101540008115904258F4C11581E0D80708F070C1A8
:10155000C03FD10508F425C1D0656AC1C11590E32B
:10156000D90708F0E1C0CE019F70DAC0811525E5EA
:10157000920708F043C0811534E5930708F0F5C0E1
:10158000811542E5940708F5C11581E5D80708F0F3
:10159000D8C02C2F237081E090E002C0880F991FE3
:1015A0002A95E2F79C689E0174E0369527957A9516
:1015B000E1F72370922BCF70C695C69540E2C49F89
:1015C000E0011124C82BD92B33C1869586959E0145
:1015D00023703327C115D34508F0B8C040E2849F7B
:1015E000C0011124C1E0D0E002C0CC0FDD1F2A955C
:1015F000E2F78C2B9D2BEC01DC681AC181152AE5E2
:10160000920798F4811539E5930708F0B9C0811560
:10161000964508F4AFC0C11588E5D80708F4C1C0E5
:10162000DC2FCC27C06FD06A03C1C1159BE5D90759
:1016300008F4B7C0C1152CE5D20708F4AFC0CE013D
:1016400090568115904208F0ACC08D2F8F710E948A
:10165000990CDD27D0628F71D82BEAC0853A9105AD
:1016600009F4A2C0863A910509F0A1C0C2E8D0E40D
:10167000DFC0883A910509F49DC0893A910509F4C3
:101680009CC08A3A910509F49BC08B3A910509F4F4
:101690009AC08C3A910509F499C08B3B910509F4E5
:1016A00098C08C3B910509F497C08D3A910509F4D7
:1016B00096C0803B910509F495C08E3A910509F4D6
:1016C00094C08F3A910509F493C0813B910509F4C8
:1016D00092C0823B910509F491C0833B910509F4C6
:1016E00090C0843B910509F48FC0853B910509F4B6
:1016F0008EC0863B910509F48DC0873B910509F4A6
:101700008CC0883B910509F48BC0893B910509F495
:101710008AC08A3B910509F489C0C0E0D4E488C03E
:101720000E94650AEC0184C0CE019927D3FF03C053
:10173000EC01D86C7DC0EC01D06C7AC0DF70D06A4F
:1017400077C0DC2FCC27C16FD06A72C040E2849F83
:10175000C0011124C1E0D0E002C0CC0FDD1F2A95EA
:10176000E2F7C82BD92BDA6863C0D82FCC27C46F17
:10177000D06A5EC0CF71DD27DC2FCC27D06258C085
:101780008F70806E90E0906A24E0D695C7952A9578
:10179000E1F7CF709C013C2BE9014AC0DD27D06600
:1017A00047C0C0E0D0E044C0C1E8D0E441C0C3E8D5
:1017B000D0E43EC0C2EED4E43BC0C9EED4E438C0AD
:1017C000CAEED4E435C0C5EBD4E432C0C6EBD4E4F1
:1017D0002FC0C3EBD4E42CC0C4EBD4E429C0C7EBC6
:1017E000D4E426C0CCECD4E423C0CDECD4E420C0B7
:1017F000C3E8D5E41DC0CAE8D5E41AC0C2E9D5E4FF
:1018000017C0C4E9D5E414C0C1E2D6E411C0C3E2F4
:10181000D6E40EC0C4E2D6E40BC0C5E2D6E408C0EC
:10182000C6E2D6E405C0C7E2D6E402C0CAE2D6E406
:10183000CE01DF91CF9108958238910549F1B0F43E
:101840008133910509F458C048F48932910509F4AF
:101850004EC08A32910509F454C00895853391052C
:1018600009F440C08933910599F00895833E9105AC
:1018700029F138F4803E910591F0823E9105A1F066
:101880000895863E9105F9F0873E910531F108955E
:101890002091AD0320FD3AC021FD38C0089580910C
:1018A000AD0380FD35C032C08091AD0382FF32C0F0
:1018B0008091AD0384FD30C083EE39C08091AD03CB
:1018C00082FD28C0F5CF8091AD0383FF27C08091B2
:1018D000AD0384FD21C087EE2AC08091AD0383FD56
:1018E0001DC0F5CF8091AD0385FD1AC01BC080914E
:1018F000AD0385FD17C014C08091AD0386FD14C0F3
:1019000015C08091AD0386FD11C00EC080EE0FC0E2
:1019100089E30DC082EE0BC080E009C086EE07C0EF
:1019200089E205C085E303C08AE201C081E390E05B
:1019300008959091AD0392FF0DC0282F2871283093
:1019400019F4877F846006C0282F2471243011F495
:101950008B7F886093FF0DC0282F2871283119F4E0
:10196000877E846106C0282F2471243111F48B7E78
:10197000886194FD877E089508950F931F93CF93F8
:10198000FB012281211102C0C1E041C08C01C09144
:101990005402C11125C086319C45B1F70E94BC0C90
:1019A00081E0809354020E94AF229093530280936F
:1019B000520210924702109249021092480210926D
:1019C0004B0210924A0210924D0210924C02109259
:1019D0004F0210924E02109251021092500217C004
:1019E00080915202909153020E94BB228C3291400E
:1019F00058F690914702E92FF0E0EE0FFF1FE85BE9
:101A0000FD4F118300839F5F90934702C0E08C2FAE
:101A1000CF911F910F910895CF93DF93813020E8EC
:101A20009207D0F0FB0122812223B1F0EC018091DA
:101A30005502811109C08CE090E00E943D320E9465
:101A4000300D81E0809355020E94370DCE019F77C3
:101A50000E94FF0D0E94B30D81E0DF91CF910895A8
:101A600080935602682F8CE090E00C945132E09104
:101A70000301F091040180818093650381FF03C01D
:101A800081EE0E947D178091650385FF03C085EE7E
:101A90000E947D178091650380FF03C080EE0E9445
:101AA0007D178091650384FF03C084EE0E947D173B
:101AB0008091650382FF03C082EE0E947D178091B2
:101AC000650386FF03C086EE0E947D178091650343
:101AD00083FF03C083EE0E947D178091650387FF1B
:101AE00003C087EE0E947D1780915602823001F17B
:101AF000A8F48823C9F0813079F580EE0E946E1633
:101B000081EE0E946E1688E10E946E1688E10E94A6
:101B10007D1781EE0E947D1780EE1CC0843081F01D
:101B20008530D1F486EE01C082EE0E946E1614C09C
:101B300082EE0E946E1687E50E946E1687E50AC047
:101B400086EE0E946E1686EE0E947D1788E10E9446
:101B50006E1688E10E947D178FE39CE90197F1F7EB
:101B600000C00000089580915602813049F030F0A5
:101B7000823021F0853051F486EE06C082EE04C03A
:101B80008CE20E946E168CE20E947D1780916503A4
:101B900081FF03C081EE0E946E168091650385FF70
:101BA00003C085EE0E946E168091650380FF03C01E
:101BB00080EE0E946E168091650384FF03C084EE60
:101BC0000E946E168091650382FF03C082EE0E9420
:101BD0006E168091650386FF03C086EE0E946E1626
:101BE0008091650383FF03C083EE0E946E1680918F
:101BF000650387FF03C087EE0C946E160895EF927D
:101C0000FF921F93CF93DF937C01CCE0D0E097014C
:101C10000C2E02C0369527950A94E2F7122F1F70FA
:101C2000812F0E943F0A0E946E16812F0E943F0A58
:101C30000E947D172497CC3F8FEFD80741F7DF91A3
:101C4000CF911F91FF90EF900895EF92FF920F9325
:101C50001F93CF93DF93E901662309F44BC0242F30
:101C600030E0EFEFF0E0E61BF109B901E69F9001EB
:101C7000E79F300DF69F300D1124232F8B01031B9E
:101C800011095CE3E52EF12CB7010E940F32FB0134
:101C9000BC01069FC001079F900D169F900D112457
:101CA000B7010E940F32E230F105B1F040F43097F5
:101CB00079F0319711F5832F242F461B21C0E43092
:101CC000F105A1F068F03597C1F4842F861B18C088
:101CD000832F262F230F14C0862F830FE42F03C0DA
:101CE000E42FE61B842F432F2E2F0AC0842F462F6C
:101CF000430F06C0842F242F03C080E020E040E083
:101D0000E42FF0E0E359FA4F4491E22FF0E0E35979
:101D1000FA4F9491E82FF0E0E359FA4FE4914983A8
:101D20009883EA83DF91CF911F910F91FF90EF90FD
:101D3000089588E090E00C944532AB01BC0188E046
:101D400090E00C946332E6E6F3E083E08083109247
:101D500067038FEF82838383148260817181828124
:101D600093810C949D0E6091660360FF06C066959A
:101D70006F7370E080E090E0089560E070E0CB0168
:101D8000089580916A0390E001968430910514F0E3
:101D900083E090E080936A0360916603709167032B
:101DA00080916803909169030C949D0E80916A0361
:101DB00090E0019797FF02C080E090E084309105A9
:101DC00014F083E090E080936A0360916603709161
:101DD000670380916803909169030C949D0E809134
:101DE000660380FF06C06FE070E08BE693E00C9422
:101DF000991480E090E0FC01E559FC4F11821082BB
:101E0000128204968C339105B1F7EDCF9091660361
:101E100090FF0FC020E030E0F901E559FC4F8183CD
:101E2000608342832C5F3F4F2C333105A9F70C941C
:101E3000EF0E0895CF93DF9300D000D0CDB7DEB77B
:101E40002091660320FF0AC09E012F5F3F4F0E9432
:101E5000250E4B8169818A810E94060F0F900F9099
:101E60000F900F90DF91CF9108955F926F927F92C4
:101E70008F929F92AF92BF92CF92DF92EF92FF929A
:101E80000F931F93CF93DF9300D000D0CDB7DEB771
:101E90008C01E62EF42E522E8091660380FF89C0BD
:101EA000982F9E77923061F49E012F5F3F4FC801BB
:101EB0000E94250E4B8169818A810E94060F59C0BC
:101EC000E82FE695EF739EE39E0F9F73943018F40E
:101ED000F09069034EC09AE39E0F9F73993068F4A7
:101EE000881F8827881F90916703292F220F022FB0
:101EF000082B97FB112710F93CC087E28E0F8F73D8
:101F00008A30B8F5F0E07997E0FD02C021E001C029
:101F10002FEFEE7FED5AFA4F859194916FE070E0CC
:101F20000E940F3226034001279F900C1124580174
:101F300088E9A81A8EEFB80A8BE6C82E83E0D82E5F
:101F400098E6692E77247394C501B3010E940F327D
:101F500096014F2D6E2D0E94250EA80CB91C84E011
:101F6000C80ED11C87EAC81683E0D80669F70E941C
:101F7000EF0E8091660300FB87F980936603902F34
:101F80009695809167038078892B10FB87F9809361
:101F90006703E0926803F0926903552051F0609165
:101FA00066037091670380916803909169030E94B2
:101FB0009D0E0F900F900F900F90DF91CF911F917A
:101FC0000F91FF90EF90DF90CF90BF90AF909F90D8
:101FD0008F907F906F905F90089521E00C94350F63
:101FE000E6E6F3E02081221F2227221F30916703BB
:101FF000432F440F842F822B37FB992790F90C969F
:1020000068E671E00E942332438162810C94ED0FF7
:1020100020916603221F2227221F30916703432F3E
:10202000440F842F822B37FB992790F98C30910530
:102030001CF4845A9E4F01C00C9768E671E00E9420
:10204000233240916903609168030C94ED0FE6E63A
:10205000F3E08081881F8827881F90916703292FCC
:10206000220F97FB992790F943816FEF822B0C94F5
:10207000ED0FE6E6F3E08081881F8827881F9091A6
:102080006703292F220F97FB992790F9438160E07E
:10209000822B0C94ED0F40916903842F90E0843FD4
:1020A000910514F4445F01C04FEF80916603881FCF
:1020B0008827881F90916703292F220F97FB992764
:1020C00090F960916803822B0C94ED0F40916903A5
:1020D000842F90E00C9714F04C5001C040E08091A8
:1020E0006603881F8827881F90916703292F220F76
:1020F00097FB992790F960916803822B0C94ED0F60
:1021000020E00C94350F9091660390FF46C09178C3
:10211000811102C0926007C0843210F0966403C03F
:102120008F73880F982B90936603662351F060910C
:1021300066037091670380916803909169030E9420
:102140009D0E80916603382F3E77323019F410923D
:10215000700212C0982F96959F732EE3290F2F734C
:10216000273110F0363421F491E09093700204C0CE
:10217000995D9F739A3058F3881F8827881F909124
:102180006703292F220F97FB992790F94091690344
:1021900060916803822B0C948010089561E00C9488
:1021A00083108091660386958F738F5F843208F069
:1021B00081E00C94CE108091660386958F738150D8
:1021C00009F483E20C94CE10E6E6F3E080818160AE
:1021D000808386958F730C94CE1060E00C948310EE
:1021E0008091340381608093340381E08093710295
:1021F0000E949621811104C00E9475210E94A30EA5
:102200000E94990E6093660370936703809368033E
:10221000909369036E7761F40E94A30E0E94990E59
:1022200060936603709367038093680390936903D8
:1022300081E0809370028091660380FF04C08695E0
:102240008F730C94ED100895E6E6F3E080818E7FA5
:10225000808360817181828193810E949D0E1092A2
:1022600070022FEF80E792E0215080409040E1F72C
:1022700000C000000C94EF0E8091660380FD0C946A
:1022800024110C94E410CF93C82F80916E0290918A
:102290006F020E94BB22EC2FF0E0E759FA4FE49165
:1022A000F0E08E179F0708F443C00E94AF2290937E
:1022B0006F0280936E0260916D0270E080E090E0AA
:1022C0000E94103020E030E04FE753E40E94332FAB
:1022D0002BED3FE049E450E40E9439310E94A631E1
:1022E0000E94AD2F2BE43AE34EE25FE30E94C62E3C
:1022F00020EF3BEF48ED52E40E9439310E94DF2F7E
:10230000462F80916603881F8827881F9091670356
:10231000292F220F97FB992790F960916803822B50
:102320000E941A0F80916D0290E0019680936D02D9
:10233000CF910895CF93C82F80916B0290916C023A
:102340000E94BB22EC2FF0E0EA59FA4FE491F0E052
:102350008E179F07E8F00E94AF2290936C02809343
:102360006B024091690360916803809169029091CA
:102370006A020E941A0F8091690290916A02019686
:1023800068E671E00E940F3290936A0280936902BE
:10239000CF910895CF92DF92FF920F931F93CF9327
:1023A000DF93F82E80916702909168020E94BB2211
:1023B000EF2DE695F0E0ED59FA4FE491F0E08E173D
:1023C0009F07E8F10E94AF22909368028093670212
:1023D0000BE613E0C0E0D0E088E6C82EDD24D394FD
:1023E00080916502909166028C0F9D1FB6010E943C
:1023F0000F32980140916903609168030E94250E95
:1024000068960C5F1F4FC83681E0D80749F70E94D5
:10241000EF0E2091650230916602F0FE0AC0C901FC
:102420000196BE010E940F3290936602809365026E
:1024300006C0215031093093660220936502DF9176
:10244000CF911F910F91FF90DF90CF900895AF92A1
:10245000BF92CF92DF92EF92FF920F931F93CF9391
:10246000DF93C82F80FF02C01FEF01C011E08091F1
:102470006302909164020E94BB22C695EC2FF0E0AB
:10248000E05AFA4FE491F0E08E179F0708F466C017
:102490000E94AF2290936402809363022BE6C22EC7
:1024A00023E0D22E3DE6E32E33E0F32EC0E0D0E071
:1024B000F70131971082F6011082F701108294E043
:1024C000A92EB12C00E080916202800F87FD815F10
:1024D000082E000C990BC817D907E9F480916903FD
:1024E0008A9DA0018B9D500D1124559547955595BA
:1024F000479580916603881F8827881F90916703FE
:10250000592F550F97FB992790F996016091680311
:10251000852B0E94250E010FF1E0AF1AB10899F644
:10252000219684E0C80ED11CE4E0EE0EF11CCF3001
:10253000D10509F0BDCF0E94EF0E809162021130EB
:1025400031F4811102C08EE007C0815005C090E0D7
:102550000196BE010E94233280936202DF91CF91E7
:102560001F910F91FF90EF90DF90CF90BF90AF90B1
:1025700008950F931F93CF93DF93C82F809160022C
:10258000909161020E94BB22EC2FF0E0E35AFA4FD7
:10259000E491F0E08E179F0708F464C00E94AF2218
:1025A000909361028093600280E090E0FC01E55925
:1025B000FC4F11821082128204968C339105B1F780
:1025C000C0E0D0E00FE010E0CE01B8010E9423325D
:1025D000FC0180915F02082E000C990BEE0FFF1F8B
:1025E000EE0FFF1FC817D907FCF080910201082EDB
:1025F000000C990B8C179D07BCF09F0125593C4F8F
:1026000080916603881F8827881F90916703592F40
:10261000550F97FB992790F94091690360916803E2
:10262000852B0E94250E05C0E559FC4F11821082B2
:1026300012822196CF30D10539F60E94EF0E80919B
:10264000010190915F02980F90935F022091020127
:10265000280F20930201121614F49E301CF081956D
:1026600080930101DF91CF911F910F910895EF9217
:10267000FF920F931F93CF93DF9380915D02909110
:102680005E020E94BB22883E9340D0F10E94AF229E
:1026900090935E0280935D02C0915B02D0915C02D8
:1026A0002196C170DD27D0935C02C0935B028BE65C
:1026B000E82E83E0F82E10E008E7812F8695FE01D2
:1026C000E80FF11DCF0181709927970140916903AF
:1026D00060916803FC010E9FC0010F9F900D1124B3
:1026E0000E94250E1F5FF4E0EF0EF11C1F3029F74A
:1026F000DF91CF911F910F91FF90EF900C94EF0E0F
:10270000DF91CF911F910F91FF90EF900895CF939C
:10271000DF9300D000D0CDB7DEB780915902909101
:102720005A020E94BB22E1E5F5E02591349182171F
:102730009307C0F18091580281110CC09E012F5F58
:102740003F4F4FEF6FEF80E090E00E94250E8A81AF
:10275000809358020E94AF2290935A0280935902AC
:1027600080915702813051F028F0823061F440911D
:1027700058020AC08091580240E007C06091580298
:1027800040E080E003C040E080E060E00E94060F8F
:102790008091570290E0019663E070E00E9423323E
:1027A000809357020F900F900F900F90DF91CF9171
:1027B0000895809170028823B9F190916603892F62
:1027C00086958F732EE3280F2F73243018F48250D0
:1027D0000C9443112AE3280F2F73233018F48650EA
:1027E0000C949A1127E3280F2F73263018F4895080
:1027F0000C94CA1121E3280F2F73263018F48F5040
:102800000C9427122BE2280F2F73233018F48551D4
:102810000C94B912892F8E77803311F40C943713EE
:10282000863411F40C9487130895882319F0519875
:10283000599A02C0519A59985098589A95E09A9589
:10284000F1F70000509A589895E09A95F1F700003A
:10285000882311F0519A599885E08A95F1F7000084
:1028600008958BB18C7F8BB95098589A5198599A8A
:1028700085E08A95F1F7000008958AB18C7F8AB9C6
:1028800085E08A95F1F70000519A599885E08A957C
:10289000F1F70000509A589885E08A95F1F700000A
:1028A00008955098589A85E08A95F1F7000051985C
:1028B000599A85E08A95F1F700000895CF93DF9348
:1028C000D82FC8E08D2F80780E941514DD0FC150DD
:1028D000C9F780E00E94151485E08A95F1F70000A1
:1028E00085E08A95F1F7000080E0DF91CF910895AF
:1028F0002BB1342F309523233BB1432B3FB7F894B2
:10290000FC01680F791FE617F70789F0819198E0BD
:102910004BB9000000C087FF2BB9880F000000C032
:1029200000C000C02BB900C09A9591F7ECCF3FBF13
:102930000895AF92BF92CF92DF92EF92FF920F93E2
:102940001F93CF93DF938C01EB01CFB6D090BC00E7
:10295000F8948091BC008B7F8093BC000E9431145E
:102960000E943D1484E80E945E14CC0FDD1FCC0F42
:10297000DD1F78015801AC0EBD1EEA14FB0431F0D6
:10298000F70181917F010E945E14F7CF0E945114DC
:10299000CFBED092BC00579A40E8BE01C801DF917B
:1029A000CF911F910F91FF90EF90DF90CF90BF904C
:1029B000AF900C94781490937702809376020895E8
:1029C000E0917602F0917702309721F00190F0814A
:1029D000E02D099480E00895E0917602F09177026D
:1029E000309721F00280F381E02D09940895E09161
:1029F0007602F0917702309721F00480F581E02D86
:102A000009940895209174023091750282179307FA
:102A100071F09093750280937402E0917602F091C8
:102A20007702309721F00680F781E02D0994089510
:102A300020917202309173028217930771F0909384
:102A4000730280937202E0917602F09177023097E0
:102A500021F00084F185E02D0994089508950C94E7
:102A60002E1581E008950E94A6220E940A050E9468
:102A70003D230C94F010CF92DF92EF92FF920F93D0
:102A80001F93CF93DF93CDB7DEB72B970FB6F89494
:102A9000DEBF0FBECDBF0E9476050E9431158111A9
:102AA00011C08FEF89838A831B820E94AF228160CD
:102AB000782F9D838C8349815A816B818D810E94FF
:102AC0001F1656C089E7C82E82E0D82E00E010E01D
:102AD000E02E802F0E94DF05F60141916F01F42E58
:102AE000F82631F40F5F1F4F0E30110589F7D9CF4B
:102AF0009091340391FF04C08B870E94E5058B857C
:102B000020E030E04F2D50E0922FBA01022E02C09B
:102B1000759567950A94E2F760FF24C02E83EF82D3
:102B200021E030E0690102C0CC0CDD1C9A95E2F78F
:102B300090E08C219D21892B09F420E028870E94B8
:102B4000AF228160782F9A8789874E815F8168855F
:102B50008A850E941F16F801E758FD4F8081C8261C
:102B6000C08206C02F5F3F4F2630310569F6BACFCD
:102B70000E94D024109178020E94E0141817A1F04E
:102B80000E94E014809378022B960FB6F894DEBF73
:102B90000FBECDBFDF91CF911F910F91FF90EF90AE
:102BA000DF90CF900C94500A2B960FB6F894DEBFAE
:102BB0000FBECDBFDF91CF911F910F91FF90EF908E
:102BC000DF90CF900895DC0111962C9111978C9194
:102BD000682F70E041E050E001C0440F8A95EAF7A9
:102BE00012968C91129730E0882329F080919702F9
:102BF0008823E9F006C0F901E957FD4F908194233D
:102C0000B1F086E0829FF001839FF00D1124E60F62
:102C1000F71FEE0FFF1FEB5EFE4F808191818D93BA
:102C20009C93F901E957FD4F8081482B06C0F901BB
:102C3000E957FD4F40958081482340830895CF9305
:102C4000DF93CDB7DEB72B970FB6F894DEBF0FBE7C
:102C5000CDBF942F4F83252F588769877A878B871D
:102C60004A855B85452B21F02F3F09F59F3FF9F4FD
:102C7000DE01119686E0FD0111928A95E9F785E063
:102C8000FE01379601900D928A95E1F749815A81AC
:102C90006B817C818D819E810E948E1D2B960FB64B
:102CA000F894DEBF0FBECDBFDF91CF910895CE0166
:102CB00007960E94E315DCCFFC01808191810E9480
:102CC000572092959F70963041F48091970291E041
:102CD000892780939702909396020895CF93DF936C
:102CE0001F92CDB7DEB7882309F403C1682F82385D
:102CF000C1F40E94E01481FDFCC069E380910301EE
:102D0000909104010E940E220E94B6202FEF81EEC6
:102D100094E0215080409040E1F700C0000069E35A
:102D200019C0833811F50E94E01480FDE2C063E50C
:102D300080910301909104010E940E220E94B6200E
:102D40002FEF81EE94E0215080409040E1F700C0E9
:102D5000000063E580910301909104010E94192213
:102D60000F90DF91CF910C94B6208438C1F40E946B
:102D7000E01482FDBEC067E48091030190910401DC
:102D80000E940E220E94B6202FEF81EE94E0215087
:102D900080409040E1F700C0000067E4DBCF8CEF9B
:102DA000860F813A70F4862F69830E94F926698123
:102DB00081119FC080910301909104010E940E2215
:102DC000CFCF80E2860F883048F4677081E001C081
:102DD000880F6A95EAF70E94EC20C2CF8BE5860F38
:102DE000833088F4653A29F0663A31F083E890E060
:102DF00005C081E890E002C082E890E00F90DF918A
:102E0000CF910C94021588E5860F853108F071C0CA
:102E1000683A61F1693A69F16A3A71F16B3A79F1AC
:102E20006C3A81F16B3B89F16C3B91F16D3A99F110
:102E3000603BA1F16E3AA9F16F3AB1F1613BB9F192
:102E4000623BC1F1633BC9F1643BD1F1653BD9F110
:102E5000663BE1F1673BE9F1683BF1F1693BF9F170
:102E60006A3B09F43FC080E090E03EC082EE90E013
:102E70003BC089EE90E038C08AEE90E035C085EB2B
:102E800090E032C086EB90E02FC083EB90E02CC046
:102E900084EB90E029C087EB90E026C08CEC90E0BA
:102EA00023C08DEC90E020C083E891E01DC08AE84B
:102EB00091E01AC082E991E017C084E991E014C062
:102EC00081E292E011C083E292E00EC084E292E0DF
:102ED0000BC085E292E008C086E292E005C087E27E
:102EE00092E002C08AE292E00F90DF91CF910C94C1
:102EF00018150F90DF91CF910895882309F45BC0D6
:102F0000682F823879F40E94E01481FF54C069E38D
:102F100080910301909104010E940E220E94B6202C
:102F200069E310C08338B1F40E94E01480FF43C00D
:102F300063E580910301909104010E940E220E949A
:102F4000B62063E580910301909104010E9419224B
:102F50000C94B620843879F40E94E01482FF2BC0D0
:102F600067E480910301909104010E940E220E9467
:102F7000B62067E4E7CF8CEF860F813A18F380E242
:102F8000860F883048F4677081E001C0880F6A9529
:102F9000EAF70E94F220DCCF8BE5860F833020F425
:102FA00080E090E00C940215685A653120F480E0CE
:102FB00090E00C9418150895882321F00E94EC20CD
:102FC0000C94B6200895882321F00E94F2200C94DE
:102FD000B62008958F929F92AF92BF92DF92EF92A8
:102FE000FF920F931F93CF93DF937C01D62FC72FB0
:102FF000FC01058102950F70128111110E940921B7
:103000000E94AF20882379F0112369F080E28D0FB0
:10301000883048F082E00E9498200E94AF2091E022
:10302000D82ED92601C0D12CAC2EA2948FE0A82294
:10303000B12CF501E058FF4F0C9437328C2F807F74
:10304000CF70882311F0C295C07F112399F0CC2353
:1030500009F4C8C180E28D0F883010F0D11104C08E
:103060008C2F0E94EC2003C08C2F0E94FC200E9419
:10307000B620B8C18D2F0E947D17CC2309F42EC233
:1030800080E28D0F883010F0D11104C08C2F0E9487
:10309000F22003C08C2F0E9402210E94B6201EC283
:1030A0008C2F807FCF70803211F0C295C07FDD23DE
:1030B00019F0D130C9F021C0112371F0002341F083
:1030C000013031F40E9422218C2B0E941C2106C267
:1030D0000E9422218C2B3FC1002319F0013009F4FA
:1030E000FDC10E941F2111C0112321F0023008F000
:1030F000F5C107C00111F2C108C0112321F001116F
:1031000071C18C2F28C101117EC18C2F2AC18C2F37
:1031100086958695837090E0009719F0019761F08D
:10312000DDC1112321F08D2F9C2F937002C080E010
:1031300090E00E940215E2C1112321F08D2F9C2FF7
:10314000937002C080E090E00E941815D7C111234F
:10315000F9F0D53F51F0D63F71F0D43FA9F48091FA
:10316000A7039091A80381600BC08091A703909161
:10317000A803826005C08091A7039091A803846092
:103180009093A8038093A7038D2F0E94D8231EC07D
:10319000D53F51F0D63F71F0D43FA9F48091A703F9
:1031A0009091A8038E7F0BC08091A7039091A803F4
:1031B0008D7F05C08091A7039091A8038B7F90938A
:1031C000A8038093A7038D2F0E9440240E94C5244A
:1031D00095C18C2F837009F050C011118BC18D2FB8
:1031E000829586958770880F880F9D2F9F70892EF6
:1031F000912CA12CB12C082E04C0880C991CAA1C5F
:10320000BB1C0A94D2F7D4FF14C00FE010E020E0FA
:1032100030E0B901A80104C0440F551F661F771F95
:103220008A95D2F7CB01BA016095709580959095FB
:1032300003C060E070E0CB01C695C695C370D0E0D6
:10324000C230D10561F0C330D10581F068297929F8
:103250008A299B29219771F00E94D11E4BC16829B0
:1032600079298A299B290E94E31E44C10E94D11E0C
:10327000C501B4010E94BF1E3DC1112319F08C2F5E
:10328000817001C08695882309F434C18D2F829501
:1032900086958770880F880F9D2F9F70892E912C9F
:1032A000A12CB12C082E04C0880C991CAA1CBB1C94
:1032B0000A94D2F7D4FF14C00FE010E020E030E011
:1032C000B901A80104C0440F551F661F771F8A95D6
:1032D000D2F7CB01BA01609570958095909503C0A7
:1032E00060E070E0CB01C695C695C3704C2F50E0EE
:1032F0004230510569F04330510589F06829792938
:103300008A299B294130510571F00E94961FF2C015
:10331000682979298A299B290E94A81FEBC00E944D
:10332000961FC501B4010E94841FE4C08D2F90E058
:10333000FC01E05EF109E531F10508F04FC0E0570E
:10334000FF4F0C943732DF708C2F8F71112331F0C7
:103350000E941D1F8D2F0E94DC17C0C00E943E1FBF
:103360008D2F0E94E317BAC0112339F00111B6C0A6
:103370008C2F8F710E94631FB1C0023008F0AEC065
:10338000F7CF112339F08C2F8F710E941D1FA6C01B
:103390001123C9F38C2F8F710E943E1F9FC01123F0
:1033A00029F08C2F8F710E94081F98C00E94031F64
:1033B00095C0112349F0CF718C2F0E941D1F63E02F
:1033C0008C2F0E948F208AC081E00E9498200230BA
:1033D00008F484C082E00E94982080C0112331F05C
:1033E000002389F28D2F0E946E1678C0002391F27F
:1033F000D93349F45FEF67EE73E05150604070409D
:10340000E1F700C000008D2F0E947D1767C04C2F90
:103410004F706D2FC7010E94D5060E94321E6EC0EC
:10342000D23FB1F028F4D03F49F0D13FF9F028C0A5
:10343000D43FB9F058F0D53F71F022C0112309F400
:1034400047C09091970281E0892708C081E0182742
:10345000109397023DC011113BC081E08093970209
:1034600037C0111135C01092970232C0112329F0D4
:1034700080919602882329F329C0002311F328C0E4
:10348000809196020023C1F0882341F09091970229
:1034900081E0892780939702109296028D2F112345
:1034A00019F00E946E1614C00E947D1786E0F70185
:1034B00011928A95E9F70CC0882351F0111108C0C8
:1034C0009091970281E0892780939702109296024B
:1034D0004C2F4F706D2FC7010E94520AF8E0AF16B3
:1034E000B10441F05CF04AE0A41AB10852E0A5161C
:1034F000B10420F40E94E0140E94500ADD20E1F0A3
:103500000E948B2080FD18C0F70112820E94852046
:103510000E941D1FC7010E94A81A0E948520DF91EA
:10352000CF911F910F91FF90EF90DF90BF90AF90E0
:103530009F908F900C943E1FDF91CF911F910F9120
:10354000FF90EF90DF90BF90AF909F908F90089585
:103550000F931F93CF93DF93EC01888199812B8187
:103560003C81232BB9F09F3F11F48F3F99F0CE019E
:103570000E942607882371F0688179818A810E94E0
:1035800062208C010E94BA1F0E94BC1EB801CE01AD
:103590000E94EA17DF91CF911F910F9108950E9429
:1035A00009210E94192180910301909104010E9438
:1035B00024220E94B6200E945E250E94C52480E03D
:1035C00090E00E94021580E090E00C9418150E9493
:1035D000F9200C94CF1A0E945720E92FE295EF7042
:1035E000F0E03297EE30F105B0F4EB55FF4F0C945C
:1035F0003732803F91F018F4803E68F40EC0843F6B
:1036000051F40BC0803E48F0813F29F406C093FB83
:10361000882780F9089580E0089581E00895CF9388
:10362000DF9300D000D01F92CDB7DEB70F900F9080
:103630000F900F900F90DF91CF910895CF93DF936C
:1036400000D000D000D0CDB7DEB726960FB6F894E4
:10365000DEBF0FBECDBFDF91CF9108951F93CF93F3
:10366000DF93C091980216E080919902C81799F0F3
:10367000D0E01C9FF0011D9FF00D1124E656FD4F78
:103680004081518162817381848195810E941E1BDA
:103690002196C770E9CFDF91CF911F910895409196
:1036A000CA025091CB026091CC027091CD02809100
:1036B000CE029091CF020C941E1B8091CF02829576
:1036C0008F7009F054C08091CC02882309F44FC058
:1036D00080919802A09199026091CA027091CB02E8
:1036E0004091CD025091CE02B6E08A1709F43FC056
:1036F00090E041155105C1F17F3F11F46F3FA1F1F9
:10370000B89FF001B99FF00D1124E656FD4F2181BD
:1037100072132AC02081621327C02281211124C084
:10372000238134812417350710F421503109241BDB
:10373000350B283C3105C0F42091CF022F70206159
:103740002093CF0226E0289FF001299FF00D11243D
:10375000E156FD4F80818F70806180838AEC92E01A
:103760000E94A81A0C942E1B01968770BECF089554
:10377000CF92DF92EF92FF920F931F93CF93DF933D
:10378000CDB7DEB762970FB6F894DEBF0FBECDBFE0
:103790008C0185E0F801DE011D9601900D928A955D
:1037A000E1F7D8014C9111965C91119712966C91AA
:1037B00012971396CD90DC9014973091CA027091B5
:1037C000CB028091CD029091CE02009709F46BC19B
:1037D0007F3F19F43F3F09F466C1E090CC02EE2030
:1037E00009F4C0C02091CF02C816D90628F0F6010E
:1037F000E81BF90BCF0104C0809590958C0D9D1DA1
:10380000FF24F394883C910578F0F12C207F09F097
:10381000C6C07C2DD98AC88A89890E940F1B8AEC70
:1038200092E00E94A81AB1C0822F807F09F046C0A2
:10383000751314C0341312C0611110C02F702061B1
:103840002093CF020E944F1B8AEC92E00E94A81A9C
:103850008091CF02D80115968C932EC0CD2819F1F6
:103860005F3F11F44F3FF9F0F62E61111CC08091BB
:1038700098022091990236E0821709F45AC090E02C
:10388000389FF001399FF00D1124E656FD4F7181EC
:10389000571306C07081471303C07281711103C0B2
:1038A00001968770E9CFF62E662309F427C180912F
:1038B000CF0281608093CF02F12C20C1751308C024
:1038C000341306C0611104C08091CF02D801C3C077
:1038D0004D875E878D859E856A8B0E94EB1A6A896B
:1038E0008823E1F16623D1F12091CF02822F8295C6
:1038F0008F7090E0029774F08091CA029091CB0291
:1039000098878F831986DB86CA862C87CE01079617
:103910000E94A81A86E0F801AAECB2E001900D928C
:103920008A95E1F70E945D1B0E944F1BFF24F394D0
:10393000E5C04D875E878D859E850E945720292F83
:1039400022952F7030E0223031050CF0CBC09F70F3
:1039500009F0C5C0805E883008F4D0C0C8010E945C
:10396000A81AE4CFC816D90608F453C0F601E81B1C
:10397000F90BCF01883C910508F450C0F12C7C2D47
:10398000D98AC88A89890E940F1BEAECF2E086E096
:10399000DF011D928A95E9F70E944F1BAFC0751396
:1039A00014C0341312C0611110C08091CF02F8010D
:1039B0008583C8010E94A81A86E0EAECF2E0DF01E4
:1039C0001D928A95E9F7FE2C99C04D875E878D85FB
:1039D0009E856A8B0E94EB1A6A89882309F4BECF00
:1039E000662309F4BBCF2091CF02822F82958F707E
:1039F00090E002970CF48ECF8091CA029091CB0296
:103A00009A8389831B82DD82CC822E83CE0101962C
:103A10007FCF809590958C0D9D1DACCFF62E6623A3
:103A200009F49CCF75132EC034132CC02091CF0203
:103A300020FD1FC0822F82958F70D9F0D801159676
:103A40002C9315978F3049F08F5F982F9295907F28
:103A5000822F8F70892B15968C93C8010E94A81A0B
:103A600086E0F801AAECB2E001900D928A95E1F7A8
:103A700093CF86E0F801AAECB2E001900D928A950E
:103A8000E1F73CC04D875E878D859E850E94EB1ACD
:103A9000811140CF8091CF0281608093CF02C80115
:103AA0000E94A81A2BC0662309F458CF4D875E8761
:103AB0008D859E850E94EB1AF82E882309F44ECF3F
:103AC00086E0F801AAECB2E001900D928A95E1F748
:103AD0008AEC92E00E945C160E945D1B5DCF811112
:103AE00039CF0CC0243031050CF038CF9F7009F469
:103AF00031CFF8019581907F09F02CCF8F2D629600
:103B00000FB6F894DEBF0FBECDBFDF91CF911F91EE
:103B10000F91FF90EF90DF90CF9008951F93CF9378
:103B2000DF93CDB7DEB72C970FB6F894DEBF0FBE8C
:103B3000CDBF4F83588769877A878B879C87CE0153
:103B400007960E94B81B882369F08F8198852A8583
:103B50003B85232BF1F19F3F09F063C08F3F09F0B4
:103B600060C037C086E0FE013796DE0111960190F5
:103B70000D928A95E1F76F817885EA85FB8530970C
:103B800041F17F3F11F46F3F21F12091990230E024
:103B9000C9010196877099274091980250E08417D7
:103BA000950709F447C069837A83FD83EC8396E027
:103BB000929FD001939FB00D1124A656BD4FFE01D8
:103BC000319601900D929A95E1F7809399020E94A7
:103BD0002E1B16E080919802909199028917C1F1ED
:103BE000189FC001112486569D4F0E94B81B882340
:103BF00079F1E09198021E9FF0011124E656FD4FE5
:103C00004081518162817381848195810E941E1B54
:103C10008091980290E0019687709927809398028E
:103C2000D9CF4F81588569857A858B859C850E947F
:103C30001E1BCFCF0E94E71A109299021092980291
:103C4000EAECF2E086E0DF011D928A95E9F7C1CF48
:103C50002C960FB6F894DEBF0FBECDBFDF91CF918B
:103C60001F910895EF92FF920F931F93CF93DF93CD
:103C70008C01892B09F46CC0F12CEE24E394E8014B
:103C80002196F8018491843740F4843008F051C0C3
:103C9000813081F0823019F15BC0853709F444C06E
:103CA000A8F19CE7980F903708F052C08F770E94D8
:103CB0007D1741C00E5F1F4FFE01C49180E28C0F43
:103CC000883048F4C7708E2D01C0880FCA95EAF776
:103CD0000E940C2114C08C2F0E946E162DC00E5F06
:103CE0001F4FFE01C49180E28C0F883058F4C770DA
:103CF0008E2D01C0880FCA95EAF70E9412210E94FA
:103D0000B6201AC08C2F0E947D1716C00E5F1F4F61
:103D1000FE01C491CC2381F08FE99FE00197F1F778
:103D200000C00000C150F6CF0E5F1F4FFE01F4909F
:103D300003C00E946E168E018F2D882309F49FCF39
:103D4000EFE9FFE03197F1F700C000008150F5CFB7
:103D5000DF91CF911F910F91FF90EF9008950895FB
:103D60000E94AF1E60930B0370930C0380930D03AE
:103D700090930E030C94CF1A08950C94B01E0F93D9
:103D80001F9300910B0310910C0320910D033091B0
:103D90000E03602B712B822B932B1F910F910C9490
:103DA000B01E0F931F9300910B0310910C032091F1
:103DB0000D0330910E0360237123822393231F91FF
:103DC0000F910C94B01E0F931F9300910B03109151
:103DD0000C0320910D0330910E0360277127822779
:103DE00093271F910F910C94B01E0C94E3060E9430
:103DF000F51E609307037093080380930903909363
:103E00000A030C94CF1A60E070E0CB010C94F71E0B
:103E10000F931F9341E050E060E070E08A019B0146
:103E200004C0000F111F221F331F8A95D2F7C9014A
:103E3000B8011F910F910C94F71E0F931F9341E04F
:103E400050E060E070E004C0440F551F661F771F0C
:103E50008A95D2F78091070390910803A0910903F6
:103E6000B0910A038A019B01082B192B2A2B3B2BAB
:103E7000C901B8011F910F910C94F71E0F931F9366
:103E800041E050E060E070E004C0440F551F661F41
:103E9000771F8A95D2F740955095609570958091DF
:103EA000070390910803A0910903B0910A038A01C6
:103EB0009B01082319232A233B23C901B8011F9121
:103EC0000F910C94F71E0F931F9341E050E060E0B8
:103ED00070E004C0440F551F661F771F8A95D2F704
:103EE0008091070390910803A0910903B0910A0300
:103EF0008A019B01082719272A273B27C901B801F6
:103F00001F910F910C94F71E0F931F9300910703BD
:103F1000109108032091090330910A03602B712B43
:103F2000822B932B1F910F910C94F71E0F931F93CD
:103F300000910703109108032091090330910A03AF
:103F400060237123822393231F910F910C94F71EFA
:103F50000F931F9300910703109108032091090309
:103F600030910A0360277127822793271F910F91B1
:103F70000C94F71E0895292F220F920F990F890F85
:103F8000A82FA695A695A695877051E001C0550F5C
:103F90008A95EAF785E0A89FD001112420E030E05F
:103FA00070E0F901EA0FFB1FE053FD4F4081CB01A8
:103FB000022E02C0969587950A94E2F781709927A0
:103FC000819584278523842780832F5F3F4F253069
:103FD000310539F70895292F220F920F990F890F74
:103FE000682F669566956695982F977085E0689F0F
:103FF000B001112440E050E080E0FA01E60FF71F25
:10400000E053FD4F208130E0092E02C03695279500
:104010000A94E2F721703327042E01C0220F0A947C
:10402000EAF7822B4F5F5F4F4530510531F7089516
:10403000CF92DF92EF92FF920F931F93CF93DF9374
:104040008C01C0900B03D0900C03E0900D03F09016
:104050000E038091070390910803A0910903B0918A
:104060000A03C82AD92AEA2AFB2ACFE1D0E0D701DD
:10407000C6010C2E04C0B695A795979587950A940E
:10408000D2F780FF06C0B8018C2F0E946D0A0197FD
:1040900021F4219760F780E001C08C2FDF91CF9150
:1040A0001F910F91FF90EF90DF90CF900895CF93E5
:1040B000DF93EC010E941820BE010E946D0ADF917F
:1040C000CF9108951F93CF93DF93EB0190919502C9
:1040D000992321F0CB010E94572013C0882349F077
:1040E000CB010E941820182F682FCE010E94BB1F01
:1040F00004C0CB010E94EB1F182FBE01812F0E942C
:104100006D0ADF91CF911F91089580910F038595DE
:1041100085958595089580910F038770089598E09F
:10412000899F90011124262B20930F030C941D1FAF
:1041300020910F038095822380930F03982F97700F
:1041400069F430E0482F082E000C550B2417350772
:1041500029F08595859585950C943E1F089590913D
:104160000F03977081E009F480E00895E091030166
:10417000F0910401809133038083E0910301F09179
:104180000401908180913203892B8083E0910301A7
:10419000F0910401908180913103892B808380917B
:1041A0001003882381F0E0910301F09104019081D4
:1041B000892B808380910301909104010E94B22198
:1041C00081111092100380910301909104010C94CD
:1041D000EC1480913303089590913303892B8093DD
:1041E000330308958095909133038923809333039B
:1041F000089510923303089590913203892B809390
:10420000320308958095909132038923809332037D
:10421000089510923203089590913103892B809371
:104220003103089580959091310389238093310360
:104230000895109231030895809310030895109209
:1042400010030895809110030895CF92DF92EF92AA
:10425000FF926C01EE24FF24C114D104E104F104A7
:1042600021F0C701B60120E101C020E0C72ED82E01
:10427000E92EFF24C114D104E104F10419F0285FF0
:10428000C701B6016B017C0154E0F694E794D79422
:10429000C7945A95D1F7C114D104E104F10419F07F
:1042A0002C5FC701B6016B017C0142E0F694E794F4
:1042B000D794C7944A95D1F7C114D104E104F1040D
:1042C00019F02E5FC701B601DC01CB01B695A795A9
:1042D00097958795892B8A2B8B2B09F02F5F822F3F
:1042E000FF90EF90DF90CF9008956DEE7EEF80E02D
:1042F00090E00E946F3260E082E090E00E945132D4
:1043000060E083E090E00E94513260E084E090E061
:104310000E94513260E085E090E00E94513240E01E
:1043200050E0BA0188E090E00C94633280E090E0C5
:104330000E944B3221E08D3E9E4F09F020E0822FFB
:10434000089582E090E00C943D3283E090E00C947C
:104350003D3284E090E00C943D32682F84E090E0A0
:104360000C945132FC0131969C01205E3F4F80E05D
:10437000919191118F5FE217F307D1F708959C0196
:10438000FC0132969FEF80E04191461789F09F3FF4
:1043900019F4411101C0982F8F5F8E31A9F79F3F0B
:1043A00039F0F901E90FF11D97FDFA95628308953F
:1043B0000895FC01329680962081261301C0108258
:1043C0003196E817F907C1F70895262F2695269507
:1043D00026952F3168F4FC01E20FF11D677021E092
:1043E00030E001C0220F6A95EAF78181282B2183F2
:1043F0000895262F2695269526952F3170F4FC01D9
:10440000E20FF11D677021E030E001C0220F6A95D4
:10441000EAF72095818128232183089520911401B2
:10442000222329F02091AD0327FD0C94E5210C9463
:10443000BF2120911401222329F02091AD0327FDF3
:104440000C94F9210C94D921FC013196809611929B
:10445000E817F907E1F7089508950C942C2280914C
:10446000B303843049F11092350320E488E190E0F1
:104470000FB6F894A895809360000FBE209360005B
:1044800080E00E94500A0E942D2283B7817F8460C1
:1044900083BF83B7816083BF7894889583B78E7F0D
:1044A00083BF0FB6F894A8958091600088618093CF
:1044B0006000109260000FBE08950895CF930E948F
:1044C00029050E9476050E945D22C0E08C2F0E9483
:1044D000DF05811104C0CF5FCE30C1F701C081E09C
:1044E000CF91089508950C9472220E94E71A0E94B9
:1044F000E0140E94500A0C9473221F920F920FB680
:104500000F9211248F939F93AF93BF9380913503A4
:10451000811113C08091A9039091AA03A091AB03CC
:10452000B091AC034196A11DB11D8093A903909356
:10453000AA03A093AB03B093AC03BF91AF919F913B
:104540008F910F900FBE0F901F90189582E084BD41
:1045500093E095BD9AEF97BD80936E0008952FB7B5
:10456000F8948091A9039091AA03A091AB03B09114
:10457000AC032FBF0895CF92DF92EF92FF920F937B
:104580001F932FB7F8944091A9035091AA0360910B
:10459000AB037091AC032FBF6A017B01EE24FF24B3
:1045A0008C0120E030E0C016D106E206F30610F4DC
:1045B000415051099A01281B390BC9011F910F91D4
:1045C000FF90EF90DF90CF90089578941F920F9214
:1045D0000FB60F9211248F939F93AF93BF93809147
:1045E000A9039091AA03A091AB03B091AC030196EB
:1045F000A11DB11D8093A9039093AA03A093AB03BF
:10460000B093AC03BF91AF919F918F910F900FBE6C
:104610000F901F901895F89481E08093E00080E25D
:104620008093D800E9ECF0E010828FE19EE40197DE
:10463000F1F700C000001DBA109268001CBC10BE4B
:104640001FBA10927A0010926E0010926F001092B2
:104650007100109272001082ECEBF0E0108214B83E
:1046600017B81AB81DB810BA108215B818B81BB808
:104670001EB811BA0C94003F08950E949621811132
:1046800002C00E9475210E94A121809334030E94E0
:10469000A92190E09093AE038093AD030E94A521E1
:1046A000682F70E080E090E00C94BD1E809139038B
:1046B00080FF0BC06091080185E0689FB001112464
:1046C00075956795759567952BC081FF09C06091B9
:1046D000080185E0689FB00111247595679520C099
:1046E00082FF07C06091080185E0689FB001112436
:1046F00017C090913A039923D1F060910701961762
:1047000088F72091080185E0289F90011124929F4D
:10471000A001939F500D112470E0CA010E94233222
:104720006038710540F46115710539F002C065E02B
:1047300070E0862F08958FE7089581E008958091B5
:10474000390380FF08C06091060170E07595679598
:104750007595679521C081FF06C06091060170E0E4
:104760007595679519C082FF04C06091060170E0DD
:1047700010C090913A039923C1F0609105019617FA
:10478000A0F780910601899FC001112470E00E946A
:1047900023326038710528F46115710521F0862FE8
:1047A00008958FE7089581E0089561E070E0F4CF07
:1047B000803F21F40E945623819504C0813F29F453
:1047C0000E94562380933D030895823F21F40E9466
:1047D0005623819504C0833F29F40E945623809379
:1047E0003C030895893F19F40E949F2305C08A3F26
:1047F00031F40E949F23819580933E0308958B3F5F
:1048000021F40E949F23819504C08C3F29F40E94CB
:104810009F2380933F030895843F21F480913B03BD
:10482000816017C0853F21F480913B03826011C0F5
:10483000863F21F480913B0384600BC0873F21F4C5
:1048400080913B03886005C0883F31F480913B0331
:10485000806180933B0308958D3F21F4809139035B
:1048600081600BC08E3F21F480913903826005C0C6
:104870008F3F29F480913903846080933903089530
:10488000803F39F480913D0387FF6CC010923D0357
:1048900069C0813F29F480913D031816BCF362C0C2
:1048A00090913C03823F29F497FF5CC010923C0337
:1048B00059C0833F19F41916CCF354C0893F41F411
:1048C00080913E0318160CF04DC010923E034AC072
:1048D0008A3F29F480913E0387FF44C0F6CF8B3F87
:1048E00039F480913F0387FF3DC010923F033AC0E7
:1048F0008C3F29F480913F031816BCF333C0843FEA
:1049000021F480913B038E7F17C0853F21F4809175
:104910003B038D7F11C0863F21F480913B038B7F49
:104920000BC0873F21F480913B03877F05C0883F00
:1049300031F480913B038F7E80933B0313C08D3F06
:1049400021F4809139038E7F0BC08E3F21F480913A
:1049500039038D7F05C08F3F29F4809139038B7F08
:104960008093390380913C0381110EC080913D03F7
:1049700081110AC080913E03811106C080913F03DE
:10498000811102C010923A0308958BE393E00E94D4
:10499000F7140E94AF229093370380933603089553
:1049A0001F93CF93DF9380913603909137030E943A
:1049B000BB22AC0190913A03992321F02091090187
:1049C00030E006C0209138038AE0289F900111242E
:1049D0004217530708F46EC080913C03C0913D0319
:1049E000D0913E0310913F03811107C0C1115EC0F9
:1049F000D1115CC011115AC05DC09F3F19F09F5F7B
:104A000090933A03181624F40E94562380933C0393
:104A100080913C0387FF05C00E94562381958093B7
:104A20003C031C1624F40E94562380933D0380917E
:104A30003D0387FF05C00E945623819580933D0367
:104A400040913C03442379F030913D03332359F0E6
:104A500025EB4203A001112450933C033203C00113
:104A6000112490933D031D1624F40E949F238093EC
:104A70003E0380913E0387FF05C00E949F238195DE
:104A800080933E03111624F40E949F2380933F03DA
:104A900080913F0387FF05C00E949F2381958093EB
:104AA0003F03DF91CF911F910C94C5249F3F09F0E4
:104AB000A6CFAECFDF91CF911F910895EBE3F3E046
:104AC00085E0DF011D928A95E9F710923A03109272
:104AD00039030895833081F128F4813059F0823010
:104AE000D1F00895853009F449C0B8F1863009F451
:104AF00056C0089580913803262F30E0280F311DCD
:104B00002F3F310524F4680F6093380308958FEF29
:104B100080933803089580910901262F30E0280FF3
:104B2000311D2F3F310524F4680F6093090108956A
:104B30008FEF80930901089580910801262F30E0BE
:104B4000280F311D2F3F310524F4680F60930801B1
:104B500008958FEF80930801089580910701262F13
:104B600030E0280F311D2F3F310524F4680F60938A
:104B7000070108958FEF8093070108958091060142
:104B8000262F30E0280F311D2F3F310524F4680F08
:104B90006093060108958FEF809306010895809138
:104BA0000501262F30E0280F311D2F3F310524F459
:104BB000680F6093050108958FEF809305010895B4
:104BC000833011F128F4813049F0823091F008955A
:104BD000853081F120F18630C1F10895809138034C
:104BE000681720F4861B80933803089510923803C9
:104BF000089580910901681720F4861B80930901AC
:104C0000089510920901089580910801681720F411
:104C1000861B8093080108951092080108958091E1
:104C20000701681720F4861B8093070108951092EE
:104C30000701089580910601681720F4861B809370
:104C400006010895109206010895809105016817E4
:104C500020F4861B809305010895109205010895A4
:104C60000F931F93873208F04DC08E3108F093C028
:104C7000803109F47DC008F5873009F46BC068F411
:104C8000863009F0A3C080913403817F8E7F8093AA
:104C9000340381E0809341039AC08B3009F48FC0C4
:104CA0008E3009F093C08091340382FB222720F9D3
:104CB00091E0922790FB82F964C0863109F47FC0AD
:104CC00088F4813109F082C00E94E71A8091AD0317
:104CD00087FB222720F991E0922790FB87F98093A8
:104CE000AD036DC0893109F46AC08B3109F06EC023
:104CF0008091340381FB222720F991E0922790FBD9
:104D000081F93FC0883309F45AC050F4893209F45C
:104D100058C0853309F455C0873209F452C056C0D3
:104D2000833409F44EC028F48A3308F44FC0895301
:104D300033C0883409F04AC00E94E71A0FEF13ED20
:104D400020E3015010402040E1F700C000000E9425
:104D50000B2335C080913403982F9095917090FB70
:104D600080F98093340391112AC0897F877F10C016
:104D70008091340383FB222720F991E0922790FB56
:104D800083F9809334039923D1F0809134038160B7
:104D90008093340314C08D5141E050E060E070E036
:104DA0008A019B0104C0000F111F221F331F8A9527
:104DB000D2F7C901B8010E94BD1E0E94E71A81E026
:104DC00006C061E070E080E090E0F5CF80E01F91E8
:104DD0000F91089580E0089580E008958E518A3003
:104DE00030F4E82FF0E0E354FE4F8081089580E036
:104DF0000895CF93C82F80914103813079F018F046
:104E00008230E9F185C0E0910301F09104018081D5
:104E1000813169F0823209F07DC009C0E09103015F
:104E2000F09104018081813111F0823261F48C2F84
:104E30000E94EA26811104C08C2F0E9430261DC0DA
:104E400081E090E01AC08C2F0E94EC26811114C0E2
:104E5000C43179F048F4CB3079F0C03109F05EC04C
:104E600082E08093410308C0C93219F0C83321F0B1
:104E700055C01092410352C081E0817051C0C932C7
:104E800079F108F5C43161F1A0F4C73009F044C0EC
:104E90001092380384E180930901C09308018CE3E8
:104EA0008093070188E08093060188E280930501E2
:104EB00033C082EE8C0F863078F58C2F0E94EE2660
:104EC0008093400329C0CE34E9F020F4CB3421F59F
:104ED0006AE013C0C13579F0C235F1F461E00DC06C
:104EE00080914003882319F01092400315C081E09F
:104EF0008093410315C061E006C0809140030E9489
:104F00006A250AC06AE0809140030E94E02504C03F
:104F10001092410380E004C081E002C080E0ADCF88
:104F2000CF9108958091620308950F931F93CF93BB
:104F3000DF9300D01F92CDB7DEB78C010E940D2AFF
:104F4000823011F0843019F593E099831B830A8332
:104F50009093E9008FEF9091E800815095FD06C095
:104F600095ED9A95F1F700008111F5CF8091E80059
:104F700085FF0DC040E050E063E070E0CE01019697
:104F80000E942A2A8091E8008E778093E8000F9093
:104F90000F900F90DF91CF911F910F910895CF93B4
:104FA000DF9300D01F92CDB7DEB72091B30324303A
:104FB00031F522E02983805891099B838A8383E01D
:104FC0008093E9008FEF9091E800815095FD06C035
:104FD00095ED9A95F1F700008111F5CF8091E800E9
:104FE00085FF0DC040E050E063E070E0CE01019627
:104FF0000E942A2A8091E8008E778093E8000F9023
:105000000F900F90DF91CF910895CF93DF93EC0134
:105010000E940D2A823011F08430F9F482E08093EE
:10502000E9009FEF8091E800915085FD06C085ED75
:105030008A95F1F700009111F5CF8091E80085FF86
:105040000CC040E050E065E070E0CE010E942A2AEA
:105050008091E8008E778093E800DF91CF910895EA
:10506000CF93DF93EC010E940D2A823019F0843037
:1050700009F047C0809114018823E1F08091AD03CD
:1050800087FF18C084E08093E9008FEF9091E800DB
:10509000815095FD06C095E19A95F1F700008111C8
:1050A000F5CF8091E80085FF2CC040E050E060E241
:1050B00070E017C081E08093E9008FEF9091E800E5
:1050C000815095FD06C095ED9A95F1F7000081118C
:1050D000F5CF8091E80085FF14C040E050E068E023
:1050E00070E0CE010E942A2A8091E8008E7780939A
:1050F000E80080E2FE01A2E4B3E001900D928A95FF
:10510000E1F7DF91CF9108958091B203811109C039
:105110000E94BF2B0E941C2C8091E200846080932F
:10512000E20008951092B2030895089508950C9432
:10513000752242E061EC81E00E94392B42E061EC93
:1051400082E00E94392B42E061EC83E00E94392B1F
:1051500042E261EC84E00C94392B8091B5038330FA
:1051600009F455C030F4813071F0823009F48EC0FA
:1051700008958A3009F47AC08B3009F460C0893010
:1051800009F09CC020C08091B403813A09F096C018
:105190008091E800877F8093E8008091B803909128
:1051A000B903892B21F460E282E493E003C060E05C
:1051B00080E090E070E00E94752A8091E8008B7793
:1051C0008093E80008958091B403813209F076C09D
:1051D0008091B8039091B903009719F0039709F0F3
:1051E0006DC08091E800877F8093E8008091E8009F
:1051F00082FD05C08091B3038111F8CF5FC080911B
:10520000F100809362038091E8008B7753C0809116
:10521000B403813A09F052C08091B8039091B90368
:10522000892B09F04BC08091E800877F8093E800CC
:105230008091E80080FFFCCF8091140136C08091FE
:10524000B4038132D9F58091B8039091B903892BC9
:10525000A9F58091E800877F8093E8000E946E2B7B
:105260008091B603809314010C94E71A8091B403E3
:10527000813221F58091E800877F8093E8000E94C9
:105280006E2B8091B7038093630308958091B403DC
:10529000813AA1F48091E800877F8093E8008091B3
:1052A000E80080FFFCCF809163038093F100809140
:1052B000E8008E778093E8000C946E2B089584B7F5
:1052C000877F84BF0FB6F894A895809160008861AD
:1052D00080936000109260000FBE80E880936100B0
:1052E000109261000E942F150E94BF2B0E941C2C5F
:1052F0008091E20084608093E20078940E94AB2E5B
:105300000E9433158AE091E00E94DB148091B30380
:10531000853069F40E942F228091B1038823B1F374
:105320000E945E22882391F30E94142AEFCF0E94EC
:105330003B150E94D913EACF0C949E29292F3327BD
:1053400023303105C9F064F42130310581F0223079
:10535000310509F049C08DE690E027EA36E048C003
:105360002132310521F12232310571F13DC082E156
:1053700090E024E137E03CC099278130910571F03D
:105380002CF4892B89F5E3EAF6E00DC08230910513
:1053900041F0039749F5EDE6F6E005C0EBE8F6E0ED
:1053A00002C0E3E7F6E0849190E09F0121C0643001
:1053B0007105D0F4660F771FFB01ED52FE4F20817F
:1053C000318189E090E014C06430710568F4FB011C
:1053D000EE0FFF1FE553FE4F20813181FB01E953A2
:1053E000FE4F808190E004C080E090E020E030E05B
:1053F000FA013183208308950895CF93C82F0E9426
:10540000FC29C0936403CF9108958091B303843045
:1054100011F081E0089582E0089580916403811184
:1054200002C00C94052A089580E189BD82E189BDFE
:1054300009B400FEFDCF8091D8008F7D8093D80005
:105440008091E00082608093E0008091E00081FD27
:10545000FCCF0895CF92DF92EF92FF920F931F93AC
:10546000CF93DF93EC018B016A010E948D2B811198
:1054700033C0C114D10439F0F60180819181081B39
:10548000190BC80FD91FE12CF12C0115110519F1C9
:105490008091E80085FD16C08091E8008E778093AA
:1054A000E800C114D10449F0F60180819181E80E31
:1054B000F91EF182E08285E00FC00E948D2B8823C7
:1054C00021F30AC089918093F10001501109FFEF87
:1054D000EF1AFF0ADACF80E0DF91CF911F910F9191
:1054E000FF90EF90DF90CF9008952091BA03309114
:1054F000BB032617370748F06115710539F4209171
:10550000E8002E772093E80001C0B90140E0611562
:105510007105A9F12091B303222309F443C025307A
:1055200009F442C02091E80023FD40C02091E8002A
:1055300022FD32C02091E80020FFE9CF4091F30026
:105540002091F20030E0342BFC01CF016115710590
:1055500059F02830310540F481918093F100615079
:1055600071092F5F3F4FF1CF41E02830310509F03D
:1055700040E02091E8002E772093E800C8CF411149
:10558000C9CF0AC08091B303882361F0853061F0F0
:105590008091E80083FD0AC08091E80082FFF2CF8D
:1055A00080E0089582E0089583E0089581E0089501
:1055B0002091BA033091BB032617370748F06115D5
:1055C000710539F42091E8002E772093E80001C09E
:1055D000B901FC0120E06115710591F18091B303DF
:1055E000882309F440C0853009F43FC08091E80069
:1055F00083FD3DC08091E80082FD2FC08091E800CE
:1056000080FFE9CF2091F3008091F20090E0922B8F
:105610006115710559F08830910540F4249120936B
:10562000F1003196615071090196F2CF21E008979F
:1056300009F020E08091E8008E778093E800CBCFDE
:105640002111CCCF0AC08091B303882361F085304B
:1056500061F08091E80083FD0AC08091E80082FF3C
:10566000F2CF80E0089582E0089583E0089581E01C
:105670000895982F973058F59093E900981739F0CE
:105680007091EC002091ED005091F00003C0242FA8
:10569000762F50E021FF19C03091EB003E7F309310
:1056A000EB003091ED003D7F3093ED003091EB0049
:1056B00031603093EB007093EC002093ED00509339
:1056C000F0002091EE0027FF07C09F5FD3CF8F70BF
:1056D0008093E90081E0089580E008958091B4030B
:1056E00087FF11C08091E80082FD05C08091B3035F
:1056F0008111F8CF11C08091E8008B770BC08091A9
:10570000B303882349F08091E80080FFF8CF8091AF
:10571000E8008E778093E80008952091E4003091AE
:10572000E50095E64091EC00842F817040FF22C097
:105730008091E80080FD1CC08091B303882391F024
:10574000853091F08091EB0085FD10C04091E40020
:105750005091E5004217530729F39A01915011F730
:1057600084E0089582E0089583E0089581E008953B
:1057700080E008954091E80042FFDECF08950E9446
:105780002D2C0E94352CE0EEF0E08081816080833A
:10579000E8EDF0E080818F77808319BCA7EDB0E061
:1057A0008C918E7F8C9380818F7E80831092B20348
:1057B00008950F931F93CF93DF930E942D2C0E9487
:1057C000352CC8EDD0E088818F7788838881806808
:1057D000888388818F7D888319BC1092B3031092CF
:1057E000AF031092B1031092B00300EE10E0F80185
:1057F00080818B7F808388818160888342E060E044
:1058000080E00E94392BE1EEF0E080818E7F808382
:10581000E2EEF0E080818160808380818860808317
:10582000F80180818E7F8083888180618883DF9109
:10583000CF911F910F910895E8EDF0E080818F7E68
:105840008083E7EDF0E080818160808384E082BF27
:1058500081E08093B2030C94D92BE8EDF0E08081D5
:105860008E7F80831092E20008951092DA001092E9
:10587000E10008951F920F920FB60F9211242F93FB
:105880003F934F935F936F937F938F939F93AF93C8
:10589000BF93EF93FF938091E10082FF0BC0809153
:1058A000E20082FF07C08091E1008B7F8093E100DE
:1058B0000E94AA2E8091DA0080FF1FC08091D8003C
:1058C00080FF1BC08091DA008E7F8093DA00809188
:1058D000D90080FF0DC080E189BD82E189BD09B496
:1058E00000FEFDCF81E08093B3030E94842805C0B1
:1058F00019BC1092B3030E9492288091E10080FFAE
:1059000019C08091E20080FF15C08091E2008E7F77
:105910008093E2008091E20080618093E2008091B8
:10592000D80080628093D80019BC85E08093B303CF
:105930000E9496288091E10084FF30C08091E200AF
:1059400084FF2CC080E189BD82E189BD09B400FEDD
:10595000FDCF8091D8008F7D8093D8008091E100A9
:105960008F7E8093E1008091E2008F7E8093E20041
:105970008091E20081608093E2008091AF038823F0
:1059800011F084E007C08091E30087FD02C081E050
:1059900001C083E08093B3030E9497288091E100C7
:1059A00083FF29C08091E20083FF25C08091E10040
:1059B000877F8093E10082E08093B3031092AF036E
:1059C0008091E1008E7F8093E1008091E2008E7FE4
:1059D0008093E2008091E20080618093E20042E0E7
:1059E00060E080E00E94392B8091F0008860809315
:1059F000F0000E949528FF91EF91BF91AF919F9188
:105A00008F917F916F915F914F913F912F910F9067
:105A10000FBE0F901F9018951F920F920FB60F9206
:105A200011242F933F934F935F936F937F938F93A3
:105A30009F93AF93BF93CF93DF93EF93FF93C09167
:105A4000E900CF708091EC00D82FD17080FDD0E8B4
:105A50001092E9008091F000877F8093F0007894A5
:105A60000E94502D1092E9008091F0008860809390
:105A7000F000CD2BCF70C093E900FF91EF91DF9143
:105A8000CF91BF91AF919F918F917F916F915F91D6
:105A90004F913F912F910F900FBE0F901F9018952F
:105AA0001F93CF93DF93CDB7DEB7AA970FB6F894C5
:105AB000DEBF0FBECDBFE4EBF3E088E08E0F909128
:105AC000F10091938E13FBCF0E94AD288091E800E6
:105AD00083FF28C18091B4039091B503492F50E012
