:100000000C941F040C943C040C943C040C943C048D
:100010000C943C040C943C040C943C040C943C0460
:100020000C943C040C943C040C944E2C0C94202D09
:100030000C9491220C943C040C943C040C943C04CD
:100040000C943C040C943C040C943C040C943C0430
:100050000C943C040C94F9220C943C040C943C0445
:100060000C943C040C943C040C943C040C943C0410
:100070000C943C040C943C040C943C040C943C0400
:100080000C943C040C943C040C943C040C943C04F0
:100090000C943C040C943C040C943C040C943C04E0
:1000A0000C943C040C943C040C943C04CE04D10409
:1000B000D404D704DA04DC04DF04C006C306C9068E
:1000C000CC06CF06D206D506D806DB06DE06E1064C
:1000D000E406110716072007140719071E071C0757
:1000E000E007E207ED07E407E607E807EA07EC07A1
:1000F000EF07F107F307FE07F507F707F907FB0717
:10010000FD07000832183218641864189B18BB18D1
:10011000241A821AFD18821AAA19AA191B1A821AFD
:10012000821A7C1AB719B719B719B719B719B719BD
:10013000B719B719B719B719B719B719B719B7193F
:10014000B719B719C819D519DC19E319ED190D1B21
:100150000D1B1F1B1F1B161B1F1B1F1B1F1B0D1BFC
:100160000D1B1B1B1F1B1F1B1B1B8D2DB42DA62E18
:10017000B42DA62E002E232EA62E792E882E0763B0
:100180004236B79BD8A71A39685618AEBAAB558C09
:100190001D3CB7CC5763BD6DEDFD753EF617723152
:1001A000BF000000803F05A84CCDB2D44EB9383610
:1001B000A9020C50B9918688083CA6AAAA2ABE00BA
:1001C0000000803F6572676F646F785F657A2F66A5
:1001D0006B6F683131315F64656661756C742040A6
:1001E00020302E362E34382D32312D6738353535C6
:1001F00063312D64697274790002E0012B03E00021
:1002000002E002E27303E203E000253E25003C2DFC
:1002100000667265646572696B2E68616E73656EE7
:100220004064656E74737561656769732E636F6D85
:1002300000667265646572696B5F6B6F6B406963C2
:100240006C6F75642E636F6D0002E3012C03E30095
:1002500002E06E03E00002E2013D03E20002E0740E
:1002600003E00002E07703E00002E3010F03E30094
:100270000000F0A1DF5C2B004C00E10000610000F9
:100280001E00140004001D00E45C4D001F001A0055
:1002900016001B0000742A0020000800070006005A
:1002A000E7002C00210015000900190000644A0035
:1002B000220017000A00050000002F005600010070
:1002C00000000153000030002E02B7000000B6000D
:1002D0000000E40023001C000B00110000002900B6
:1002E000240018000D00100052004B0025000C00E7
:1002F0000E00360051002800260012000F003700C3
:1003000050002B0027001300330001514F004E0016
:100310002E002F0034002D0038000000DF5C2B0081
:100320004C00E100006100003A00E25C04001D00A6
:10033000E45C4D003B000100F2001B0000742A0049
:100340003C00F000F10006000068F4003D00E15CB4
:10035000F300190000644A003E00E05C0100010067
:1003600000002F00E75CE85C0000010000003000A6
:10037000E95CB7000000B60000000100FD000100CC
:100380000100110000002900FE00EA5CFB00A9004A
:1003900052004B00FF00F900FA00AA0051002800AB
:1003A000E65C1200FC00A8005000F500E55C0100CE
:1003B000310001004F004E002E0035003400025184
:1003C00038000000DF5C01000100010001000000B6
:1003D0003A00010001000100010001003B000100A2
:1003E00001000100010001003C00010001000100CA
:1003F000010001003D0001000100010001000100B9
:100400003E000100010001000000010001000100A8
:1004100000000100000001000100010000000100D7
:10042000000001003F000100010001000000010088
:100430004000010001000100010001004100010035
:100440000100010001000100420001000100010063
:100450000100010043000100010001000100010052
:100460000100010001000100010000000000000087
:10047000000000002A2B28000000000000000000FF
:100480000000000000000029000000002C1E3420A5
:10049000212224342627252E362D3738271E1F20CB
:1004A0002122232425263333362E37381F04050610
:1004B0000708090A0B0C0D0E0F1011121314151654
:1004C0001718191A1B1C1D2F3130232D3504050652
:1004D0000708090A0B0C0D0E0F1011121314151634
:1004E0001718191A1B1C1D2F3130354C0000000045
:1004F00000000000000000000000000000000000FC
:1005000000000000000000000000000000010101E8
:1005100001010100010101010000000000000000D4
:1005200000000000000001000100010101010101C3
:1005300001010101010101010101010101010101AB
:1005400001010101010101000000010100000000A2
:10055000000000000000000000000000000000009B
:10056000000000000000000101010100000468011A
:10057000F000B40078005A007F3F1F6432146432E8
:1005800014783C1E1E140A05000000000001010141
:100590000101010101010202020202020202020340
:1005A000030303030303030404040404040505050F
:1005B00005050606060606070707070808080809CE
:1005C00009090A0A0A0A0B0B0B0C0C0C0D0D0D0E77
:1005D0000E0F0F0F10101111111212131314141506
:1005E0001516161717181819191A1A1B1C1C1D1D79
:1005F0001E1F1F20202122222324252526272728CD
:10060000292A2B2B2C2D2E2F2F30313233343536F7
:10061000363738393A3B3C3D3E3F40414243444601
:100620004748494A4B4C4D4F5051525355565758D5
:100630005A5B5C5E5F606263646667696A6C6D6E7C
:10064000707173747678797B7C7E808183848688F0
:100650008A8B8D8F91929496989A9B9D9FA1A3A52A
:10066000A7A9ABADAFB1B3B5B7B9BBBDBFC1C4C628
:10067000C8CACCCFD1D3D6D8DADCDFE1E4E6E8EBE8
:10068000EDF0F2F5F7FAFCFF04033000000016036A
:100690004500720067006F0044006F007800200082
:1006A00045005A00000016034500720067006F0005
:1006B00044006F007800200045005A000000040349
:1006C000090409026D00040100A0FA0904000001F8
:1006D00003010100092111010001224000070581E9
:1006E0000308000A090401000103010200092111A5
:1006F000010001224D000705820308000A090402D7
:100700000001030000000921110100012236000749
:1007100005830308000A090403000103000000091F
:100720002111010001223900070584032000011274
:1007300001100100000008EDFE0713010001020393
:100740000105010906A101050719E029E7150025A2
:10075000019508750181020508190129059505759E
:100760000191029501750391010507190029F715FB
:1007700000250195F875018102C005010980A101DC
:1007800085021601002603001A81002A83007510D5
:1007900095018100C0050C0901A101850316010026
:1007A000269C021A01002A9C02751095018100C046
:1007B00005010902A1010901A10005091901290585
:1007C00015002501950575018102950175038101CB
:1007D0000501093009311581257F950275088106CB
:1007E00009381581257F950175088106050C0A38A1
:1007F000021581257F950175088106C0C005010994
:1008000006A101050719E029E715002501950875DE
:1008100001810295017508810105081901290595D5
:1008200005750191029501750391010507190029CC
:10083000FF150026FF00950675088100C0001124F1
:100840001FBECFEFDAE0DEBFCDBF11E0A0E0B1E028
:10085000E6E3F5E602C005900D92AC3DB107D9F78D
:1008600023E0ACEDB1E001C01D92AC3BB207E1F773
:100870000E9473290C9499320C9400001092B900D4
:100880008AE08093B800089594EA9093BC00909118
:10089000BC0097FFFCCF9091B900987F983021F071
:1008A000903111F081E008958093BB0084E880933B
:1008B000BC008091BC0087FFFCCF8091B900887F8D
:1008C000883111F0803471F780E0089584E98093D5
:1008D000BC008091BC0084FDFCCF08958093BB00D8
:1008E00084E88093BC008091BC0087FFFCCF90918E
:1008F000B900987F81E0983209F480E0089584E897
:100900008093BC008091BC0087FFFCCF8091BB002E
:10091000089580B38C7080BB81B3836F81BB0895D1
:1009200084B1807F84B985B1807F85B98AB1837FA6
:100930008AB98BB1837F8BB93E9846980895CF933F
:10094000E82F873008F58091000181113AC0CE2F41
:1009500080E40E94440480930001811112C082E16E
:100960000E946E048093000181110BC081E090E031
:1009700001C0880FCA95EAF780950E946E048093A3
:100980000001CF910C94660490E0FC013797E730AA
:10099000F105B8F4EA5AFF4F0C944B32209A28988C
:1009A00010C0219A29980DC0229A2A980AC0239A29
:1009B0002B9807C0529A01C0539A5B9802C03E9A86
:1009C0004698CF910895CF93873018F58091000114
:1009D000811128C080E40E94440480930001882390
:1009E00011F0C0E012C083E10E946E048093000108
:1009F0008111F7CF81E40E944404809300018111AA
:100A0000F0CF0E947F04C82FC0950E9466048C2FEF
:100A10000AC09FB18FB1807F869586959370892B90
:100A2000809501C080E0CF91089508950C9415053C
:100A30000E946206809300010E9490040E94890433
:100A40002DED31E0E1E3F2E04EE04E0F119280E057
:100A500090E0D901A80FB91F1C920196863091052C
:100A6000C1F72A5F3F4F4E13F1CF0C944F0A0E94FB
:100A70006206809300010E9490040E948904E1E3D1
:100A8000F2E08EE08E0F11928E13FDCF089526E0D6
:100A9000829FC0011124FC01E352FE4F20E030E0B0
:100AA00080E041E050E09081992319F091509083CB
:100AB00007C0BA01022E01C0660F0A94EAF7862B1E
:100AC0002F5F3F4F31962630310569F7089596E044
:100AD000699FB001112420E030E090E04FE0FC017C
:100AE000022E02C0F595E7950A94E2F7E0FF06C0F2
:100AF000F901E60FF71FE352FE4F40832F5F3F4F90
:100B00002630310561F70895CF92DF92EF92FF9280
:100B10000F931F93CF93DF9380910001882379F087
:100B20008091DC018F5F8093DC01811108C00E94FD
:100B3000620680930001811102C00E94F40581E3E6
:100B4000C82E82E0D82E98E3E92E92E0F92EC0E07C
:100B50008C2F0E949F0407E00C0F802F0E949F049F
:100B60008C2F0E944705182F8C2F0E94E304F6015A
:100B70009081D12FD095D9238123D82B6C2F8D2F05
:100B800089270E946705F601D1936F01802F0E948B
:100B90004705182F802F0E94E304F7019081D12F81
:100BA000D095D9238123D82B602F8D2F89270E94A0
:100BB0006705F701D1937F010E949004CF5FC73092
:100BC00039F60E94510A81E0DF91CF911F910F9178
:100BD000FF90EF90DF90CF900895E82FF0E0EF5C6A
:100BE000FD4F80810895089556985E9825982D9818
:100BF00026982E9827982F988FEF90E09093890051
:100C00008093880090938B0080938A0090938D004E
:100C100080938C00259A2D9A2FEF80E792E0215047
:100C200080409040E1F700C00000269A2E9A2FEFF6
:100C300080E792E0215080409040E1F700C0000042
:100C4000279A2F9A2FEF80E792E021508040904022
:100C5000E1F700C0000025982D982FEF80E792E083
:100C6000215080409040E1F700C0000026982E9867
:100C70002FEF80E792E0215080409040E1F700C0E4
:100C8000000027982F9856985E9825982D982698BA
:100C90002E9827982F98089589EA8093800089E0FC
:100CA0008093810024982C983F988AB18F7C8AB9D0
:100CB0006E98479A8BB180638BB9769A0E94F4053F
:100CC0000C94F60680E28093000180913F0281112E
:100CD0000EC00E943E0481E080933F022FEF83ED1F
:100CE00090E3215080409040E1F700C0000080E494
:100CF0000E9444048093000181112EC00E946E0462
:100D000080930001811128C00E946E04809300012D
:100D1000811122C08FE30E946E0480930001811133
:100D20001BC00E94660480E40E944404809300017A
:100D3000811112C08CE00E946E0480930001811129
:100D40000BC00E946E0480930001811105C08FE3E7
:100D50000E946E04809300010E946604809100014D
:100D60000895FC01DB0112968C91882381F1EF5DDF
:100D7000FC45EC30F10560F5E35AFF4F0C944B3223
:100D800089E692E002C083E692E00E944C0A80E08D
:100D900008958DE592E0F9CF86E592E0F6CF80E503
:100DA00092E0F3CF89E492E0F0CF81E392E0EDCFDF
:100DB00081E192E0EACF8EE092E0E7CF8AE092E034
:100DC000E4CF80E092E0E1CF89EF91E0DECF81E0F7
:100DD0000895611108C0FC018281882321F084EC10
:100DE00091E00E944C0A80E090E008950895CF922F
:100DF000DF92EF92FF926B017C010E94392156989D
:100E00005E9825982D9826982E9827982F9890E0F0
:100E1000FC013197E730F105A8F4E759FF4F0C9436
:100E20004B32259A2D9A0EC0259A2D9A269A2E9AE3
:100E300009C0259A2D9A04C0259A2D9A269A2E9A91
:100E4000279A2F9AC701B601FF90EF90DF90CF90BD
:100E5000089581E008950C94B1060E94FB1A2FEFCB
:100E600084E39CE0215080409040E1F700C0000006
:100E70000C941F23FF920F931F93CF93DF938C014A
:100E8000FC01C081D18180919502811113C08281C2
:100E9000882349F0CE010E942C20F82E682FCE0125
:100EA0000E94CF1F04C0CE010E94FF1FF82EBE017A
:100EB0008F2D04C0CE010E942C20BE010E94670A23
:100EC000EC01B8010E942B07882309F485C2B80100
:100ED000CE010E94D10C882309F47EC2B801CE0154
:100EE0000E94200D882309F477C2C93CFCE5DF0786
:100EF00041F4F8018281882309F46EC20E94D50E64
:100F00006BC2CA3C8CE5D80708F013C1C13C9CE514
:100F1000D90761F4F8018281882309F45DC20E9437
:100F2000FD208272F1F00E94EF1056C2C23CECE547
:100F3000DE07D0F0F8018281C53CFCE5DF0709F44B
:100F4000CDC008F0DDC0C33CECE5DE0709F4CCC041
:100F500008F0D0C0882309F43FC20E94FD208272AD
:100F600011F30E94E51038C2C531FCE5DF0708F037
:100F70007EC0C2308CE5D80708F452C0F8018281E7
:100F8000882309F459C00E94AA21811102C00E943D
:100F900089210E94BD2190E09093AE038093AD0320
:100FA000FE01E350FC45E231F10530F4E059FF4F1A
:100FB0008091AD030C944B328091AD03816027C0CA
:100FC000826025C0846023C0806121C080621FC010
:100FD00080641DC080681BC08460886018C08E7FDC
:100FE00016C08D7F14C08B7F12C08F7E10C08F7D86
:100FF0000EC08F7B0CC08F770AC08B7F877F07C0A6
:1010000087FB222720F991E0922790FB87F98093B4
:10101000AD038091AD030E94C1210E94FB1ADCC187
:10102000C1159CE5D90781F0C130DC45A9F081E00C
:101030008093450280934602C801DF91CF911F91B2
:101040000F91FF900C942907F8018281882309F4FD
:10105000C3C10E942D07C0C1F8018281882309F411
:10106000BBC180913403816080933403B5C1C53125
:10107000FCE5DF0739F50E94FD20282FF801828169
:101080004091030150910401882379F02A7A91E07C
:1010900009F490E090934002911102C069E201C00E
:1010A00065E3CA010E9422220AC080914002811198
:1010B00002C069E201C065E3CA010E942D220E94BC
:1010C000CA208AC1C03CDC4509F0B1CFF801828159
:1010D000882309F481C10E9450117EC1882309F43C
:1010E0007BC10E943B1078C1882309F475C10E941E
:1010F000041072C1882309F46FC10E941C106CC1D6
:10110000C73C9CE5D90731F4882309F465C10E94E6
:101110005F1062C1C83CDC4530F4882309F45CC12F
:101120000E944D1059C1882309F456C10E947A10BB
:1011300053C1C13DFCE5DF0749F4F80182818823F2
:1011400009F44AC188E10E94E21046C1C23D8CE523
:10115000D80708F087C0F8018281CD3CFCE5DF07A5
:10116000A1F4882309F438C10E94C70E66307105C6
:101170008105910540F00E94C70E68307105810518
:10118000910508F4EECE86E0DECFCE3C9CE5D90793
:1011900030F5CB3CECE5DE0729F4882309F41CC1CB
:1011A00081E0D1CFCC3CDC4530F4882309F414C174
:1011B0000E94EA0E11C1882309F40EC10E94C70ED5
:1011C000623071058105910540F00E94C70E6530BF
:1011D00071058105910508F4C4CE82E0B4CFCF3CFF
:1011E0009CE5D907A1F4882309F4F6C00E94C70E34
:1011F0006F3071058105910540F00E94C70E643182
:1012000071058105910508F4ACCE8FE09CCFC03DFF
:10121000DC45A0F4882309F4DFC00E94C70E6930C2
:1012200071058105910540F00E94C70E6E30710571
:101230008105910508F495CE89E085CF882309F4CE
:10124000CBC00E94C70E653171058105910540F044
:101250000E94C70E673171058105910508F481CEA2
:1012600085E171CFC53DFCE5DF0781F5F80182819D
:10127000882361F0109246020E94C3229093440298
:101280008093430280E20E94F017A6C00E94FD20D6
:1012900081FF05C081E080934502809346028091E2
:1012A000460281110FC080914302909144020E9436
:1012B000CF22883C910530F487E20E94821687E2B3
:1012C0000E94911780E20E94F71786C0C63D8CE508
:1012D000D80708F04CC0F8018281C33DFCE5DF0768
:1012E00029F4882309F478C083E22DCFC43DDC457E
:1012F000A0F4882309F470C00E94C70E69317105FB
:101300008105910540F00E94C70E6232710581058A
:10131000910508F426CE89E116CF882351F010926A
:1013200045020E94C322909342028093410282E0D0
:10133000AACF0E94FD2085FF05C081E08093450271
:10134000809346028091450281110FC08091410235
:10135000909142020E94CF22883C910530F486E2AF
:101360000E94821686E20E94911782E0ACCFC93DAE
:10137000ECE5DE0731F4F8018281882369F180E031
:1013800009C0CA3DFCE5DF0741F4F80182818823EA
:1013900019F182E00E94112A1FC0C63DDC4509F008
:1013A00046CEF8018281811165CF8091460281117C
:1013B00089CF80914302909144020E94CF22883CC1
:1013C000910508F07FCF80E20E94F71788E20E9423
:1013D000821688E20E94911780E0DF91CF911F91E1
:1013E0000F91FF900895CF93282F30E0F901E45931
:1013F000FB4FC491F901E451FB4F2491222359F092
:1014000081EE0E9482168C2F0E9482168C2F0E94E1
:10141000911781EE04C08C2F0E9482168C2FCF91E1
:101420000C9491170F931F93CF93DF93EC01062F2A
:10143000FE018491882359F19E012F5F3F4F813037
:1014400041F4E901F9011491812F0E948216812F44
:101450000DC0823031F4E901F90184910E948216B5
:101460000AC0833031F4E901F90184910E94911797
:1014700002C00E94F3092196802F8823C9F2EFE968
:10148000FFE03197F1F700C000008150F6CFDF9107
:10149000CF911F910F91089560E00C94120A0C9463
:1014A0004C060C941605282F2F7041F0822F90E0E7
:1014B0002A3010F44D9608950697089587E290E03B
:1014C000089508950C94610A0C94620A089596E0B8
:1014D000799FF001112494E5899FE00DF11D1124FD
:1014E000E60FF11DEE0FFF1FEC58FD4F8591949113
:1014F0000895880F991FFC01E059FD4F8591949143
:101500000895CF93DF930E94670A0E94300CEC018C
:10151000811520E59207F0F5811530E4930708F076
:1015200021C1883E910500F5803E910508F094C1E7
:10153000883A910570F4853A910508F0A3C081308E
:10154000910509F489C108F440C1049708F084C1E9
:101550003CC18D3B910508F4A0C0803C910508F486
:1015600034C1805C9109F0C08115904258F4C115D6
:1015700081E0D80708F070C1C03FD10508F425C14B
:10158000D0656AC1C11590E3D90708F0E1C0CE016A
:101590009F70DAC0811525E5920708F043C08115D8
:1015A00034E5930708F0F5C0811542E5940708F586
:1015B000C11581E5D80708F0D8C02C2F237081E031
:1015C00090E002C0880F991F2A95E2F79C689E015F
:1015D00074E0369527957A95E1F72370922BCF70BA
:1015E000C695C69540E2C49FE0011124C82BD92BB3
:1015F00033C1869586959E0123703327C115D34547
:1016000008F0B8C040E2849FC0011124C1E0D0E0DE
:1016100002C0CC0FDD1F2A95E2F78C2B9D2BEC012D
:10162000DC681AC181152AE5920798F4811539E51D
:10163000930708F0B9C08115964508F4AFC0C115ED
:1016400088E5D80708F4C1C0DC2FCC27C06FD06A6A
:1016500003C1C1159BE5D90708F4B7C0C1152CE536
:10166000D20708F4AFC0CE0190568115904208F021
:10167000ACC08D2F8F710E94AD0CDD27D0628F71B1
:10168000D82BEAC0853A910509F4A2C0863A9105A3
:1016900009F0A1C0C2E8D0E4DFC0883A910509F49E
:1016A0009DC0893A910509F49CC08A3A910509F4D4
:1016B0009BC08B3A910509F49AC08C3A910509F4C4
:1016C00099C08B3B910509F498C08C3B910509F4B6
:1016D00097C08D3A910509F496C0803B910509F4B5
:1016E00095C08E3A910509F494C08F3A910509F49A
:1016F00093C0813B910509F492C0823B910509F4A6
:1017000091C0833B910509F490C0843B910509F495
:101710008FC0853B910509F48EC0863B910509F485
:101720008DC0873B910509F48CC0883B910509F475
:101730008BC0893B910509F48AC08A3B910509F465
:1017400089C0C0E0D4E488C00E94790AEC0184C05A
:10175000CE019927D3FF03C0EC01D86C7DC0EC010A
:10176000D06C7AC0DF70D06A77C0DC2FCC27C16F15
:10177000D06A72C040E2849FC0011124C1E0D0E071
:1017800002C0CC0FDD1F2A95E2F7C82BD92BDA68EF
:1017900063C0D82FCC27C46FD06A5EC0CF71DD275D
:1017A000DC2FCC27D06258C08F70806E90E0906A9A
:1017B00024E0D695C7952A95E1F7CF709C013C2B84
:1017C000E9014AC0DD27D06647C0C0E0D0E044C090
:1017D000C1E8D0E441C0C3E8D0E43EC0C2EED4E4E6
:1017E0003BC0C9EED4E438C0CAEED4E435C0C5EB82
:1017F000D4E432C0C6EBD4E42FC0C3EBD4E42CC095
:10180000C4EBD4E429C0C7EBD4E426C0CCECD4E4C8
:1018100023C0CDECD4E420C0C3E8D5E41DC0CAE8A1
:10182000D5E41AC0C2E9D5E417C0C4E9D5E414C0B0
:10183000C1E2D6E411C0C3E2D6E40EC0C4E2D6E4ED
:101840000BC0C5E2D6E408C0C6E2D6E405C0C7E2D4
:10185000D6E402C0CAE2D6E4CE01DF91CF9108956A
:101860008238910549F1B0F48133910509F458C0EB
:1018700048F48932910509F44EC08A32910509F481
:1018800054C008958533910509F440C0893391050A
:1018900099F00895833E910529F138F4803E910531
:1018A00091F0823E9105A1F00895863E9105F9F0F0
:1018B000873E910531F108952091AD0320FD3AC096
:1018C00021FD38C008958091AD0380FD35C032C040
:1018D0008091AD0382FF32C08091AD0384FD30C0A2
:1018E00083EE39C08091AD0382FD28C0F5CF809191
:1018F000AD0383FF27C08091AD0384FD21C087EE37
:101900002AC08091AD0383FD1DC0F5CF8091AD034A
:1019100085FD1AC01BC08091AD0385FD17C014C0A2
:101920008091AD0386FD14C015C08091AD0386FD86
:1019300011C00EC080EE0FC089E30DC082EE0BC057
:1019400080E009C086EE07C089E205C085E303C0D8
:101950008AE201C081E390E008959091AD0392FF87
:101960000DC0282F2871283019F4877F846006C0A5
:10197000282F2471243011F48B7F886093FF0DC0D1
:10198000282F2871283119F4877E846106C0282FFA
:101990002471243111F48B7E886194FD877E089533
:1019A00008950F931F93CF93FB012281211102C051
:1019B000C1E041C08C01C0915402C11125C08631E3
:1019C0009C45B1F70E94D00C81E0809354020E94A4
:1019D000C3229093530280935202109247021092B6
:1019E00049021092480210924B0210924A02109241
:1019F0004D0210924C0210924F0210924E02109221
:101A000051021092500217C08091520290915302DD
:101A10000E94CF228C32914058F690914702E92FD4
:101A2000F0E0EE0FFF1FE85BFD4F118300839F5F27
:101A300090934702C0E08C2FCF911F910F91089592
:101A4000CF93DF93813020E89207D0F0FB01228111
:101A50002223B1F0EC0180915502811109C08CE084
:101A600090E00E9451320E94440D81E08093550223
:101A70000E944B0DCE019F770E94130E0E94C70D4E
:101A800081E0DF91CF91089580935602682F8CE01A
:101A900090E00C946532E0910301F09104018081A3
:101AA0008093650381FF03C081EE0E9491178091AE
:101AB000650385FF03C085EE0E9491178091650341
:101AC00080FF03C080EE0E9491178091650384FF20
:101AD00003C084EE0E9491178091650382FF03C0CA
:101AE00082EE0E9491178091650386FF03C086EE07
:101AF0000E9491178091650383FF03C083EE0E94CB
:101B000091178091650387FF03C087EE0E949117AC
:101B100080915602823001F1A8F48823C9F0813007
:101B200079F580EE0E94821681EE0E94821688E18D
:101B30000E94821688E10E94911781EE0E949117FF
:101B400080EE1CC0843081F08530D1F486EE01C077
:101B500082EE0E94821614C082EE0E94821687E5F1
:101B60000E94821687E50AC086EE0E94821686EEE3
:101B70000E94911788E10E94821688E10E949117C5
:101B80008FE39CE90197F1F700C000000895809170
:101B90005602813049F030F0823021F0853051F426
:101BA00086EE06C082EE04C08CE20E9482168CE2B1
:101BB0000E9491178091650381FF03C081EE0E940E
:101BC00082168091650385FF03C085EE0E94821610
:101BD0008091650380FF03C080EE0E948216809191
:101BE000650384FF03C084EE0E9482168091650322
:101BF00082FF03C082EE0E9482168091650386FFF9
:101C000003C086EE0E9482168091650383FF03C0A5
:101C100083EE0E9482168091650387FF03C087EEE2
:101C20000C9482160895EF92FF921F93CF93DF9347
:101C30007C01CCE0D0E097010C2E02C036952795B0
:101C40000A94E2F7122F1F70812F0E94530A0E94FC
:101C50008216812F0E94530A0E9491172497CC3F2D
:101C60008FEFD80741F7DF91CF911F91FF90EF9051
:101C70000895EF92FF920F931F93CF93DF93E901A3
:101C8000662309F44BC0242F30E0EFEFF0E0E61BB1
:101C9000F109B901E69F9001E79F300DF69F300DE5
:101CA0001124232F8B01031B11095CE3E52EF12C7A
:101CB000B7010E942332FB01BC01069FC001079FB0
:101CC000900D169F900D1124B7010E942332E2302F
:101CD000F105B1F040F4309779F0319711F5832F89
:101CE000242F461B21C0E430F105A1F068F03597A0
:101CF000C1F4842F861B18C0832F262F230F14C0F6
:101D0000862F830FE42F03C0E42FE61B842F432F7D
:101D10002E2F0AC0842F462F430F06C0842F242F56
:101D200003C080E020E040E0E42FF0E0E857FA4F05
:101D30004491E22FF0E0E857FA4F9491E82FF0E059
:101D4000E857FA4FE49149839883EA83DF91CF9172
:101D50001F910F91FF90EF90089588E090E00C9410
:101D60005932AB01BC0188E090E00C947732E6E692
:101D7000F3E083E08083109267038FEF8283838395
:101D8000148260817181828193810C94B10E609183
:101D9000660360FF06C066956F7370E080E090E0B8
:101DA000089560E070E0CB01089580916A0390E0AF
:101DB00001968430910514F083E090E080936A03EB
:101DC0006091660370916703809168039091690345
:101DD0000C94B10E80916A0390E0019797FF02C0C6
:101DE00080E090E08430910514F083E090E08093EF
:101DF0006A03609166037091670380916803909114
:101E000069030C94B10E8091660380FF06C06FE0F9
:101E100070E08BE693E00C94AD1480E090E0FC0160
:101E2000E559FC4F11821082128204968C33910581
:101E3000B1F7EDCF9091660390FF0FC020E030E046
:101E4000F901E559FC4F8183608342832C5F3F4F4A
:101E50002C333105A9F70C94030F0895CF93DF932A
:101E600000D000D0CDB7DEB72091660320FF0AC0B6
:101E70009E012F5F3F4F0E94390E4B8169818A81FD
:101E80000E941A0F0F900F900F900F90DF91CF913B
:101E900008955F926F927F928F929F92AF92BF92BE
:101EA000CF92DF92EF92FF920F931F93CF93DF9326
:101EB00000D000D0CDB7DEB78C01E62EF42E522E26
:101EC0008091660380FF89C0982F9E77923061F4DD
:101ED0009E012F5F3F4FC8010E94390E4B816981DF
:101EE0008A810E941A0F59C0E82FE695EF739EE38E
:101EF0009E0F9F73943018F4F09069034EC09AE3DC
:101F00009E0F9F73993068F4881F8827881F9091CF
:101F10006703292F220F022F082B97FB112710F997
:101F20003CC087E28E0F8F738A30B8F5F0E0799766
:101F3000E0FD02C021E001C02FEFEE7FE259FA4F31
:101F4000859194916FE070E00E9423322603400156
:101F5000279F900C1124580188E9A81A8EEFB80A1F
:101F60008BE6C82E83E0D82E98E6692E77247394EA
:101F7000C501B3010E94233296014F2D6E2D0E94A0
:101F8000390EA80CB91C84E0C80ED11C87EAC8160B
:101F900083E0D80669F70E94030F8091660300FB77
:101FA00087F980936603902F9695809167038078D8
:101FB000892B10FB87F980936703E0926803F09206
:101FC0006903552051F06091660370916703809119
:101FD0006803909169030E94B10E0F900F900F90CB
:101FE0000F90DF91CF911F910F91FF90EF90DF90B5
:101FF000CF90BF90AF909F908F907F906F905F90A9
:10200000089521E00C94490FE6E6F3E02081221FB9
:102010002227221F30916703432F440F842F822BE6
:1020200037FB992790F90C9668E671E00E943732E9
:10203000438162810C94011020916603221F2227A4
:10204000221F30916703432F440F842F822B37FBCD
:10205000992790F98C3091051CF4845A9E4F01C049
:102060000C9768E671E00E943732409169036091F5
:1020700068030C940110E6E6F3E08081881F88274E
:10208000881F90916703292F220F97FB992790F9BA
:1020900043816FEF822B0C940110E6E6F3E0808120
:1020A000881F8827881F90916703292F220F97FB8D
:1020B000992790F9438160E0822B0C9401104091A4
:1020C0006903842F90E0843F910514F4445F01C0BC
:1020D0004FEF80916603881F8827881F90916703C0
:1020E000292F220F97FB992790F960916803822B83
:1020F0000C94011040916903842F90E00C9714F028
:102100004C5001C040E080916603881F8827881FDB
:1021100090916703292F220F97FB992790F96091DF
:102120006803822B0C94011020E00C94490F9091CD
:10213000660390FF46C09178811102C0926007C08B
:10214000843210F0966403C08F73880F982B90939D
:102150006603662351F06091660370916703809176
:102160006803909169030E94B10E80916603382F35
:102170003E77323019F41092700212C0982F969563
:102180009F732EE3290F2F73273110F0363421F47B
:1021900091E09093700204C0995D9F739A3058F358
:1021A000881F8827881F90916703292F220F97FB8C
:1021B000992790F94091690360916803822B0C94F0
:1021C0009410089561E00C949710809166038695B1
:1021D0008F738F5F843208F081E00C94E21080915D
:1021E000660386958F73815009F483E20C94E210A4
:1021F000E6E6F3E080818160808386958F730C949E
:10220000E21060E00C949710809134038160809319
:10221000340381E0809371020E94AA21811104C0DD
:102220000E9489210E94B70E0E94AD0E6093660342
:102230007093670380936803909369036E7761F4EA
:102240000E94B70E0E94AD0E609366037093670301
:10225000809368039093690381E08093700280917A
:10226000660380FF04C086958F730C940111089556
:10227000E6E6F3E080818E7F8083608171818281D8
:1022800093810E94B10E109270022FEF80E792E0CE
:10229000215080409040E1F700C000000C94030FF3
:1022A0008091660380FD0C9438110C94F810CF9344
:1022B000C82F80916E0290916F020E94CF22EC2F66
:1022C000F0E0EC57FA4FE491F0E08E179F0708F426
:1022D00043C00E94C32290936F0280936E0260916C
:1022E0006D0270E080E090E00E94243020E030E059
:1022F0004FE753E40E94472F2BED3FE049E450E4C1
:102300000E944D310E94BA310E94C12F2BE43AE362
:102310004EE25FE30E94DA2E20EF3BEF48ED52E4FD
:102320000E944D310E94F32F462F80916603881F33
:102330008827881F90916703292F220F97FB9927E1
:1023400090F960916803822B0E942E0F80916D029C
:1023500090E0019680936D02CF910895CF93C82F9E
:1023600080916B0290916C020E94CF22EC2FF0E0E2
:10237000EF57FA4FE491F0E08E179F07E8F00E94C4
:10238000C32290936C0280936B0240916903609129
:1023900068038091690290916A020E942E0F8091D9
:1023A000690290916A02019668E671E00E94233208
:1023B00090936A0280936902CF910895CF92DF9241
:1023C000FF920F931F93CF93DF93F82E80916702B4
:1023D000909168020E94CF22EF2DE695F0E0E2583E
:1023E000FA4FE491F0E08E179F07E8F10E94C322B4
:1023F00090936802809367020BE613E0C0E0D0E0A0
:1024000088E6C82EDD24D3948091650290916602FF
:102410008C0F9D1FB6010E942332980140916903E1
:10242000609168030E94390E68960C5F1F4FC83692
:1024300081E0D80749F70E94030F2091650230918F
:102440006602F0FE0AC0C9010196BE010E94233255
:10245000909366028093650206C021503109309343
:10246000660220936502DF91CF911F910F91FF903B
:10247000DF90CF900895AF92BF92CF92DF92EF920C
:10248000FF920F931F93CF93DF93C82F80FF02C05B
:102490001FEF01C011E080916302909164020E94DD
:1024A000CF22C695EC2FF0E0E558FA4FE491F0E02A
:1024B0008E179F0708F466C00E94C322909364029F
:1024C000809363022BE6C22E23E0D22E3DE6E32E5C
:1024D00033E0F32EC0E0D0E0F70131971082F6012F
:1024E0001082F701108294E0A92EB12C00E08091B7
:1024F0006202800F87FD815F082E000C990BC817C0
:10250000D907E9F4809169038A9DA0018B9D500D44
:102510001124559547955595479580916603881FD9
:102520008827881F90916703592F550F97FB99278C
:1025300090F9960160916803852B0E94390E010F76
:10254000F1E0AF1AB10899F6219684E0C80ED11CCB
:10255000E4E0EE0EF11CCF30D10509F0BDCF0E94B2
:10256000030F80916202113031F4811102C08EE0BC
:1025700007C0815005C090E00196BE010E9437322D
:1025800080936202DF91CF911F910F91FF90EF90A6
:10259000DF90CF90BF90AF9008950F931F93CF938C
:1025A000DF93C82F80916002909161020E94CF2238
:1025B000EC2FF0E0E858FA4FE491F0E08E179F0717
:1025C00008F464C00E94C322909361028093600269
:1025D00080E090E0FC01E559FC4F118210821282EC
:1025E00004968C339105B1F7C0E0D0E00FE010E025
:1025F000CE01B8010E943732FC0180915F02082EA3
:10260000000C990BEE0FFF1FEE0FFF1FC817D90725
:10261000FCF080910201082E000C990B8C179D078D
:10262000BCF09F0125593C4F80916603881F882785
:10263000881F90916703592F550F97FB992790F9A1
:102640004091690360916803852B0E94390E05C093
:10265000E559FC4F1182108212822196CF30D105AC
:1026600039F60E94030F8091010190915F02980F4B
:1026700090935F0220910201280F2093020112160D
:1026800014F49E301CF0819580930101DF91CF916D
:102690001F910F910895EF92FF920F931F93CF9385
:1026A000DF9380915D0290915E020E94CF22883E6E
:1026B0009340D0F10E94C32290935E0280935D020A
:1026C000C0915B02D0915C022196C170DD27D0934E
:1026D0005C02C0935B028BE6E82E83E0F82E10E0EC
:1026E00008E7812F8695FE01E80FF11DCF0181706B
:1026F000992797014091690360916803FC010E9F3F
:10270000C0010F9F900D11240E94390E1F5FF4E04D
:10271000EF0EF11C1F3029F7DF91CF911F910F9120
:10272000FF90EF900C94030FDF91CF911F910F91C9
:10273000FF90EF900895CF93DF9300D000D0CDB7F6
:10274000DEB78091590290915A020E94CF22ECE6A6
:10275000F5E02591349182179307C0F180915802DA
:1027600081110CC09E012F5F3F4F4FEF6FEF80E054
:1027700090E00E94390E8A81809358020E94C32201
:1027800090935A028093590280915702813051F000
:1027900028F0823061F4409158020AC080915802BA
:1027A00040E007C06091580240E080E003C040E094
:1027B00080E060E00E941A0F8091570290E001963D
:1027C00063E070E00E943732809357020F900F90C1
:1027D0000F900F90DF91CF91089580917002882320
:1027E000B9F190916603892F86958F732EE3280F98
:1027F0002F73243018F482500C9457112AE3280FB9
:102800002F73233018F486500C94AE1127E3280F51
:102810002F73263018F489500C94DE1121E3280F11
:102820002F73263018F48F500C943B122BE2280F94
:102830002F73233018F485510C94CD12892F8E7785
:10284000803311F40C944B13863411F40C949B13C5
:102850000895882319F05198599A02C0519A5998AD
:102860005098589A95E09A95F1F70000509A589828
:1028700095E09A95F1F70000882311F0519A599844
:1028800085E08A95F1F7000008958BB18C7F8BB9B4
:102890005098589A5198599A85E08A95F1F7000016
:1028A00008958AB18C7F8AB985E08A95F1F7000096
:1028B000519A599885E08A95F1F70000509A5898F6
:1028C00085E08A95F1F7000008955098589A85E0C0
:1028D0008A95F1F700005198599A85E08A95F1F7A9
:1028E00000000895CF93DF93D82FC8E08D2F807814
:1028F0000E942914DD0FC150C9F780E00E942914FD
:1029000085E08A95F1F7000085E08A95F1F70000EF
:1029100080E0DF91CF9108952BB1342F30952323A0
:102920003BB1432B3FB7F894FC01680F791FE617C2
:10293000F70789F0819198E04BB9000000C087FF4C
:102940002BB9880F000000C000C000C02BB900C028
:102950009A9591F7ECCF3FBF0895AF92BF92CF9277
:10296000DF92EF92FF920F931F93CF93DF938C012F
:10297000EB01CFB6D090BC00F8948091BC008B7F67
:102980008093BC000E9445140E94511484E80E9468
:102990007214CC0FDD1FCC0FDD1F78015801AC0E77
:1029A000BD1EEA14FB0431F0F70181917F010E9402
:1029B0007214F7CF0E946514CFBED092BC00579A14
:1029C00040E8BE01C801DF91CF911F910F91FF90A8
:1029D000EF90DF90CF90BF90AF900C948C149093B9
:1029E0007702809376020895E0917602F091770263
:1029F000309721F00190F081E02D099480E0089556
:102A0000E0917602F0917702309721F00280F38115
:102A1000E02D09940895E0917602F09177023097C5
:102A200021F00480F581E02D09940895209174022D
:102A3000309175028217930771F09093750280931D
:102A40007402E0917602F0917702309721F00680CF
:102A5000F781E02D0994089520917202309173025C
:102A60008217930771F09093730280937202E09142
:102A70007602F0917702309721F00084F185E02D05
:102A80000994089508950C94421581E008950E94D8
:102A9000BA220E9418050E9451230C940411CF926F
:102AA000DF92EF92FF920F931F93CF93DF93CDB7F7
:102AB000DEB72B970FB6F894DEBF0FBECDBF0E94D6
:102AC00084050E944515811111C08FEF89838A8387
:102AD0001B820E94C3228160782F9D838C83498151
:102AE0005A816B818D810E94331656C089E7C82EAA
:102AF00082E0D82E00E010E0E02E802F0E94ED054D
:102B0000F60141916F01F42EF82631F40F5F1F4F4B
:102B10000E30110589F7D9CF9091340391FF04C08D
:102B20008B870E94F3058B8520E030E04F2D50E02D
:102B3000922FBA01022E02C0759567950A94E2F7AA
:102B400060FF24C02E83EF8221E030E0690102C0E3
:102B5000CC0CDD1C9A95E2F790E08C219D21892B0D
:102B600009F420E028870E94C3228160782F9A8789
:102B700089874E815F8168858A850E943316F801B6
:102B8000E758FD4F8081C826C08206C02F5F3F4FA7
:102B90002630310569F6BACF0E94E42410917802FC
:102BA0000E94F4141817A1F00E94F4148093780284
:102BB0002B960FB6F894DEBF0FBECDBFDF91CF913D
:102BC0001F910F91FF90EF90DF90CF900C94640ACB
:102BD0002B960FB6F894DEBF0FBECDBFDF91CF911D
:102BE0001F910F91FF90EF90DF90CF900895DC013F
:102BF00011962C9111978C91682F70E041E050E074
:102C000001C0440F8A95EAF712968C91129730E032
:102C1000882329F0809197028823E9F006C0F90102
:102C2000E957FD4F90819423B1F086E0829FF00137
:102C3000839FF00D1124E60FF71FEE0FFF1FEB5ED1
:102C4000FE4F808191818D939C93F901E957FD4F4F
:102C50008081482B06C0F901E957FD4F40958081DE
:102C6000482340830895CF93DF93CDB7DEB72B97EA
:102C70000FB6F894DEBF0FBECDBF942F4F83252F24
:102C8000588769877A878B874A855B85452B21F032
:102C90002F3F09F59F3FF9F4DE01119686E0FD0113
:102CA00011928A95E9F785E0FE01379601900D9221
:102CB0008A95E1F749815A816B817C818D819E8162
:102CC0000E94A21D2B960FB6F894DEBF0FBECDBF9B
:102CD000DF91CF910895CE0107960E94F715DCCFC2
:102CE000FC01808191810E946B2092959F709630AB
:102CF00041F48091970291E0892780939702909305
:102D000096020895CF93DF931F92CDB7DEB7882345
:102D100009F403C1682F8238C1F40E94F41481FDC4
:102D2000FCC069E380910301909104010E9422227A
:102D30000E94CA202FEF81EE94E021508040904005
:102D4000E1F700C0000069E319C0833811F50E9463
:102D5000F41480FDE2C063E58091030190910401C9
:102D60000E9422220E94CA202FEF81EE94E021507F
:102D700080409040E1F700C0000063E580910301CE
:102D8000909104010E942D220F90DF91CF910C941D
:102D9000CA208438C1F40E94F41482FDBEC067E4E6
:102DA00080910301909104010E9422220E94CA2076
:102DB0002FEF81EE94E0215080409040E1F700C079
:102DC000000067E4DBCF8CEF860F813A70F4862F2A
:102DD00069830E940D27698181119FC08091030141
:102DE000909104010E942222CFCF80E2860F88308A
:102DF00048F4677081E001C0880F6A95EAF70E9485
:102E00000021C2CF8BE5860F833088F4653A29F024
:102E1000663A31F083E890E005C081E890E002C0B6
:102E200082E890E00F90DF91CF910C94161588E521
:102E3000860F853108F071C0683A61F1693A69F12D
:102E40006A3A71F16B3A79F16C3A81F16B3B89F135
:102E50006C3B91F16D3A99F1603BA1F16E3AA9F1A9
:102E60006F3AB1F1613BB9F1623BC1F1633BC9F12A
:102E7000643BD1F1653BD9F1663BE1F1673BE9F198
:102E8000683BF1F1693BF9F16A3B09F43FC080E02E
:102E900090E03EC082EE90E03BC089EE90E038C00A
:102EA0008AEE90E035C085EB90E032C086EB90E092
:102EB0002FC083EB90E02CC084EB90E029C087EB1F
:102EC00090E026C08CEC90E023C08DEC90E020C018
:102ED00083E891E01DC08AE891E01AC082E991E0A0
:102EE00017C084E991E014C081E292E011C083E24E
:102EF00092E00EC084E292E00BC085E292E008C04E
:102F000086E292E005C087E292E002C08AE292E0A7
:102F10000F90DF91CF910C942C150F90DF91CF91F2
:102F20000895882309F45BC0682F823879F40E94E1
:102F3000F41481FF54C069E380910301909104016E
:102F40000E9422220E94CA2069E310C08338B1F493
:102F50000E94F41480FF43C063E5809103019091C7
:102F600004010E9422220E94CA2063E5809103018D
:102F7000909104010E942D220C94CA20843879F487
:102F80000E94F41482FF2BC067E4809103019091AA
:102F900004010E9422220E94CA2067E4E7CF8CEF3E
:102FA000860F813A18F380E2860F883048F4677004
:102FB00081E001C0880F6A95EAF70E940621DCCF04
:102FC0008BE5860F833020F480E090E00C9416159A
:102FD000685A653120F480E090E00C942C15089537
:102FE000882321F00E9400210C94CA200895882390
:102FF00021F00E9406210C94CA2008958F929F927E
:10300000AF92BF92DF92EF92FF920F931F93CF93F5
:10301000DF937C01D62FC72FFC01058102950F702D
:10302000128111110E941D210E94C320882379F072
:10303000112369F080E28D0F883048F082E00E9411
:10304000AC200E94C32091E0D82ED92601C0D12CFB
:10305000AC2EA2948FE0A822B12CF501EE57FF4FC1
:103060000C944B328C2F807FCF70882311F0C29547
:10307000C07F112399F0CC2309F4C8C180E28D0FE1
:10308000883010F0D11104C08C2F0E94002103C0A1
:103090008C2F0E9410210E94CA20B8C18D2F0E943F
:1030A0009117CC2309F42EC280E28D0F883010F0E6
:1030B000D11104C08C2F0E94062103C08C2F0E94C6
:1030C00016210E94CA201EC28C2F807FCF708032B2
:1030D00011F0C295C07FDD2319F0D130C9F021C0B5
:1030E000112371F0002341F0013031F40E943621A8
:1030F0008C2B0E94302106C20E9436218C2B3FC1AE
:10310000002319F0013009F4FDC10E94332111C0E0
:10311000112321F0023008F0F5C107C00111F2C1FE
:1031200008C0112321F0011171C18C2F28C1011198
:103130007EC18C2F2AC18C2F86958695837090E056
:10314000009719F0019761F0DDC1112321F08D2F57
:103150009C2F937002C080E090E00E941615E2C19F
:10316000112321F08D2F9C2F937002C080E090E0FE
:103170000E942C15D7C11123F9F0D53F51F0D63F4D
:1031800071F0D43FA9F48091A7039091A8038160C6
:103190000BC08091A7039091A803826005C0809125
:1031A000A7039091A80384609093A8038093A7033A
:1031B0008D2F0E94EC231EC0D53F51F0D63F71F0F9
:1031C000D43FA9F48091A7039091A8038E7F0BC0F0
:1031D0008091A7039091A8038D7F05C08091A703DC
:1031E0009091A8038B7F9093A8038093A7038D2FC2
:1031F0000E9454240E94D92495C18C2F837009F019
:1032000050C011118BC18D2F829586958770880FC4
:10321000880F9D2F9F70892E912CA12CB12C082EE8
:1032200004C0880C991CAA1CBB1C0A94D2F7D4FFBA
:1032300014C00FE010E020E030E0B901A80104C0A4
:10324000440F551F661F771F8A95D2F7CB01BA012D
:10325000609570958095909503C060E070E0CB011B
:10326000C695C695C370D0E0C230D10561F0C330B9
:10327000D10581F0682979298A299B29219771F044
:103280000E94E51E4BC1682979298A299B290E9441
:10329000F71E44C10E94E51EC501B4010E94D31E61
:1032A0003DC1112319F08C2F817001C086958823B0
:1032B00009F434C18D2F829586958770880F880F09
:1032C0009D2F9F70892E912CA12CB12C082E04C00B
:1032D000880C991CAA1CBB1C0A94D2F7D4FF14C0FA
:1032E0000FE010E020E030E0B901A80104C0440F75
:1032F000551F661F771F8A95D2F7CB01BA016095DB
:1033000070958095909503C060E070E0CB01C69504
:10331000C695C3704C2F50E04230510569F04330E0
:10332000510589F0682979298A299B29413051055D
:1033300071F00E94AA1FF2C0682979298A299B2965
:103340000E94BC1FEBC00E94AA1FC501B4010E94CD
:10335000981FE4C08D2F90E0FC01E05EF109E5319B
:10336000F10508F04FC0EE56FF4F0C944B32DF7062
:103370008C2F8F71112331F00E94311F8D2F0E94ED
:10338000F017C0C00E94521F8D2F0E94F717BAC0BD
:10339000112339F00111B6C08C2F8F710E94771F55
:1033A000B1C0023008F0AEC0F7CF112339F08C2F36
:1033B0008F710E94311FA6C01123C9F38C2F8F710A
:1033C0000E94521F9FC0112329F08C2F8F710E94E1
:1033D0001C1F98C00E94171F95C0112349F0CF7180
:1033E0008C2F0E94311F63E08C2F0E94A3208AC083
:1033F00081E00E94AC20023008F484C082E00E9488
:10340000AC2080C0112331F0002389F28D2F0E945F
:10341000821678C0002391F2D93349F45FEF67EE4A
:1034200073E0515060407040E1F700C000008D2F04
:103430000E94911767C04C2F4F706D2FC7010E94DB
:10344000E9060E94461E6EC0D23FB1F028F4D03F7C
:1034500049F0D13FF9F028C0D43FB9F058F0D53F3A
:1034600071F022C0112309F447C09091970281E0C6
:10347000892708C081E01827109397023DC01111D9
:103480003BC081E08093970237C0111135C0109284
:10349000970232C0112329F080919602882329F3E4
:1034A00029C0002311F328C0809196020023C1F0A7
:1034B000882341F09091970281E0892780939702B9
:1034C000109296028D2F112319F00E94821614C0BB
:1034D0000E94911786E0F70111928A95E9F70CC0D6
:1034E000882351F0111108C09091970281E089273B
:1034F00080939702109296024C2F4F706D2FC70148
:103500000E94660AF8E0AF16B10441F05CF04AE0B0
:10351000A41AB10852E0A516B10420F40E94F414D4
:103520000E94640ADD20E1F00E949F2080FD18C007
:10353000F70112820E9499200E94311FC7010E9448
:10354000BC1A0E949920DF91CF911F910F91FF909B
:10355000EF90DF90BF90AF909F908F900C94521F90
:10356000DF91CF911F910F91FF90EF90DF90BF906F
:10357000AF909F908F9008950F931F93CF93DF93F9
:10358000EC01888199812B813C81232BB9F09F3FED
:1035900011F48F3F99F0CE010E943A07882371F011
:1035A000688179818A810E9476208C010E94CE1FD9
:1035B0000E94D01EB801CE010E94FE17DF91CF916C
:1035C0001F910F9108950E941D210E942D2180912D
:1035D0000301909104010E9438220E94CA200E9497
:1035E00072250E94D92480E090E00E94161580E0A8
:1035F00090E00C942C150E940D210C94E31A0E946B
:103600006B20E92FE295EF70F0E03297EE30F10594
:10361000B0F4E955FF4F0C944B32803F91F018F411
:10362000803E68F40EC0843F51F40BC0803E48F0E9
:10363000813F29F406C093FB882780F9089580E034
:10364000089581E00895CF93DF9300D000D01F92BA
:10365000CDB7DEB70F900F900F900F900F90DF91C6
:10366000CF910895CF93DF9300D000D000D0CDB795
:10367000DEB726960FB6F894DEBF0FBECDBFDF9142
:10368000CF9108951F93CF93DF93C091980216E0D6
:1036900080919902C81799F0D0E01C9FF0011D9FFE
:1036A000F00D1124E656FD4F4081518162817381F6
:1036B000848195810E94321B2196C770E9CFDF91EA
:1036C000CF911F9108954091CA025091CB02609111
:1036D000CC027091CD028091CE029091CF020C94D9
:1036E000321B8091CF0282958F7009F054C0809177
:1036F000CC02882309F44FC080919802A0919902CE
:103700006091CA027091CB024091CD025091CE02DD
:10371000B6E08A1709F43FC090E041155105C1F1A8
:103720007F3F11F46F3FA1F1B89FF001B99FF00DF9
:103730001124E656FD4F218172132AC020816213A5
:1037400027C02281211124C0238134812417350709
:1037500010F421503109241B350B283C3105C0F4ED
:103760002091CF022F7020612093CF0226E0289F66
:10377000F001299FF00D1124E156FD4F80818F70DB
:10378000806180838AEC92E00E94BC1A0C94421BF8
:1037900001968770BECF0895CF92DF92EF92FF928D
:1037A0000F931F93CF93DF93CDB7DEB762970FB61A
:1037B000F894DEBF0FBECDBF8C0185E0F801DE01BD
:1037C0001D9601900D928A95E1F7D8014C911196C2
:1037D0005C91119712966C9112971396CD90DC9094
:1037E00014973091CA027091CB028091CD029091D2
:1037F000CE02009709F46BC17F3F19F43F3F09F4F3
:1038000066C1E090CC02EE2009F4C0C02091CF0246
:10381000C816D90628F0F601E81BF90BCF0104C041
:10382000809590958C0D9D1DFF24F394883C910507
:1038300078F0F12C207F09F0C6C07C2DD98AC88A87
:1038400089890E94231B8AEC92E00E94BC1AB1C0B5
:10385000822F807F09F046C0751314C0341312C044
:10386000611110C02F7020612093CF020E94631B52
:103870008AEC92E00E94BC1A8091CF02D801159682
:103880008C932EC0CD2819F15F3F11F44F3FF9F012
:10389000F62E61111CC0809198022091990236E0A9
:1038A000821709F45AC090E0389FF001399FF00D5B
:1038B0001124E656FD4F7181571306C070814713DE
:1038C00003C07281711103C001968770E9CFF62E93
:1038D000662309F427C18091CF0281608093CF02D3
:1038E000F12C20C1751308C0341306C0611104C047
:1038F0008091CF02D801C3C04D875E878D859E859C
:103900006A8B0E94FF1A6A898823E1F16623D1F14C
:103910002091CF02822F82958F7090E0029774F0F1
:103920008091CA029091CB0298878F831986DB869B
:10393000CA862C87CE0107960E94BC1A86E0F80141
:10394000AAECB2E001900D928A95E1F70E94711BFA
:103950000E94631BFF24F394E5C04D875E878D852D
:103960009E850E946B20292F22952F7030E02230F7
:1039700031050CF0CBC09F7009F0C5C0805E883067
:1039800008F4D0C0C8010E94BC1AE4CFC816D906FA
:1039900008F453C0F601E81BF90BCF01883C9105F0
:1039A00008F450C0F12C7C2DD98AC88A89890E94DC
:1039B000231BEAECF2E086E0DF011D928A95E9F72D
:1039C0000E94631BAFC0751314C0341312C0611181
:1039D00010C08091CF02F8018583C8010E94BC1AF3
:1039E00086E0EAECF2E0DF011D928A95E9F7FE2C11
:1039F00099C04D875E878D859E856A8B0E94FF1AD0
:103A00006A89882309F4BECF662309F4BBCF2091CD
:103A1000CF02822F82958F7090E002970CF48ECFA8
:103A20008091CA029091CB029A8389831B82DD82A6
:103A3000CC822E83CE0101967FCF809590958C0D00
:103A40009D1DACCFF62E662309F49CCF75132EC0B6
:103A500034132CC02091CF0220FD1FC0822F8295ED
:103A60008F70D9F0D80115962C9315978F3049F0A7
:103A70008F5F982F9295907F822F8F70892B15964C
:103A80008C93C8010E94BC1A86E0F801AAECB2E04F
:103A900001900D928A95E1F793CF86E0F801AAECA8
:103AA000B2E001900D928A95E1F73CC04D875E87A8
:103AB0008D859E850E94FF1A811140CF8091CF0293
:103AC00081608093CF02C8010E94BC1A2BC066237C
:103AD00009F458CF4D875E878D859E850E94FF1A19
:103AE000F82E882309F44ECF86E0F801AAECB2E064
:103AF00001900D928A95E1F78AEC92E00E9470168F
:103B00000E94711B5DCF811139CF0CC0243031056B
:103B10000CF038CF9F7009F431CFF8019581907F78
:103B200009F02CCF8F2D62960FB6F894DEBF0FBE32
:103B3000CDBFDF91CF911F910F91FF90EF90DF905C
:103B4000CF9008951F93CF93DF93CDB7DEB72C9717
:103B50000FB6F894DEBF0FBECDBF4F83588769877D
:103B60007A878B879C87CE0107960E94CC1B88237F
:103B700069F08F8198852A853B85232BF1F19F3F42
:103B800009F063C08F3F09F060C037C086E0FE01D6
:103B90003796DE01119601900D928A95E1F76F81BB
:103BA0007885EA85FB85309741F17F3F11F46F3FBF
:103BB00021F12091990230E0C9010196877099277F
:103BC0004091980250E08417950709F447C0698333
:103BD0007A83FD83EC8396E0929FD001939FB00D92
:103BE0001124A656BD4FFE01319601900D929A9573
:103BF000E1F7809399020E94421B16E0809198029F
:103C0000909199028917C1F1189FC001112486561D
:103C10009D4F0E94CC1B882379F1E09198021E9F52
:103C2000F0011124E656FD4F40815181628173817C
:103C3000848195810E94321B8091980290E00196C8
:103C40008770992780939802D9CF4F8158856985CD
:103C50007A858B859C850E94321BCFCF0E94FB1AF0
:103C60001092990210929802EAECF2E086E0DF01ED
:103C70001D928A95E9F7C1CF2C960FB6F894DEBF56
:103C80000FBECDBFDF91CF911F910895EF92FF92AC
:103C90000F931F93CF93DF938C01892B09F46CC092
:103CA000F12CEE24E394E8012196F8018491843705
:103CB00040F4843008F051C0813081F0823019F135
:103CC0005BC0853709F444C0A8F19CE7980F903792
:103CD00008F052C08F770E94911741C00E5F1F4FAE
:103CE000FE01C49180E28C0F883048F4C7708E2D9D
:103CF00001C0880FCA95EAF70E94202114C08C2FBA
:103D00000E9482162DC00E5F1F4FFE01C49180E2FB
:103D10008C0F883058F4C7708E2D01C0880FCA955B
:103D2000EAF70E9426210E94CA201AC08C2F0E9406
:103D3000911716C00E5F1F4FFE01C491CC2381F076
:103D40008FE99FE00197F1F700C00000C150F6CF66
:103D50000E5F1F4FFE01F49003C00E9482168E0179
:103D60008F2D882309F49FCFEFE9FFE03197F1F71A
:103D700000C000008150F5CFDF91CF911F910F91CE
:103D8000FF90EF90089508950E94C31E60930B0367
:103D900070930C0380930D0390930E030C94E31A1D
:103DA00008950C94C41E0F931F9300910B03109160
:103DB0000C0320910D0330910E03602B712B822B8D
:103DC000932B1F910F910C94C41E0F931F9300917E
:103DD0000B0310910C0320910D0330910E0360230F
:103DE0007123822393231F910F910C94C41E0F9370
:103DF0001F9300910B0310910C0320910D03309140
:103E00000E0360277127822793271F910F910C942F
:103E1000C41E0C94F7060E94091F60930703709359
:103E200008038093090390930A030C94E31A60E05B
:103E300070E0CB010C940B1F0F931F9341E050E0F7
:103E400060E070E08A019B0104C0000F111F221F77
:103E5000331F8A95D2F7C901B8011F910F910C94B5
:103E60000B1F0F931F9341E050E060E070E004C02F
:103E7000440F551F661F771F8A95D2F7809107035D
:103E800090910803A0910903B0910A038A019B0154
:103E9000082B192B2A2B3B2BC901B8011F910F911D
:103EA0000C940B1F0F931F9341E050E060E070E013
:103EB00004C0440F551F661F771F8A95D2F740959F
:103EC0005095609570958091070390910803A0919B
:103ED0000903B0910A038A019B01082319232A23AD
:103EE0003B23C901B8011F910F910C940B1F0F9335
:103EF0001F9341E050E060E070E004C0440F551FA4
:103F0000661F771F8A95D2F7809107039091080367
:103F1000A0910903B0910A038A019B010827192780
:103F20002A273B27C901B8011F910F910C940B1F41
:103F30000F931F9300910703109108032091090329
:103F400030910A03602B712B822B932B1F910F91C1
:103F50000C940B1F0F931F930091070310910803FC
:103F60002091090330910A03602371238223932354
:103F70001F910F910C940B1F0F931F930091070338
:103F8000109108032091090330910A0360277127DB
:103F9000822793271F910F910C940B1F0895292FAF
:103FA000220F920F990F890FA82FA695A695A69577
:103FB000877051E001C0550F8A95EAF785E0A89F08
:103FC000D001112420E030E070E0F901EA0FFB1F7E
:103FD000E053FD4F4081CB01022E02C0969587959C
:103FE0000A94E2F781709927819584278523842795
:103FF00080832F5F3F4F2530310539F70895292FF2
:10400000220F920F990F890F682F66956695669516
:10401000982F977085E0689FB001112440E050E030
:1040200080E0FA01E60FF71FE053FD4F208130E0FA
:10403000092E02C0369527950A94E2F7217033279E
:10404000042E01C0220F0A94EAF7822B4F5F5F4FC4
:104050004530510531F70895CF92DF92EF92FF92EC
:104060000F931F93CF93DF938C01C0900B03D090DD
:104070000C03E0900D03F0900E03809107039091E4
:104080000803A0910903B0910A03C82AD92AEA2A91
:10409000FB2ACFE1D0E0D701C6010C2E04C0B695B3
:1040A000A795979587950A94D2F780FF06C0B80127
:1040B0008C2F0E94810A019721F4219760F780E0FC
:1040C00001C08C2FDF91CF911F910F91FF90EF9046
:1040D000DF90CF900895CF93DF93EC010E942C20C6
:1040E000BE010E94810ADF91CF9108951F93CF9363
:1040F000DF93EB0190919502992321F0CB010E946F
:104100006B2013C0882349F0CB010E942C20182F6C
:10411000682FCE010E94CF1F04C0CB010E94FF1F59
:10412000182FBE01812F0E94810ADF91CF911F912C
:10413000089580910F0385958595859508958091C3
:104140000F038770089598E0899F90011124262B12
:1041500020930F030C94311F20910F03809582232D
:1041600080930F03982F977069F430E0482F082E42
:10417000000C550B2417350729F0859585958595F5
:104180000C94521F089590910F03977081E009F4E9
:1041900080E00895E0910301F091040180913303E0
:1041A0008083E0910301F0910401908180913203BA
:1041B000892B8083E0910301F0910401908180912B
:1041C0003103892B808380911003882381F0E09153
:1041D0000301F09104019081892B80838091030178
:1041E000909104010E94C6218111109210038091C8
:1041F0000301909104010C940015809133030895FC
:1042000090913303892B8093330308958095909187
:104210003303892380933303089510923303089561
:1042200090913203892B8093320308958095909169
:104230003203892380933203089510923203089544
:1042400090913103892B809331030895809590914B
:104250003103892380933103089510923103089527
:104260008093100308951092100308958091100315
:104270000895CF92DF92EF92FF926C01EE24FF241B
:10428000C114D104E104F10421F0C701B60120E119
:1042900001C020E0C72ED82EE92EFF24C114D1047E
:1042A000E104F10419F0285FC701B6016B017C013C
:1042B00054E0F694E794D794C7945A95D1F7C11473
:1042C000D104E104F10419F02C5FC701B6016B01C0
:1042D0007C0142E0F694E794D794C7944A95D1F7CD
:1042E000C114D104E104F10419F02E5FC701B60135
:1042F000DC01CB01B695A79597958795892B8A2BDD
:104300008B2B09F02F5F822FFF90EF90DF90CF90E3
:1043100008956DEE7EEF80E090E00E94833260E0D1
:1043200082E090E00E94653260E083E090E00E94CD
:10433000653260E084E090E00E94653260E085E0F4
:1043400090E00E94653240E050E0BA0188E090E0E1
:104350000C94773280E090E00E945F3221E08D3E45
:104360009E4F09F020E0822F089582E090E00C94A7
:10437000513283E090E00C94513284E090E00C9450
:104380005132682F84E090E00C946532FC01319644
:104390009C01205E3F4F80E0919191118F5FE21769
:1043A000F307D1F708959C01FC0132969FEF80E05E
:1043B0004191461789F09F3F19F4411101C0982F90
:1043C0008F5F8E31A9F79F3F39F0F901E90FF11D99
:1043D00097FDFA95628308950895FC0132968096C0
:1043E0002081261301C010823196E817F907C1F722
:1043F0000895262F2695269526952F3168F4FC01E1
:10440000E20FF11D677021E030E001C0220F6A95D4
:10441000EAF78181282B21830895262F269526955A
:1044200026952F3170F4FC01E20FF11D677021E039
:1044300030E001C0220F6A95EAF720958181282398
:104440002183089520911401222329F02091AD03A6
:1044500027FD0C94F9210C94D321209114012223DF
:1044600029F02091AD0327FD0C940D220C94ED2131
:10447000FC01319680961192E817F907E1F708954B
:1044800008950C9440228091B303843049F1109236
:10449000350320E488E190E00FB6F894A895809366
:1044A00060000FBE2093600080E00E94640A0E94BA
:1044B000412283B7817F846083BF83B7816083BFDC
:1044C0007894889583B78E7F83BF0FB6F894A895AC
:1044D00080916000886180936000109260000FBE40
:1044E00008950895CF930E9437050E9484050E9485
:1044F0007122C0E08C2F0E94ED05811104C0CF5FB6
:10450000CE30C1F701C081E0CF91089508950C9499
:1045100086220E94FB1A0E94F4140E94640A0C94E2
:1045200087221F920F920FB60F9211248F939F93A1
:10453000AF93BF9380913503811113C08091A9037C
:104540009091AA03A091AB03B091AC034196A11D39
:10455000B11D8093A9039093AA03A093AB03B093DA
:10456000AC03BF91AF919F918F910F900FBE0F90B1
:104570001F90189582E084BD93E095BD9AEF97BD9A
:1045800080936E0008952FB7F8948091A9039091BD
:10459000AA03A091AB03B091AC032FBF0895CF92B3
:1045A000DF92EF92FF920F931F932FB7F8944091F1
:1045B000A9035091AA036091AB037091AC032FBF84
:1045C0006A017B01EE24FF248C0120E030E0C0165C
:1045D000D106E206F30610F4415051099A01281B56
:1045E000390BC9011F910F91FF90EF90DF90CF9091
:1045F000089578941F920F920FB60F9211248F9303
:104600009F93AF93BF938091A9039091AA03A09128
:10461000AB03B091AC030196A11DB11D8093A9031A
:104620009093AA03A093AB03B093AC03BF91AF9157
:104630009F918F910F900FBE0F901F901895F89437
:1046400081E08093E00080E28093D800E9ECF0E024
:1046500010828FE19EE40197F1F700C000001DBABF
:10466000109268001CBC10BE1FBA10927A00109203
:104670006E0010926F001092710010927200108202
:10468000ECEBF0E0108214B817B81AB81DB810BAE5
:10469000108215B818B81BB81EB811BA0C94003F98
:1046A00008950E94AA21811102C00E9489210E94BE
:1046B000B521809334030E94BD2190E09093AE0316
:1046C0008093AD030E94B921682F70E080E090E0F4
:1046D0000C94D11E8091390380FF0BC060910801BA
:1046E00085E0689FB001112475956795759567956C
:1046F0002BC081FF09C06091080185E0689FB0016F
:1047000011247595679520C082FF07C0609108014C
:1047100085E0689FB001112417C090913A03992356
:10472000D1F060910701961788F72091080185E084
:10473000289F90011124929FA001939F500D112456
:1047400070E0CA010E9437326038710540F461158B
:10475000710539F002C065E070E0862F08958FE79B
:10476000089581E008958091390380FF08C0609129
:10477000060170E0759567957595679521C081FF75
:1047800006C06091060170E07595679519C082FFBB
:1047900004C06091060170E010C090913A03992323
:1047A000C1F0609105019617A0F780910601899FDD
:1047B000C001112470E00E9437326038710528F47E
:1047C0006115710521F0862F08958FE7089581E026
:1047D000089561E070E0F4CF803F21F40E946A23E5
:1047E000819504C0813F29F40E946A2380933D0390
:1047F0000895823F21F40E946A23819504C0833F7B
:1048000029F40E946A2380933C030895893F19F498
:104810000E94B32305C08A3F31F40E94B3238195DF
:1048200080933E0308958B3F21F40E94B32381952A
:1048300004C08C3F29F40E94B32380933F03089562
:10484000843F21F480913B03816017C0853F21F4B0
:1048500080913B03826011C0863F21F480913B032D
:1048600084600BC0873F21F480913B03886005C0C2
:10487000883F31F480913B03806180933B0308952E
:104880008D3F21F48091390381600BC08E3F21F46C
:1048900080913903826005C08F3F29F480913903EC
:1048A0008460809339030895803F39F480913D03FB
:1048B00087FF6CC010923D0369C0813F29F480914D
:1048C0003D031816BCF362C090913C03823F29F46B
:1048D00097FF5CC010923C0359C0833F19F419162E
:1048E000CCF354C0893F41F480913E0318160CF07C
:1048F0004DC010923E034AC08A3F29F480913E0386
:1049000087FF44C0F6CF8B3F39F480913F0387FF88
:104910003DC010923F033AC08C3F29F480913F0381
:104920001816BCF333C0843F21F480913B038E7F83
:1049300017C0853F21F480913B038D7F11C0863FD6
:1049400021F480913B038B7F0BC0873F21F4809142
:104950003B03877F05C0883F31F480913B038F7E06
:1049600080933B0313C08D3F21F4809139038E7FE8
:104970000BC08E3F21F4809139038D7F05C08F3F9E
:1049800029F4809139038B7F8093390380913C0314
:1049900081110EC080913D0381110AC080913E03B8
:1049A000811106C080913F03811102C010923A0329
:1049B00008958BE393E00E940B150E94C32290930D
:1049C00037038093360308951F93CF93DF9380912D
:1049D0003603909137030E94CF22AC0190913A03A5
:1049E000992321F02091090130E006C0209138037D
:1049F0008AE0289F900111244217530708F46EC0E3
:104A000080913C03C0913D03D0913E0310913F0340
:104A1000811107C0C1115EC0D1115CC011115AC013
:104A20005DC09F3F19F09F5F90933A03181624F4DE
:104A30000E946A2380933C0380913C0387FF05C05A
:104A40000E946A23819580933C031C1624F40E94E3
:104A50006A2380933D0380913D0387FF05C00E9438
:104A60006A23819580933D0340913C03442379F070
:104A700030913D03332359F025EB4203A00111246B
:104A800050933C033203C001112490933D031D1643
:104A900024F40E94B32380933E0380913E0387FF5A
:104AA00005C00E94B323819580933E03111624F420
:104AB0000E94B32380933F0380913F0387FF05C08B
:104AC0000E94B323819580933F03DF91CF911F9183
:104AD0000C94D9249F3F09F0A6CFAECFDF91CF91A0
:104AE0001F910895EBE3F3E085E0DF011D928A95C5
:104AF000E9F710923A03109239030895833081F157
:104B000028F4813059F08230D1F00895853009F4CD
:104B100049C0B8F1863009F456C008958091380331
:104B2000262F30E0280F311D2F3F310524F4680F68
:104B30006093380308958FEF809338030895809130
:104B40000901262F30E0280F311D2F3F310524F4B5
:104B5000680F6093090108958FEF8093090108950C
:104B600080910801262F30E0280F311D2F3F31059D
:104B700024F4680F6093080108958FEF8093080173
:104B8000089580910701262F30E0280F311D2F3F17
:104B9000310524F4680F6093070108958FEF809327
:104BA0000701089580910601262F30E0280F311D5E
:104BB0002F3F310524F4680F6093060108958FEFAD
:104BC00080930601089580910501262F30E0280F7B
:104BD000311D2F3F310524F4680F609305010895BE
:104BE0008FEF809305010895833011F128F481300F
:104BF00049F0823091F00895853081F120F18630BE
:104C0000C1F1089580913803681720F4861B8093C2
:104C100038030895109238030895809109016817A8
:104C200020F4861B809309010895109209010895CC
:104C300080910801681720F4861B8093080108956D
:104C400010920801089580910701681720F4861BCF
:104C5000809307010895109207010895809106013D
:104C6000681720F4861B80930601089510920601B0
:104C7000089580910501681720F4861B8093050133
:104C800008951092050108950F931F93873208F03D
:104C90004DC08E3108F093C0803109F47DC008F515
:104CA000873009F46BC068F4863009F0A3C08091A6
:104CB0003403817F8E7F8093340381E080934103AE
:104CC0009AC08B3009F48FC08E3009F093C0809168
:104CD000340382FB222720F991E0922790FB82F98E
:104CE00064C0863109F47FC088F4813109F082C044
:104CF0000E94FB1A8091AD0387FB222720F991E0E7
:104D0000922790FB87F98093AD036DC0893109F438
:104D10006AC08B3109F06EC08091340381FB222779
:104D200020F991E0922790FB81F93FC0883309F484
:104D30005AC050F4893209F458C0853309F455C07B
:104D4000873209F452C056C0833409F44EC028F4A7
:104D50008A3308F44FC0895333C0883409F04AC0FD
:104D60000E94FB1A0FEF13ED20E30150104020408A
:104D7000E1F700C000000E941F2335C0809134037A
:104D8000982F9095917090FB80F980933403911146
:104D90002AC0897F877F10C08091340383FB22273C
:104DA00020F991E0922790FB83F9809334039923B3
:104DB000D1F08091340381608093340314C08D510D
:104DC00041E050E060E070E08A019B0104C0000F08
:104DD000111F221F331F8A95D2F7C901B8010E9403
:104DE000D11E0E94FB1A81E006C061E070E080E005
:104DF00090E0F5CF80E01F910F91089580E0089535
:104E000080E008958E518A3030F4E82FF0E0E354CA
:104E1000FE4F8081089580E00895CF93C82F809140
:104E20004103813079F018F08230E9F185C0E091DA
:104E30000301F09104018081813169F0823209F02F
:104E40007DC009C0E0910301F091040180818131AE
:104E500011F0823261F48C2F0E94FE26811104C071
:104E60008C2F0E9444261DC081E090E01AC08C2F38
:104E70000E940027811114C0C43179F048F4CB306E
:104E800079F0C03109F05EC082E08093410308C030
:104E9000C93219F0C83321F055C01092410352C0F5
:104EA00081E0817051C0C93279F108F5C43161F1F6
:104EB000A0F4C73009F044C01092380384E1809315
:104EC0000901C09308018CE38093070188E0809377
:104ED000060188E28093050133C082EE8C0F863094
:104EE00078F58C2F0E9402278093400329C0CE348E
:104EF000E9F020F4CB3421F56AE013C0C13579F034
:104F0000C235F1F461E00DC080914003882319F0AF
:104F10001092400315C081E08093410315C061E009
:104F200006C0809140030E947E250AC06AE08091FD
:104F300040030E94F42504C01092410380E004C0A5
:104F400081E002C080E0ADCFCF91089580916203EF
:104F500008950F931F93CF93DF9300D01F92CDB787
:104F6000DEB78C010E94212A823011F0843019F5BD
:104F700093E099831B830A839093E9008FEF9091CC
:104F8000E800815095FD06C095ED9A95F1F7000077
:104F90008111F5CF8091E80085FF0DC040E050E021
:104FA00063E070E0CE0101960E943E2A8091E80005
:104FB0008E778093E8000F900F900F90DF91CF9144
:104FC0001F910F910895CF93DF9300D01F92CDB71B
:104FD000DEB72091B303243031F522E029838058D5
:104FE00091099B838A8383E08093E9008FEF9091FE
:104FF000E800815095FD06C095ED9A95F1F7000007
:105000008111F5CF8091E80085FF0DC040E050E0B0
:1050100063E070E0CE0101960E943E2A8091E80094
:105020008E778093E8000F900F900F90DF91CF91D3
:105030000895CF93DF93EC010E94212A823011F072
:105040008430F9F482E08093E9009FEF8091E800DA
:10505000915085FD06C085ED8A95F1F7000091110C
:10506000F5CF8091E80085FF0CC040E050E065E09E
:1050700070E0CE010E943E2A8091E8008E778093F6
:10508000E800DF91CF910895CF93DF93EC010E9468
:10509000212A823019F0843009F047C08091140130
:1050A0008823E1F08091AD0387FF18C084E08093EE
:1050B000E9008FEF9091E800815095FD06C095E1E1
:1050C0009A95F1F700008111F5CF8091E80085FFF6
:1050D0002CC040E050E060E270E017C081E08093B7
:1050E000E9008FEF9091E800815095FD06C095EDA5
:1050F0009A95F1F700008111F5CF8091E80085FFC6
:1051000014C040E050E068E070E0CE010E943E2A0A
:105110008091E8008E778093E80080E2FE01A2E4AF
:10512000B3E001900D928A95E1F7DF91CF91089558
:105130008091B203811109C00E94D32B0E94302CB0
:105140008091E20084608093E20008951092B2039F
:105150000895089508950C94892242E061EC81E05D
:105160000E944D2B42E061EC82E00E944D2B42E018
:1051700061EC83E00E944D2B42E261EC84E00C94F0
:105180004D2B8091B503833009F455C030F4813044
:1051900071F0823009F48EC008958A3009F47AC023
:1051A0008B3009F460C0893009F09CC020C0809128
:1051B000B403813A09F096C08091E800877F80931C
:1051C000E8008091B8039091B903892B21F460E243
:1051D00082E493E003C060E080E090E070E00E9431
:1051E000892A8091E8008B778093E8000895809168
:1051F000B403813209F076C08091B8039091B9036D
:10520000009719F0039709F06DC08091E800877F3F
:105210008093E8008091E80082FD05C08091B3038F
:105220008111F8CF5FC08091F1008093620380917B
:10523000E8008B7753C08091B403813A09F052C0E3
:105240008091B8039091B903892B09F04BC08091EC
:10525000E800877F8093E8008091E80080FFFCCF22
:105260008091140136C08091B4038132D9F58091C8
:10527000B8039091B903892BA9F58091E800877F45
:105280008093E8000E94822B8091B60380931401E2
:105290000C94FB1A8091B403813221F58091E800CF
:1052A000877F8093E8000E94822B8091B7038093D0
:1052B000630308958091B403813AA1F48091E800DA
:1052C000877F8093E8008091E80080FFFCCF809189
:1052D00063038093F1008091E8008E778093E8006B
:1052E0000C94822B089584B7877F84BF0FB6F894FF
:1052F000A8958091600088618093600010926000A2
:105300000FBE80E880936100109261000E944315F7
:105310000E94D32B0E94302C8091E2008460809305
:10532000E20078940E94BF2E0E9447158AE091E027
:105330000E94EF148091B303853069F40E944322E8
:105340008091B1038823B1F30E947222882391F3E4
:105350000E94282AEFCF0E944F150E94ED13EACF3A
:105360000C94B229292F332723303105C9F064F476
:105370002130310581F02230310509F049C08DE638
:1053800090E022EC36E048C02132310521F1223292
:10539000310571F13DC082E190E02FE237E03CC081
:1053A00099278130910571F02CF4892B89F5EEEB6A
:1053B000F6E00DC08230910541F0039749F5E8E829
:1053C000F6E005C0E6EAF6E002C0EEE8F6E0849119
:1053D00090E09F0121C064307105D0F4660F771F03
:1053E000FB01ED52FE4F2081318189E090E014C035
:1053F0006430710568F4FB01EE0FFF1FE553FE4FAB
:1054000020813181FB01E953FE4F808190E004C08F
:1054100080E090E020E030E0FA01318320830895BD
:105420000895CF93C82F0E94102AC0936403CF9190
:1054300008958091B303843011F081E0089582E0F3
:10544000089580916403811102C00C94192A089573
:1054500080E189BD82E189BD09B400FEFDCF809164
:10546000D8008F7D8093D8008091E0008260809387
:10547000E0008091E00081FDFCCF0895CF92DF92A3
:10548000EF92FF920F931F93CF93DF93EC018B0169
:105490006A010E94A12B811133C0C114D10439F0DB
:1054A000F60180819181081B190BC80FD91FE12CCF
:1054B000F12C0115110519F18091E80085FD16C048
:1054C0008091E8008E778093E800C114D10449F000
:1054D000F60180819181E80EF91EF182E08285E07B
:1054E0000FC00E94A12B882321F30AC089918093C9
:1054F000F10001501109FFEFEF1AFF0ADACF80E047
:10550000DF91CF911F910F91FF90EF90DF90CF909F
:1055100008952091BA033091BB032617370748F04E
:105520006115710539F42091E8002E772093E80089
:1055300001C0B90140E061157105A9F12091B303E3
:10554000222309F443C0253009F442C02091E80029
:1055500023FD40C02091E80022FD32C02091E800E8
:1055600020FFE9CF4091F3002091F20030E0342B8E
:10557000FC01CF016115710559F02830310540F467
:1055800081918093F100615071092F5F3F4FF1CFFE
:1055900041E02830310509F040E02091E8002E7705
:1055A0002093E800C8CF4111C9CF0AC08091B3034E
:1055B000882361F0853061F08091E80083FD0AC0A6
:1055C0008091E80082FFF2CF80E0089582E00895A4
:1055D00083E0089581E008952091BA033091BB03E0
:1055E0002617370748F06115710539F42091E80056
:1055F0002E772093E80001C0B901FC0120E061157D
:10560000710591F18091B303882309F440C085307E
:1056100009F43FC08091E80083FD3DC08091E8001F
:1056200082FD2FC08091E80080FFE9CF2091F30038
:105630008091F20090E0922B6115710559F088304D
:10564000910540F424912093F10031966150710945
:105650000196F2CF21E0089709F020E08091E80060
:105660008E778093E800CBCF2111CCCF0AC08091F8
:10567000B303882361F0853061F08091E80083FDF9
:105680000AC08091E80082FFF2CF80E0089582E0B6
:10569000089583E0089581E00895982F973058F594
:1056A0009093E900981739F07091EC002091ED008B
:1056B0005091F00003C0242F762F50E021FF19C035
:1056C0003091EB003E7F3093EB003091ED003D7F59
:1056D0003093ED003091EB0031603093EB0070932C
:1056E000EC002093ED005093F0002091EE0027FF96
:1056F00007C09F5FD3CF8F708093E90081E008954A
:1057000080E008958091B40387FF11C08091E80084
:1057100082FD05C08091B3038111F8CF11C0809143
:10572000E8008B770BC08091B303882349F0809108
:10573000E80080FFF8CF8091E8008E778093E80042
:1057400008952091E4003091E50095E64091EC0049
:10575000842F817040FF22C08091E80080FD1CC032
:105760008091B303882391F0853091F08091EB0014
:1057700085FD10C04091E4005091E50042175307A9
:1057800029F39A01915011F784E0089582E0089579
:1057900083E0089581E0089580E008954091E80055
:1057A00042FFDECF08950E94412C0E94492CE0EE7A
:1057B000F0E0808181608083E8EDF0E080818F7788
:1057C000808319BCA7EDB0E08C918E7F8C93808193
:1057D0008F7E80831092B20308950F931F93CF930F
:1057E000DF930E94412C0E94492CC8EDD0E08881B3
:1057F0008F77888388818068888388818F7D88837C
:1058000019BC1092B3031092AF031092B10310921F
:10581000B00300EE10E0F80180818B7F80838881E7
:105820008160888342E060E080E00E944D2BE1EEE1
:10583000F0E080818E7F8083E2EEF0E08081816005
:105840008083808188608083F80180818E7F80835F
:10585000888180618883DF91CF911F910F91089596
:10586000E8EDF0E080818F7E8083E7EDF0E08081DD
:105870008160808384E082BF81E08093B2030C94D6
:10588000ED2BE8EDF0E080818E7F80831092E200C6
:1058900008951092DA001092E10008951F920F927D
:1058A0000FB60F9211242F933F934F935F936F93F3
:1058B0007F938F939F93AF93BF93EF93FF938091C9
:1058C000E10082FF0BC08091E20082FF07C080915F
:1058D000E1008B7F8093E1000E94BE2E8091DA0070
:1058E00080FF1FC08091D80080FF1BC08091DA002C
:1058F0008E7F8093DA008091D90080FF0DC080E117
:1059000089BD82E189BD09B400FEFDCF81E08093AD
:10591000B3030E94982805C019BC1092B3030E94DB
:10592000A6288091E10080FF19C08091E20080FFED
:1059300015C08091E2008E7F8093E2008091E200AA
:1059400080618093E2008091D80080628093D800CB
:1059500019BC85E08093B3030E94AA288091E100DE
:1059600084FF30C08091E20084FF2CC080E189BDBB
:1059700082E189BD09B400FEFDCF8091D8008F7D02
:105980008093D8008091E1008F7E8093E100809128
:10599000E2008F7E8093E2008091E200816080933C
:1059A000E2008091AF03882311F084E007C080916A
:1059B000E30087FD02C081E001C083E08093B30370
:1059C0000E94AB288091E10083FF29C08091E20012
:1059D00083FF25C08091E100877F8093E10082E012
:1059E0008093B3031092AF038091E1008E7F809388
:1059F000E1008091E2008E7F8093E2008091E200DE
:105A000080618093E20042E060E080E00E944D2BE4
:105A10008091F00088608093F0000E94A928FF9197
:105A2000EF91BF91AF919F918F917F916F915F9116
:105A30004F913F912F910F900FBE0F901F9018958F
:105A40001F920F920FB60F9211242F933F934F93F3
:105A50005F936F937F938F939F93AF93BF93CF93F6
:105A6000DF93EF93FF93C091E900CF708091EC003A
:105A7000D82FD17080FDD0E81092E9008091F0001D
:105A8000877F8093F00078940E94642D1092E90043
:105A90008091F00088608093F000CD2BCF70C09390
:105AA000E900FF91EF91DF91CF91BF91AF919F916D
:105AB0008F917F916F915F914F913F912F910F90B7
:105AC0000FBE0F901F9018951F93CF93DF93CDB704
:105AD000DEB7AA970FB6F894DEBF0FBECDBFE4EBDA
